{
  "_format": "hh3-artifact-1",
  "contractName": "DAOGovernance",
  "sourceName": "contracts/DAOGovernance.sol",
  "abi": [
    {
      "inputs": [
        {
          "internalType": "address",
          "name": "membershipContract",
          "type": "address"
        },
        {
          "internalType": "address",
          "name": "treasury",
          "type": "address"
        }
      ],
      "stateMutability": "nonpayable",
      "type": "constructor"
    },
    {
      "inputs": [],
      "name": "EnforcedPause",
      "type": "error"
    },
    {
      "inputs": [],
      "name": "ExpectedPause",
      "type": "error"
    },
    {
      "inputs": [
        {
          "internalType": "address",
          "name": "owner",
          "type": "address"
        }
      ],
      "name": "OwnableInvalidOwner",
      "type": "error"
    },
    {
      "inputs": [
        {
          "internalType": "address",
          "name": "account",
          "type": "address"
        }
      ],
      "name": "OwnableUnauthorizedAccount",
      "type": "error"
    },
    {
      "inputs": [],
      "name": "ReentrancyGuardReentrantCall",
      "type": "error"
    },
    {
      "anonymous": false,
      "inputs": [
        {
          "indexed": false,
          "internalType": "uint256",
          "name": "delay",
          "type": "uint256"
        }
      ],
      "name": "ExecutionDelayUpdated",
      "type": "event"
    },
    {
      "anonymous": false,
      "inputs": [
        {
          "indexed": true,
          "internalType": "address",
          "name": "previousOwner",
          "type": "address"
        },
        {
          "indexed": true,
          "internalType": "address",
          "name": "newOwner",
          "type": "address"
        }
      ],
      "name": "OwnershipTransferred",
      "type": "event"
    },
    {
      "anonymous": false,
      "inputs": [
        {
          "indexed": false,
          "internalType": "address",
          "name": "account",
          "type": "address"
        }
      ],
      "name": "Paused",
      "type": "event"
    },
    {
      "anonymous": false,
      "inputs": [
        {
          "indexed": true,
          "internalType": "uint256",
          "name": "proposalId",
          "type": "uint256"
        },
        {
          "indexed": true,
          "internalType": "address",
          "name": "cancelledBy",
          "type": "address"
        }
      ],
      "name": "ProposalCancelled",
      "type": "event"
    },
    {
      "anonymous": false,
      "inputs": [
        {
          "indexed": true,
          "internalType": "uint256",
          "name": "proposalId",
          "type": "uint256"
        },
        {
          "indexed": true,
          "internalType": "address",
          "name": "proposer",
          "type": "address"
        },
        {
          "indexed": false,
          "internalType": "string",
          "name": "title",
          "type": "string"
        }
      ],
      "name": "ProposalCreated",
      "type": "event"
    },
    {
      "anonymous": false,
      "inputs": [
        {
          "indexed": true,
          "internalType": "uint256",
          "name": "proposalId",
          "type": "uint256"
        },
        {
          "indexed": true,
          "internalType": "address",
          "name": "executor",
          "type": "address"
        }
      ],
      "name": "ProposalExecuted",
      "type": "event"
    },
    {
      "anonymous": false,
      "inputs": [
        {
          "indexed": false,
          "internalType": "uint256",
          "name": "quorum",
          "type": "uint256"
        }
      ],
      "name": "QuorumUpdated",
      "type": "event"
    },
    {
      "anonymous": false,
      "inputs": [
        {
          "indexed": true,
          "internalType": "address",
          "name": "wallet",
          "type": "address"
        }
      ],
      "name": "TreasuryUpdated",
      "type": "event"
    },
    {
      "anonymous": false,
      "inputs": [
        {
          "indexed": false,
          "internalType": "address",
          "name": "account",
          "type": "address"
        }
      ],
      "name": "Unpaused",
      "type": "event"
    },
    {
      "anonymous": false,
      "inputs": [
        {
          "indexed": true,
          "internalType": "uint256",
          "name": "proposalId",
          "type": "uint256"
        },
        {
          "indexed": true,
          "internalType": "address",
          "name": "voter",
          "type": "address"
        },
        {
          "indexed": false,
          "internalType": "enum DAOGovernance.VoteType",
          "name": "vote",
          "type": "uint8"
        }
      ],
      "name": "VoteCast",
      "type": "event"
    },
    {
      "inputs": [],
      "name": "MAX_VOTING_PERIOD",
      "outputs": [
        {
          "internalType": "uint256",
          "name": "",
          "type": "uint256"
        }
      ],
      "stateMutability": "view",
      "type": "function"
    },
    {
      "inputs": [],
      "name": "MIN_VOTING_PERIOD",
      "outputs": [
        {
          "internalType": "uint256",
          "name": "",
          "type": "uint256"
        }
      ],
      "stateMutability": "view",
      "type": "function"
    },
    {
      "inputs": [
        {
          "internalType": "uint256",
          "name": "proposalId",
          "type": "uint256"
        }
      ],
      "name": "cancelProposal",
      "outputs": [],
      "stateMutability": "nonpayable",
      "type": "function"
    },
    {
      "inputs": [],
      "name": "cancelledProposals",
      "outputs": [
        {
          "internalType": "uint256",
          "name": "",
          "type": "uint256"
        }
      ],
      "stateMutability": "view",
      "type": "function"
    },
    {
      "inputs": [
        {
          "internalType": "uint256",
          "name": "proposalId",
          "type": "uint256"
        },
        {
          "internalType": "enum DAOGovernance.VoteType",
          "name": "vote",
          "type": "uint8"
        }
      ],
      "name": "castVote",
      "outputs": [],
      "stateMutability": "nonpayable",
      "type": "function"
    },
    {
      "inputs": [],
      "name": "contractVersion",
      "outputs": [
        {
          "internalType": "string",
          "name": "",
          "type": "string"
        }
      ],
      "stateMutability": "pure",
      "type": "function"
    },
    {
      "inputs": [
        {
          "internalType": "string",
          "name": "title",
          "type": "string"
        },
        {
          "internalType": "string",
          "name": "description",
          "type": "string"
        },
        {
          "internalType": "uint256",
          "name": "votingPeriod",
          "type": "uint256"
        }
      ],
      "name": "createProposal",
      "outputs": [],
      "stateMutability": "nonpayable",
      "type": "function"
    },
    {
      "inputs": [],
      "name": "daoSummary",
      "outputs": [
        {
          "internalType": "uint256",
          "name": "totalProposals",
          "type": "uint256"
        },
        {
          "internalType": "uint256",
          "name": "executed",
          "type": "uint256"
        },
        {
          "internalType": "uint256",
          "name": "cancelled",
          "type": "uint256"
        },
        {
          "internalType": "uint256",
          "name": "votes",
          "type": "uint256"
        },
        {
          "internalType": "uint256",
          "name": "currentQuorum",
          "type": "uint256"
        },
        {
          "internalType": "address",
          "name": "treasury",
          "type": "address"
        }
      ],
      "stateMutability": "view",
      "type": "function"
    },
    {
      "inputs": [
        {
          "internalType": "uint256",
          "name": "proposalId",
          "type": "uint256"
        }
      ],
      "name": "executeProposal",
      "outputs": [],
      "stateMutability": "nonpayable",
      "type": "function"
    },
    {
      "inputs": [],
      "name": "executedProposals",
      "outputs": [
        {
          "internalType": "uint256",
          "name": "",
          "type": "uint256"
        }
      ],
      "stateMutability": "view",
      "type": "function"
    },
    {
      "inputs": [],
      "name": "executionDelay",
      "outputs": [
        {
          "internalType": "uint256",
          "name": "",
          "type": "uint256"
        }
      ],
      "stateMutability": "view",
      "type": "function"
    },
    {
      "inputs": [
        {
          "internalType": "uint256",
          "name": "proposalId",
          "type": "uint256"
        }
      ],
      "name": "getProposal",
      "outputs": [
        {
          "components": [
            {
              "internalType": "uint256",
              "name": "id",
              "type": "uint256"
            },
            {
              "internalType": "address",
              "name": "proposer",
              "type": "address"
            },
            {
              "internalType": "string",
              "name": "title",
              "type": "string"
            },
            {
              "internalType": "string",
              "name": "description",
              "type": "string"
            },
            {
              "internalType": "uint256",
              "name": "createdAt",
              "type": "uint256"
            },
            {
              "internalType": "uint256",
              "name": "startTime",
              "type": "uint256"
            },
            {
              "internalType": "uint256",
              "name": "endTime",
              "type": "uint256"
            },
            {
              "internalType": "uint256",
              "name": "approveVotes",
              "type": "uint256"
            },
            {
              "internalType": "uint256",
              "name": "rejectVotes",
              "type": "uint256"
            },
            {
              "internalType": "uint256",
              "name": "abstainVotes",
              "type": "uint256"
            },
            {
              "internalType": "uint256",
              "name": "totalVotes",
              "type": "uint256"
            },
            {
              "internalType": "enum DAOGovernance.ProposalStatus",
              "name": "status",
              "type": "uint8"
            },
            {
              "internalType": "bool",
              "name": "executed",
              "type": "bool"
            }
          ],
          "internalType": "struct DAOGovernance.Proposal",
          "name": "",
          "type": "tuple"
        }
      ],
      "stateMutability": "view",
      "type": "function"
    },
    {
      "inputs": [
        {
          "internalType": "uint256",
          "name": "proposalId",
          "type": "uint256"
        },
        {
          "internalType": "address",
          "name": "voter",
          "type": "address"
        }
      ],
      "name": "getVote",
      "outputs": [
        {
          "components": [
            {
              "internalType": "enum DAOGovernance.VoteType",
              "name": "vote",
              "type": "uint8"
            },
            {
              "internalType": "uint256",
              "name": "votedAt",
              "type": "uint256"
            },
            {
              "internalType": "bool",
              "name": "voted",
              "type": "bool"
            }
          ],
          "internalType": "struct DAOGovernance.Vote",
          "name": "",
          "type": "tuple"
        }
      ],
      "stateMutability": "view",
      "type": "function"
    },
    {
      "inputs": [],
      "name": "membership",
      "outputs": [
        {
          "internalType": "contract MembershipNFT",
          "name": "",
          "type": "address"
        }
      ],
      "stateMutability": "view",
      "type": "function"
    },
    {
      "inputs": [],
      "name": "owner",
      "outputs": [
        {
          "internalType": "address",
          "name": "",
          "type": "address"
        }
      ],
      "stateMutability": "view",
      "type": "function"
    },
    {
      "inputs": [],
      "name": "pause",
      "outputs": [],
      "stateMutability": "nonpayable",
      "type": "function"
    },
    {
      "inputs": [],
      "name": "paused",
      "outputs": [
        {
          "internalType": "bool",
          "name": "",
          "type": "bool"
        }
      ],
      "stateMutability": "view",
      "type": "function"
    },
    {
      "inputs": [],
      "name": "proposalCount",
      "outputs": [
        {
          "internalType": "uint256",
          "name": "",
          "type": "uint256"
        }
      ],
      "stateMutability": "view",
      "type": "function"
    },
    {
      "inputs": [
        {
          "internalType": "uint256",
          "name": "proposalId",
          "type": "uint256"
        }
      ],
      "name": "proposalResult",
      "outputs": [
        {
          "internalType": "uint256",
          "name": "approve",
          "type": "uint256"
        },
        {
          "internalType": "uint256",
          "name": "reject",
          "type": "uint256"
        },
        {
          "internalType": "uint256",
          "name": "abstain",
          "type": "uint256"
        },
        {
          "internalType": "uint256",
          "name": "total",
          "type": "uint256"
        },
        {
          "internalType": "enum DAOGovernance.ProposalStatus",
          "name": "status",
          "type": "uint8"
        }
      ],
      "stateMutability": "view",
      "type": "function"
    },
    {
      "inputs": [],
      "name": "proposalThreshold",
      "outputs": [
        {
          "internalType": "uint256",
          "name": "",
          "type": "uint256"
        }
      ],
      "stateMutability": "view",
      "type": "function"
    },
    {
      "inputs": [
        {
          "internalType": "uint256",
          "name": "",
          "type": "uint256"
        },
        {
          "internalType": "address",
          "name": "",
          "type": "address"
        }
      ],
      "name": "proposalVotes",
      "outputs": [
        {
          "internalType": "enum DAOGovernance.VoteType",
          "name": "vote",
          "type": "uint8"
        },
        {
          "internalType": "uint256",
          "name": "votedAt",
          "type": "uint256"
        },
        {
          "internalType": "bool",
          "name": "voted",
          "type": "bool"
        }
      ],
      "stateMutability": "view",
      "type": "function"
    },
    {
      "inputs": [
        {
          "internalType": "uint256",
          "name": "",
          "type": "uint256"
        }
      ],
      "name": "proposals",
      "outputs": [
        {
          "internalType": "uint256",
          "name": "id",
          "type": "uint256"
        },
        {
          "internalType": "address",
          "name": "proposer",
          "type": "address"
        },
        {
          "internalType": "string",
          "name": "title",
          "type": "string"
        },
        {
          "internalType": "string",
          "name": "description",
          "type": "string"
        },
        {
          "internalType": "uint256",
          "name": "createdAt",
          "type": "uint256"
        },
        {
          "internalType": "uint256",
          "name": "startTime",
          "type": "uint256"
        },
        {
          "internalType": "uint256",
          "name": "endTime",
          "type": "uint256"
        },
        {
          "internalType": "uint256",
          "name": "approveVotes",
          "type": "uint256"
        },
        {
          "internalType": "uint256",
          "name": "rejectVotes",
          "type": "uint256"
        },
        {
          "internalType": "uint256",
          "name": "abstainVotes",
          "type": "uint256"
        },
        {
          "internalType": "uint256",
          "name": "totalVotes",
          "type": "uint256"
        },
        {
          "internalType": "enum DAOGovernance.ProposalStatus",
          "name": "status",
          "type": "uint8"
        },
        {
          "internalType": "bool",
          "name": "executed",
          "type": "bool"
        }
      ],
      "stateMutability": "view",
      "type": "function"
    },
    {
      "inputs": [],
      "name": "quorum",
      "outputs": [
        {
          "internalType": "uint256",
          "name": "",
          "type": "uint256"
        }
      ],
      "stateMutability": "view",
      "type": "function"
    },
    {
      "inputs": [],
      "name": "renounceOwnership",
      "outputs": [],
      "stateMutability": "nonpayable",
      "type": "function"
    },
    {
      "inputs": [
        {
          "internalType": "uint256",
          "name": "delay",
          "type": "uint256"
        }
      ],
      "name": "setExecutionDelay",
      "outputs": [],
      "stateMutability": "nonpayable",
      "type": "function"
    },
    {
      "inputs": [
        {
          "internalType": "uint256",
          "name": "newQuorum",
          "type": "uint256"
        }
      ],
      "name": "setQuorum",
      "outputs": [],
      "stateMutability": "nonpayable",
      "type": "function"
    },
    {
      "inputs": [
        {
          "internalType": "address",
          "name": "newTreasury",
          "type": "address"
        }
      ],
      "name": "setTreasuryWallet",
      "outputs": [],
      "stateMutability": "nonpayable",
      "type": "function"
    },
    {
      "inputs": [],
      "name": "totalVotesCast",
      "outputs": [
        {
          "internalType": "uint256",
          "name": "",
          "type": "uint256"
        }
      ],
      "stateMutability": "view",
      "type": "function"
    },
    {
      "inputs": [
        {
          "internalType": "address",
          "name": "newOwner",
          "type": "address"
        }
      ],
      "name": "transferOwnership",
      "outputs": [],
      "stateMutability": "nonpayable",
      "type": "function"
    },
    {
      "inputs": [],
      "name": "treasuryWallet",
      "outputs": [
        {
          "internalType": "address",
          "name": "",
          "type": "address"
        }
      ],
      "stateMutability": "view",
      "type": "function"
    },
    {
      "inputs": [],
      "name": "unpause",
      "outputs": [],
      "stateMutability": "nonpayable",
      "type": "function"
    }
  ],
  "bytecode": "0x60a0604052600a60025560016003556201518060045534801562000021575f80fd5b50604051620021c1380380620021c18339810160408190526200004491620001b2565b33806200006b57604051631e4fbdf760e01b81525f60048201526024015b60405180910390fd5b620000768162000147565b50600180556001600160a01b038216620000d35760405162461bcd60e51b815260206004820152601b60248201527f496e76616c6964206d656d6265727368697020636f6e74726163740000000000604482015260640162000062565b6001600160a01b0381166200011e5760405162461bcd60e51b815260206004820152601060248201526f496e76616c696420747265617375727960801b604482015260640162000062565b6001600160a01b03918216608052600980546001600160a01b03191691909216179055620001e8565b5f80546001600160a01b038381166001600160a01b0319831681178455604051919092169283917f8be0079c531659141344cd1fd0a4f28419497f9722a3daafe3b4186f6b6457e09190a35050565b80516001600160a01b0381168114620001ad575f80fd5b919050565b5f8060408385031215620001c4575f80fd5b620001cf8362000196565b9150620001df6020840162000196565b90509250929050565b608051611fb26200020f5f395f81816103e4015281816106650152610dd60152611fb25ff3fe608060405234801561000f575f80fd5b50600436106101dc575f3560e01c80638da5cb5b11610109578063c1ba4e591161009e578063da35c6641161006e578063da35c66414610491578063e0a8f6f51461049a578063e4917d9f146104ad578063f2fde38b146104c0575f80fd5b8063c1ba4e591461044c578063c7f758a81461045f578063d0058a2f1461047f578063d8a11dc214610488575f80fd5b8063a64e024a116100d9578063a64e024a14610406578063a8602fea14610410578063b58131b014610423578063bc3f931f1461042c575f80fd5b80638da5cb5b1461034e5780638e1f6a2c1461035e578063a0a8e460146103ab578063a2bf68b9146103df575f80fd5b80633f4ba83a1161017f578063715018a61161014f578063715018a61461032c5780637de418d5146103345780638456cb591461033d5780638b25798914610345575f80fd5b80633f4ba83a146102ca5780634626402b146102d257806356781388146102fd5780635c975abb14610310575f80fd5b80630d61b519116101ba5780630d61b519146102725780631022b30b146102855780631703a018146102a9578063215809ca146102c0575f80fd5b8063013cf08b146101e05780630a9f8f80146102155780630ce0ebf41461025d575b5f80fd5b6101f36101ee366004611976565b6104d3565b60405161020c9d9c9b9a999897969594939291906119f8565b60405180910390f35b60055460065460075460085460025460095460408051968752602087019590955293850192909252606084015260808301526001600160a01b031660a082015260c00161020c565b61027061026b366004611ad4565b610650565b005b610270610280366004611976565b610938565b610298610293366004611976565b610b8d565b60405161020c959493929190611b42565b6102b260025481565b60405190815260200161020c565b6102b26201518081565b610270610daf565b6009546102e5906001600160a01b031681565b6040516001600160a01b03909116815260200161020c565b61027061030b366004611b75565b610dc1565b5f54600160a01b900460ff16604051901515815260200161020c565b61027061118d565b6102b260085481565b61027061119e565b6102b260045481565b5f546001600160a01b03166102e5565b61039c61036c366004611bc1565b600b60209081525f928352604080842090915290825290208054600182015460029092015460ff91821692911683565b60405161020c93929190611bfb565b6040805180820182526012815271044414f476f7665726e616e63652076312e360741b6020820152905161020c9190611c1f565b6102e57f000000000000000000000000000000000000000000000000000000000000000081565b6102b262278d0081565b61027061041e366004611c38565b6111ae565b6102b260035481565b61043f61043a366004611bc1565b611248565b60405161020c9190611c51565b61027061045a366004611976565b61130c565b61047261046d366004611976565b611390565b60405161020c9190611c7f565b6102b260075481565b6102b260065481565b6102b260055481565b6102706104a8366004611976565b6115b4565b6102706104bb366004611976565b611721565b6102706104ce366004611c38565b61175e565b600a6020525f908152604090208054600182015460028301805492936001600160a01b039092169261050490611d62565b80601f016020809104026020016040519081016040528092919081815260200182805461053090611d62565b801561057b5780601f106105525761010080835404028352916020019161057b565b820191905f5260205f20905b81548152906001019060200180831161055e57829003601f168201915b50505050509080600301805461059090611d62565b80601f01602080910402602001604051908101604052809291908181526020018280546105bc90611d62565b80156106075780601f106105de57610100808354040283529160200191610607565b820191905f5260205f20905b8154815290600101906020018083116105ea57829003601f168201915b505050600484015460058501546006860154600787015460088801546009890154600a8a0154600b909a0154989995989497509295509093909260ff808216916101009004168d565b604051635f0dda4160e11b81523360048201527f00000000000000000000000000000000000000000000000000000000000000006001600160a01b03169063be1bb48290602401602060405180830381865afa1580156106b2573d5f803e3d5ffd5b505050506040513d601f19601f820116820180604052508101906106d69190611d9a565b6107275760405162461bcd60e51b815260206004820152601a60248201527f416374697665206d656d6265727368697020726571756972656400000000000060448201526064015b60405180910390fd5b61072f61179b565b8361077c5760405162461bcd60e51b815260206004820152601760248201527f50726f706f73616c207469746c65207265717569726564000000000000000000604482015260640161071e565b816107c95760405162461bcd60e51b815260206004820152601d60248201527f50726f706f73616c206465736372697074696f6e207265717569726564000000604482015260640161071e565b6201518081101561081c5760405162461bcd60e51b815260206004820152601760248201527f566f74696e6720706572696f6420746f6f2073686f7274000000000000000000604482015260640161071e565b62278d008111156108685760405162461bcd60e51b8152602060048201526016602482015275566f74696e6720706572696f6420746f6f206c6f6e6760501b604482015260640161071e565b60058054905f61087783611dcd565b90915550506005545f818152600a602052604090209081556001810180546001600160a01b03191633179055600281016108b2868883611e47565b50600381016108c2848683611e47565b504260048201819055600582018190556108dd908390611f03565b6006820155600b8101805460ff1916600117905580546040513391907f7585f467599d0f008985f231af99293be388626ac16ca59505c2f8f88969cd6390610928908a908a90611f16565b60405180910390a3505050505050565b6109406117c5565b61094861179b565b5f8111801561095957506005548111155b6109755760405162461bcd60e51b815260040161071e90611f44565b5f818152600a602052604090206001600b82015460ff16600581111561099d5761099d6119d0565b146109ea5760405162461bcd60e51b815260206004820152601b60248201527f50726f706f73616c2063616e6e6f742062652065786563757465640000000000604482015260640161071e565b60045481600601546109fc9190611f03565b4211610a4a5760405162461bcd60e51b815260206004820152601b60248201527f457865637574696f6e2064656c6179206e6f7420726561636865640000000000604482015260640161071e565b600b810154610100900460ff1615610a975760405162461bcd60e51b815260206004820152601060248201526f105b1c9958591e48195e1958dd5d195960821b604482015260640161071e565b60025481600a01541015610ae25760405162461bcd60e51b8152602060048201526012602482015271145d5bdc9d5b481b9bdd081c995858da195960721b604482015260640161071e565b806008015481600701541115610b0657600b8101805460ff19166002179055610b16565b600b8101805460ff191660031790555b600b8101805461ff00191661010017905560068054905f610b3683611dcd565b9091555060029050600b82015460ff166005811115610b5757610b576119d0565b03610b8957604051339083907f9c85b616f29fca57a17eafe71cf9ff82ffef41766e2cf01ea7f8f7878dd3ec24905f90a35b5050565b5f818152600a6020908152604080832081516101a0810183528154815260018201546001600160a01b031693810193909352600281018054859485948594859485949192840191610bdd90611d62565b80601f0160208091040260200160405190810160405280929190818152602001828054610c0990611d62565b8015610c545780601f10610c2b57610100808354040283529160200191610c54565b820191905f5260205f20905b815481529060010190602001808311610c3757829003601f168201915b50505050508152602001600382018054610c6d90611d62565b80601f0160208091040260200160405190810160405280929190818152602001828054610c9990611d62565b8015610ce45780601f10610cbb57610100808354040283529160200191610ce4565b820191905f5260205f20905b815481529060010190602001808311610cc757829003601f168201915b50505091835250506004820154602082015260058083015460408301526006830154606083015260078301546080830152600883015460a0830152600983015460c0830152600a83015460e0830152600b8301546101009092019160ff1690811115610d5257610d526119d0565b6005811115610d6357610d636119d0565b8152600b919091015460ff6101009182900416151560209092019190915260e08201519082015161012083015161014084015161016090940151929b919a509850919650945092505050565b610db76117c5565b610dbf6117f1565b565b604051635f0dda4160e11b81523360048201527f00000000000000000000000000000000000000000000000000000000000000006001600160a01b03169063be1bb48290602401602060405180830381865afa158015610e23573d5f803e3d5ffd5b505050506040513d601f19601f82011682018060405250810190610e479190611d9a565b610e935760405162461bcd60e51b815260206004820152601a60248201527f416374697665206d656d62657273686970207265717569726564000000000000604482015260640161071e565b610e9b61179b565b5f82118015610eac57506005548211155b610ec85760405162461bcd60e51b815260040161071e90611f44565b5f816003811115610edb57610edb6119d0565b03610f175760405162461bcd60e51b815260206004820152600c60248201526b496e76616c696420766f746560a01b604482015260640161071e565b5f828152600a602052604090206001600b82015460ff166005811115610f3f57610f3f6119d0565b14610f825760405162461bcd60e51b815260206004820152601360248201527250726f706f73616c206e6f742061637469766560681b604482015260640161071e565b8060050154421015610fcb5760405162461bcd60e51b8152602060048201526012602482015271159bdd1a5b99c81b9bdd081cdd185c9d195960721b604482015260640161071e565b806006015442111561100e5760405162461bcd60e51b815260206004820152600c60248201526b159bdd1a5b99c8195b99195960a21b604482015260640161071e565b5f838152600b602090815260408083203384529091529020600281015460ff161561106b5760405162461bcd60e51b815260206004820152600d60248201526c105b1c9958591e481d9bdd1959609a1b604482015260640161071e565b80548390829060ff19166001836003811115611089576110896119d0565b021790555060028101805460ff191660019081179091554290820155600a82018054905f6110b683611dcd565b909155505060088054905f6110ca83611dcd565b90915550600190508360038111156110e4576110e46119d0565b0361110457600782018054905f6110fa83611dcd565b9190505550611145565b6002836003811115611118576111186119d0565b0361112e57600882018054905f6110fa83611dcd565b600982018054905f61113f83611dcd565b91905055505b336001600160a01b0316847feba4866100b822f0f391e610e7edfab790b9e8766c0012733c26b2f1858e8dd78560405161117f9190611f6e565b60405180910390a350505050565b6111956117c5565b610dbf5f611845565b6111a66117c5565b610dbf611894565b6111b66117c5565b6001600160a01b0381166111ff5760405162461bcd60e51b815260206004820152601060248201526f496e76616c696420747265617375727960801b604482015260640161071e565b600980546001600160a01b0319166001600160a01b0383169081179091556040517f7dae230f18360d76a040c81f050aa14eb9d6dc7901b20fc5d855e2a20fe814d1905f90a250565b604080516060810182525f80825260208201819052918101919091525f8311801561127557506005548311155b6112915760405162461bcd60e51b815260040161071e90611f44565b5f838152600b602090815260408083206001600160a01b0386168452909152908190208151606081019092528054829060ff1660038111156112d5576112d56119d0565b60038111156112e6576112e66119d0565b81526001820154602082015260029091015460ff16151560409091015290505b92915050565b6113146117c5565b5f81116113545760405162461bcd60e51b815260206004820152600e60248201526d496e76616c69642071756f72756d60901b604482015260640161071e565b60028190556040518181527ff18f88786aae85a652aadb99a82462616489a33370c9bcc7b245906812ef7cd1906020015b60405180910390a150565b6113986118ff565b5f821180156113a957506005548211155b6113c55760405162461bcd60e51b815260040161071e90611f44565b5f828152600a602090815260409182902082516101a0810184528154815260018201546001600160a01b031692810192909252600281018054929391929184019161140f90611d62565b80601f016020809104026020016040519081016040528092919081815260200182805461143b90611d62565b80156114865780601f1061145d57610100808354040283529160200191611486565b820191905f5260205f20905b81548152906001019060200180831161146957829003601f168201915b5050505050815260200160038201805461149f90611d62565b80601f01602080910402602001604051908101604052809291908181526020018280546114cb90611d62565b80156115165780601f106114ed57610100808354040283529160200191611516565b820191905f5260205f20905b8154815290600101906020018083116114f957829003601f168201915b50505091835250506004820154602082015260058083015460408301526006830154606083015260078301546080830152600883015460a0830152600983015460c0830152600a83015460e0830152600b8301546101009092019160ff1690811115611584576115846119d0565b6005811115611595576115956119d0565b8152600b9190910154610100900460ff16151560209091015292915050565b6115bc6117c5565b6115c461179b565b5f811180156115d557506005548111155b6115f15760405162461bcd60e51b815260040161071e90611f44565b5f818152600a60205260409020600b810154610100900460ff161561164b5760405162461bcd60e51b815260206004820152601060248201526f105b1c9958591e48195e1958dd5d195960821b604482015260640161071e565b6001600b82015460ff166005811115611666576116666119d0565b148061168957505f600b82015460ff166005811115611687576116876119d0565b145b6116ce5760405162461bcd60e51b815260206004820152601660248201527510d85b9b9bdd0818d85b98d95b081c1c9bdc1bdcd85b60521b604482015260640161071e565b600b8101805460ff1916600517905560078054905f6116ec83611dcd565b9091555050604051339083907f74c34a008ce735d9fcf0bd03a9b238d212ad4c441c020661f4ffbb6442645b85905f90a35050565b6117296117c5565b60048190556040518181527f04aa79a5e8a5e68218f378c9b9ecf136054085d35534faf89462199fb969d1c690602001611385565b6117666117c5565b6001600160a01b03811661178f57604051631e4fbdf760e01b81525f600482015260240161071e565b61179881611845565b50565b5f54600160a01b900460ff1615610dbf5760405163d93c066560e01b815260040160405180910390fd5b5f546001600160a01b03163314610dbf5760405163118cdaa760e01b815233600482015260240161071e565b6117f96118d6565b5f805460ff60a01b191690557f5db9ee0a495bf2e6ff9c91a7834c1ba4fdd244a5e8aa4e537bd38aeae4b073aa335b6040516001600160a01b03909116815260200160405180910390a1565b5f80546001600160a01b038381166001600160a01b0319831681178455604051919092169283917f8be0079c531659141344cd1fd0a4f28419497f9722a3daafe3b4186f6b6457e09190a35050565b61189c61179b565b5f805460ff60a01b1916600160a01b1790557f62e78cea01bee320cd4e420270b5ea74000d11b0c9f74754ebdbfc544b05a2586118283390565b5f54600160a01b900460ff16610dbf57604051638dfc202b60e01b815260040160405180910390fd5b604051806101a001604052805f81526020015f6001600160a01b0316815260200160608152602001606081526020015f81526020015f81526020015f81526020015f81526020015f81526020015f81526020015f81526020015f600581111561196a5761196a6119d0565b81525f60209091015290565b5f60208284031215611986575f80fd5b5035919050565b5f81518084525f5b818110156119b157602081850181015186830182015201611995565b505f602082860101526020601f19601f83011685010191505092915050565b634e487b7160e01b5f52602160045260245ffd5b600681106119f4576119f46119d0565b9052565b8d81526001600160a01b038d1660208201526101a0604082018190525f90611a228382018f61198d565b90508281036060840152611a36818e61198d565b9150508a60808301528960a08301528860c08301528760e0830152866101008301528561012083015284610140830152611a746101608301856119e4565b8215156101808301529e9d5050505050505050505050505050565b5f8083601f840112611a9f575f80fd5b50813567ffffffffffffffff811115611ab6575f80fd5b602083019150836020828501011115611acd575f80fd5b9250929050565b5f805f805f60608688031215611ae8575f80fd5b853567ffffffffffffffff80821115611aff575f80fd5b611b0b89838a01611a8f565b90975095506020880135915080821115611b23575f80fd5b50611b3088828901611a8f565b96999598509660400135949350505050565b5f60a082019050868252856020830152846040830152836060830152611b6b60808301846119e4565b9695505050505050565b5f8060408385031215611b86575f80fd5b82359150602083013560048110611b9b575f80fd5b809150509250929050565b80356001600160a01b0381168114611bbc575f80fd5b919050565b5f8060408385031215611bd2575f80fd5b82359150611be260208401611ba6565b90509250929050565b600481106119f4576119f46119d0565b60608101611c098286611beb565b8360208301528215156040830152949350505050565b602081525f611c31602083018461198d565b9392505050565b5f60208284031215611c48575f80fd5b611c3182611ba6565b5f606082019050611c63828451611beb565b6020830151602083015260408301511515604083015292915050565b60208152815160208201525f6020830151611ca560408401826001600160a01b03169052565b5060408301516101a0806060850152611cc26101c085018361198d565b91506060850151601f19858403016080860152611cdf838261198d565b925050608085015160a085015260a085015160c085015260c085015160e085015260e0850151610100818187015280870151915050610120818187015280870151915050610140818187015280870151915050610160818187015280870151915050610180611d50818701836119e4565b90950151151593019290925250919050565b600181811c90821680611d7657607f821691505b602082108103611d9457634e487b7160e01b5f52602260045260245ffd5b50919050565b5f60208284031215611daa575f80fd5b81518015158114611c31575f80fd5b634e487b7160e01b5f52601160045260245ffd5b5f60018201611dde57611dde611db9565b5060010190565b634e487b7160e01b5f52604160045260245ffd5b601f821115611e42575f81815260208120601f850160051c81016020861015611e1f5750805b601f850160051c820191505b81811015611e3e57828155600101611e2b565b5050505b505050565b67ffffffffffffffff831115611e5f57611e5f611de5565b611e7383611e6d8354611d62565b83611df9565b5f601f841160018114611ea4575f8515611e8d5750838201355b5f19600387901b1c1916600186901b178355611efc565b5f83815260209020601f19861690835b82811015611ed45786850135825560209485019460019092019101611eb4565b5086821015611ef0575f1960f88860031b161c19848701351681555b505060018560011b0183555b5050505050565b8082018082111561130657611306611db9565b60208152816020820152818360408301375f818301604090810191909152601f909201601f19160101919050565b60208082526010908201526f125b9d985b1a59081c1c9bdc1bdcd85b60821b604082015260600190565b602081016113068284611beb56fea26469706673582212208ffbb2dedabc45710322d520122c89c1858d60a28c2c27291ad0f0d1119b422c64736f6c63430008140033",
  "linkReferences": {},
  "deployedLinkReferences": {},
  "immutableReferences": {
    "7170": [
      {
        "length": 32,
        "start": 996
      },
      {
        "length": 32,
        "start": 1637
      },
      {
        "length": 32,
        "start": 3542
      }
    ]
  },
  "inputSourceName": "project/contracts/DAOGovernance.sol",
  "buildInfoId": "solc-0_8_20-907be3fe83fae7e70ec82aad16422f220139b162"
}