{
  "_format": "hh3-artifact-1",
  "contractName": "MembershipNFT",
  "sourceName": "contracts/MembershipNFT.sol",
  "abi": [
    {
      "inputs": [
        {
          "internalType": "string",
          "name": "_baseURI",
          "type": "string"
        },
        {
          "internalType": "address",
          "name": "royaltyReceiver",
          "type": "address"
        }
      ],
      "stateMutability": "nonpayable",
      "type": "constructor"
    },
    {
      "inputs": [
        {
          "internalType": "uint256",
          "name": "numerator",
          "type": "uint256"
        },
        {
          "internalType": "uint256",
          "name": "denominator",
          "type": "uint256"
        }
      ],
      "name": "ERC2981InvalidDefaultRoyalty",
      "type": "error"
    },
    {
      "inputs": [
        {
          "internalType": "address",
          "name": "receiver",
          "type": "address"
        }
      ],
      "name": "ERC2981InvalidDefaultRoyaltyReceiver",
      "type": "error"
    },
    {
      "inputs": [
        {
          "internalType": "uint256",
          "name": "tokenId",
          "type": "uint256"
        },
        {
          "internalType": "uint256",
          "name": "numerator",
          "type": "uint256"
        },
        {
          "internalType": "uint256",
          "name": "denominator",
          "type": "uint256"
        }
      ],
      "name": "ERC2981InvalidTokenRoyalty",
      "type": "error"
    },
    {
      "inputs": [
        {
          "internalType": "uint256",
          "name": "tokenId",
          "type": "uint256"
        },
        {
          "internalType": "address",
          "name": "receiver",
          "type": "address"
        }
      ],
      "name": "ERC2981InvalidTokenRoyaltyReceiver",
      "type": "error"
    },
    {
      "inputs": [
        {
          "internalType": "address",
          "name": "sender",
          "type": "address"
        },
        {
          "internalType": "uint256",
          "name": "tokenId",
          "type": "uint256"
        },
        {
          "internalType": "address",
          "name": "owner",
          "type": "address"
        }
      ],
      "name": "ERC721IncorrectOwner",
      "type": "error"
    },
    {
      "inputs": [
        {
          "internalType": "address",
          "name": "operator",
          "type": "address"
        },
        {
          "internalType": "uint256",
          "name": "tokenId",
          "type": "uint256"
        }
      ],
      "name": "ERC721InsufficientApproval",
      "type": "error"
    },
    {
      "inputs": [
        {
          "internalType": "address",
          "name": "approver",
          "type": "address"
        }
      ],
      "name": "ERC721InvalidApprover",
      "type": "error"
    },
    {
      "inputs": [
        {
          "internalType": "address",
          "name": "operator",
          "type": "address"
        }
      ],
      "name": "ERC721InvalidOperator",
      "type": "error"
    },
    {
      "inputs": [
        {
          "internalType": "address",
          "name": "owner",
          "type": "address"
        }
      ],
      "name": "ERC721InvalidOwner",
      "type": "error"
    },
    {
      "inputs": [
        {
          "internalType": "address",
          "name": "receiver",
          "type": "address"
        }
      ],
      "name": "ERC721InvalidReceiver",
      "type": "error"
    },
    {
      "inputs": [
        {
          "internalType": "address",
          "name": "sender",
          "type": "address"
        }
      ],
      "name": "ERC721InvalidSender",
      "type": "error"
    },
    {
      "inputs": [
        {
          "internalType": "uint256",
          "name": "tokenId",
          "type": "uint256"
        }
      ],
      "name": "ERC721NonexistentToken",
      "type": "error"
    },
    {
      "inputs": [],
      "name": "EnforcedPause",
      "type": "error"
    },
    {
      "inputs": [],
      "name": "ExpectedPause",
      "type": "error"
    },
    {
      "inputs": [
        {
          "internalType": "address",
          "name": "owner",
          "type": "address"
        }
      ],
      "name": "OwnableInvalidOwner",
      "type": "error"
    },
    {
      "inputs": [
        {
          "internalType": "address",
          "name": "account",
          "type": "address"
        }
      ],
      "name": "OwnableUnauthorizedAccount",
      "type": "error"
    },
    {
      "inputs": [],
      "name": "ReentrancyGuardReentrantCall",
      "type": "error"
    },
    {
      "anonymous": false,
      "inputs": [
        {
          "indexed": true,
          "internalType": "address",
          "name": "owner",
          "type": "address"
        },
        {
          "indexed": true,
          "internalType": "address",
          "name": "approved",
          "type": "address"
        },
        {
          "indexed": true,
          "internalType": "uint256",
          "name": "tokenId",
          "type": "uint256"
        }
      ],
      "name": "Approval",
      "type": "event"
    },
    {
      "anonymous": false,
      "inputs": [
        {
          "indexed": true,
          "internalType": "address",
          "name": "owner",
          "type": "address"
        },
        {
          "indexed": true,
          "internalType": "address",
          "name": "operator",
          "type": "address"
        },
        {
          "indexed": false,
          "internalType": "bool",
          "name": "approved",
          "type": "bool"
        }
      ],
      "name": "ApprovalForAll",
      "type": "event"
    },
    {
      "anonymous": false,
      "inputs": [
        {
          "indexed": false,
          "internalType": "string",
          "name": "newURI",
          "type": "string"
        }
      ],
      "name": "BaseURIUpdated",
      "type": "event"
    },
    {
      "anonymous": false,
      "inputs": [
        {
          "indexed": false,
          "internalType": "uint256",
          "name": "_fromTokenId",
          "type": "uint256"
        },
        {
          "indexed": false,
          "internalType": "uint256",
          "name": "_toTokenId",
          "type": "uint256"
        }
      ],
      "name": "BatchMetadataUpdate",
      "type": "event"
    },
    {
      "anonymous": false,
      "inputs": [
        {
          "indexed": true,
          "internalType": "uint256",
          "name": "tokenId",
          "type": "uint256"
        }
      ],
      "name": "MembershipLocked",
      "type": "event"
    },
    {
      "anonymous": false,
      "inputs": [
        {
          "indexed": true,
          "internalType": "uint256",
          "name": "tokenId",
          "type": "uint256"
        },
        {
          "indexed": true,
          "internalType": "address",
          "name": "owner",
          "type": "address"
        }
      ],
      "name": "MembershipMinted",
      "type": "event"
    },
    {
      "anonymous": false,
      "inputs": [
        {
          "indexed": true,
          "internalType": "uint256",
          "name": "tokenId",
          "type": "uint256"
        }
      ],
      "name": "MembershipUnlocked",
      "type": "event"
    },
    {
      "anonymous": false,
      "inputs": [
        {
          "indexed": false,
          "internalType": "uint256",
          "name": "_tokenId",
          "type": "uint256"
        }
      ],
      "name": "MetadataUpdate",
      "type": "event"
    },
    {
      "anonymous": false,
      "inputs": [
        {
          "indexed": false,
          "internalType": "uint256",
          "name": "newPrice",
          "type": "uint256"
        }
      ],
      "name": "MintPriceUpdated",
      "type": "event"
    },
    {
      "anonymous": false,
      "inputs": [
        {
          "indexed": true,
          "internalType": "address",
          "name": "previousOwner",
          "type": "address"
        },
        {
          "indexed": true,
          "internalType": "address",
          "name": "newOwner",
          "type": "address"
        }
      ],
      "name": "OwnershipTransferred",
      "type": "event"
    },
    {
      "anonymous": false,
      "inputs": [
        {
          "indexed": false,
          "internalType": "address",
          "name": "account",
          "type": "address"
        }
      ],
      "name": "Paused",
      "type": "event"
    },
    {
      "anonymous": false,
      "inputs": [
        {
          "indexed": true,
          "internalType": "uint256",
          "name": "tokenId",
          "type": "uint256"
        },
        {
          "indexed": true,
          "internalType": "address",
          "name": "member",
          "type": "address"
        }
      ],
      "name": "SharedMemberAdded",
      "type": "event"
    },
    {
      "anonymous": false,
      "inputs": [
        {
          "indexed": true,
          "internalType": "uint256",
          "name": "tokenId",
          "type": "uint256"
        },
        {
          "indexed": true,
          "internalType": "address",
          "name": "member",
          "type": "address"
        }
      ],
      "name": "SharedMemberRemoved",
      "type": "event"
    },
    {
      "anonymous": false,
      "inputs": [
        {
          "indexed": true,
          "internalType": "address",
          "name": "from",
          "type": "address"
        },
        {
          "indexed": true,
          "internalType": "address",
          "name": "to",
          "type": "address"
        },
        {
          "indexed": true,
          "internalType": "uint256",
          "name": "tokenId",
          "type": "uint256"
        }
      ],
      "name": "Transfer",
      "type": "event"
    },
    {
      "anonymous": false,
      "inputs": [
        {
          "indexed": false,
          "internalType": "address",
          "name": "account",
          "type": "address"
        }
      ],
      "name": "Unpaused",
      "type": "event"
    },
    {
      "inputs": [],
      "name": "MAX_SHARED_MEMBERS",
      "outputs": [
        {
          "internalType": "uint8",
          "name": "",
          "type": "uint8"
        }
      ],
      "stateMutability": "view",
      "type": "function"
    },
    {
      "inputs": [],
      "name": "MAX_SUPPLY",
      "outputs": [
        {
          "internalType": "uint256",
          "name": "",
          "type": "uint256"
        }
      ],
      "stateMutability": "view",
      "type": "function"
    },
    {
      "inputs": [
        {
          "internalType": "uint256",
          "name": "tokenId",
          "type": "uint256"
        }
      ],
      "name": "activateMembership",
      "outputs": [],
      "stateMutability": "nonpayable",
      "type": "function"
    },
    {
      "inputs": [
        {
          "internalType": "uint256",
          "name": "tokenId",
          "type": "uint256"
        },
        {
          "internalType": "address",
          "name": "member",
          "type": "address"
        }
      ],
      "name": "addSharedMember",
      "outputs": [],
      "stateMutability": "nonpayable",
      "type": "function"
    },
    {
      "inputs": [
        {
          "internalType": "address",
          "name": "to",
          "type": "address"
        },
        {
          "internalType": "uint256",
          "name": "tokenId",
          "type": "uint256"
        }
      ],
      "name": "approve",
      "outputs": [],
      "stateMutability": "nonpayable",
      "type": "function"
    },
    {
      "inputs": [
        {
          "internalType": "address",
          "name": "owner",
          "type": "address"
        }
      ],
      "name": "balanceOf",
      "outputs": [
        {
          "internalType": "uint256",
          "name": "",
          "type": "uint256"
        }
      ],
      "stateMutability": "view",
      "type": "function"
    },
    {
      "inputs": [],
      "name": "baseMetadataURI",
      "outputs": [
        {
          "internalType": "string",
          "name": "",
          "type": "string"
        }
      ],
      "stateMutability": "view",
      "type": "function"
    },
    {
      "inputs": [],
      "name": "contractBalance",
      "outputs": [
        {
          "internalType": "uint256",
          "name": "",
          "type": "uint256"
        }
      ],
      "stateMutability": "view",
      "type": "function"
    },
    {
      "inputs": [],
      "name": "contractVersion",
      "outputs": [
        {
          "internalType": "string",
          "name": "",
          "type": "string"
        }
      ],
      "stateMutability": "pure",
      "type": "function"
    },
    {
      "inputs": [],
      "name": "dashboardSummary",
      "outputs": [
        {
          "internalType": "uint256",
          "name": "maxSupply",
          "type": "uint256"
        },
        {
          "internalType": "uint256",
          "name": "minted",
          "type": "uint256"
        },
        {
          "internalType": "uint256",
          "name": "remaining",
          "type": "uint256"
        },
        {
          "internalType": "uint256",
          "name": "mintFee",
          "type": "uint256"
        }
      ],
      "stateMutability": "view",
      "type": "function"
    },
    {
      "inputs": [
        {
          "internalType": "uint256",
          "name": "tokenId",
          "type": "uint256"
        }
      ],
      "name": "getApproved",
      "outputs": [
        {
          "internalType": "address",
          "name": "",
          "type": "address"
        }
      ],
      "stateMutability": "view",
      "type": "function"
    },
    {
      "inputs": [
        {
          "internalType": "uint256",
          "name": "tokenId",
          "type": "uint256"
        }
      ],
      "name": "getMembershipInfo",
      "outputs": [
        {
          "internalType": "address",
          "name": "owner",
          "type": "address"
        },
        {
          "internalType": "enum MembershipNFT.MembershipStatus",
          "name": "status",
          "type": "uint8"
        },
        {
          "internalType": "uint256",
          "name": "mintedAt",
          "type": "uint256"
        },
        {
          "internalType": "uint256",
          "name": "sharedCount",
          "type": "uint256"
        },
        {
          "internalType": "string",
          "name": "uri",
          "type": "string"
        }
      ],
      "stateMutability": "view",
      "type": "function"
    },
    {
      "inputs": [
        {
          "internalType": "uint256",
          "name": "tokenId",
          "type": "uint256"
        }
      ],
      "name": "getMembershipStatus",
      "outputs": [
        {
          "internalType": "enum MembershipNFT.MembershipStatus",
          "name": "",
          "type": "uint8"
        }
      ],
      "stateMutability": "view",
      "type": "function"
    },
    {
      "inputs": [
        {
          "internalType": "uint256",
          "name": "tokenId",
          "type": "uint256"
        },
        {
          "internalType": "uint256",
          "name": "index",
          "type": "uint256"
        }
      ],
      "name": "getSharedMember",
      "outputs": [
        {
          "components": [
            {
              "internalType": "address",
              "name": "wallet",
              "type": "address"
            },
            {
              "internalType": "uint256",
              "name": "addedAt",
              "type": "uint256"
            },
            {
              "internalType": "bool",
              "name": "active",
              "type": "bool"
            }
          ],
          "internalType": "struct MembershipNFT.SharedMember",
          "name": "",
          "type": "tuple"
        }
      ],
      "stateMutability": "view",
      "type": "function"
    },
    {
      "inputs": [
        {
          "internalType": "uint256",
          "name": "tokenId",
          "type": "uint256"
        }
      ],
      "name": "getSharedMembers",
      "outputs": [
        {
          "components": [
            {
              "internalType": "address",
              "name": "wallet",
              "type": "address"
            },
            {
              "internalType": "uint256",
              "name": "addedAt",
              "type": "uint256"
            },
            {
              "internalType": "bool",
              "name": "active",
              "type": "bool"
            }
          ],
          "internalType": "struct MembershipNFT.SharedMember[]",
          "name": "",
          "type": "tuple[]"
        }
      ],
      "stateMutability": "view",
      "type": "function"
    },
    {
      "inputs": [
        {
          "internalType": "address",
          "name": "user",
          "type": "address"
        }
      ],
      "name": "hasMembership",
      "outputs": [
        {
          "internalType": "bool",
          "name": "",
          "type": "bool"
        }
      ],
      "stateMutability": "view",
      "type": "function"
    },
    {
      "inputs": [
        {
          "internalType": "address",
          "name": "owner",
          "type": "address"
        },
        {
          "internalType": "address",
          "name": "operator",
          "type": "address"
        }
      ],
      "name": "isApprovedForAll",
      "outputs": [
        {
          "internalType": "bool",
          "name": "",
          "type": "bool"
        }
      ],
      "stateMutability": "view",
      "type": "function"
    },
    {
      "inputs": [
        {
          "internalType": "address",
          "name": "user",
          "type": "address"
        }
      ],
      "name": "isPrimary",
      "outputs": [
        {
          "internalType": "bool",
          "name": "",
          "type": "bool"
        }
      ],
      "stateMutability": "view",
      "type": "function"
    },
    {
      "inputs": [
        {
          "internalType": "address",
          "name": "user",
          "type": "address"
        }
      ],
      "name": "isSecondary",
      "outputs": [
        {
          "internalType": "bool",
          "name": "",
          "type": "bool"
        }
      ],
      "stateMutability": "view",
      "type": "function"
    },
    {
      "inputs": [
        {
          "internalType": "uint256",
          "name": "tokenId",
          "type": "uint256"
        }
      ],
      "name": "lockMembership",
      "outputs": [],
      "stateMutability": "nonpayable",
      "type": "function"
    },
    {
      "inputs": [
        {
          "internalType": "address",
          "name": "",
          "type": "address"
        }
      ],
      "name": "memberOfToken",
      "outputs": [
        {
          "internalType": "uint256",
          "name": "",
          "type": "uint256"
        }
      ],
      "stateMutability": "view",
      "type": "function"
    },
    {
      "inputs": [
        {
          "internalType": "uint256",
          "name": "",
          "type": "uint256"
        }
      ],
      "name": "membershipData",
      "outputs": [
        {
          "internalType": "bool",
          "name": "minted",
          "type": "bool"
        },
        {
          "internalType": "enum MembershipNFT.MembershipStatus",
          "name": "status",
          "type": "uint8"
        },
        {
          "internalType": "uint256",
          "name": "mintedAt",
          "type": "uint256"
        }
      ],
      "stateMutability": "view",
      "type": "function"
    },
    {
      "inputs": [
        {
          "internalType": "address",
          "name": "wallet",
          "type": "address"
        }
      ],
      "name": "membershipType",
      "outputs": [
        {
          "internalType": "string",
          "name": "",
          "type": "string"
        }
      ],
      "stateMutability": "view",
      "type": "function"
    },
    {
      "inputs": [],
      "name": "mintPrice",
      "outputs": [
        {
          "internalType": "uint256",
          "name": "",
          "type": "uint256"
        }
      ],
      "stateMutability": "view",
      "type": "function"
    },
    {
      "inputs": [],
      "name": "name",
      "outputs": [
        {
          "internalType": "string",
          "name": "",
          "type": "string"
        }
      ],
      "stateMutability": "view",
      "type": "function"
    },
    {
      "inputs": [],
      "name": "owner",
      "outputs": [
        {
          "internalType": "address",
          "name": "",
          "type": "address"
        }
      ],
      "stateMutability": "view",
      "type": "function"
    },
    {
      "inputs": [
        {
          "internalType": "address",
          "name": "to",
          "type": "address"
        },
        {
          "internalType": "uint256",
          "name": "tokenId",
          "type": "uint256"
        }
      ],
      "name": "ownerMint",
      "outputs": [],
      "stateMutability": "nonpayable",
      "type": "function"
    },
    {
      "inputs": [
        {
          "internalType": "uint256",
          "name": "tokenId",
          "type": "uint256"
        }
      ],
      "name": "ownerOf",
      "outputs": [
        {
          "internalType": "address",
          "name": "",
          "type": "address"
        }
      ],
      "stateMutability": "view",
      "type": "function"
    },
    {
      "inputs": [],
      "name": "pause",
      "outputs": [],
      "stateMutability": "nonpayable",
      "type": "function"
    },
    {
      "inputs": [],
      "name": "paused",
      "outputs": [
        {
          "internalType": "bool",
          "name": "",
          "type": "bool"
        }
      ],
      "stateMutability": "view",
      "type": "function"
    },
    {
      "inputs": [
        {
          "internalType": "uint256",
          "name": "tokenId",
          "type": "uint256"
        }
      ],
      "name": "publicMint",
      "outputs": [],
      "stateMutability": "payable",
      "type": "function"
    },
    {
      "inputs": [],
      "name": "remainingSupply",
      "outputs": [
        {
          "internalType": "uint256",
          "name": "",
          "type": "uint256"
        }
      ],
      "stateMutability": "view",
      "type": "function"
    },
    {
      "inputs": [],
      "name": "removeRoyalty",
      "outputs": [],
      "stateMutability": "nonpayable",
      "type": "function"
    },
    {
      "inputs": [
        {
          "internalType": "uint256",
          "name": "tokenId",
          "type": "uint256"
        },
        {
          "internalType": "address",
          "name": "member",
          "type": "address"
        }
      ],
      "name": "removeSharedMember",
      "outputs": [],
      "stateMutability": "nonpayable",
      "type": "function"
    },
    {
      "inputs": [],
      "name": "renounceOwnership",
      "outputs": [],
      "stateMutability": "nonpayable",
      "type": "function"
    },
    {
      "inputs": [
        {
          "internalType": "uint256",
          "name": "tokenId",
          "type": "uint256"
        },
        {
          "internalType": "uint256",
          "name": "salePrice",
          "type": "uint256"
        }
      ],
      "name": "royaltyInfo",
      "outputs": [
        {
          "internalType": "address",
          "name": "receiver",
          "type": "address"
        },
        {
          "internalType": "uint256",
          "name": "amount",
          "type": "uint256"
        }
      ],
      "stateMutability": "view",
      "type": "function"
    },
    {
      "inputs": [
        {
          "internalType": "uint256",
          "name": "salePrice",
          "type": "uint256"
        }
      ],
      "name": "royaltyInformation",
      "outputs": [
        {
          "internalType": "address",
          "name": "",
          "type": "address"
        },
        {
          "internalType": "uint256",
          "name": "",
          "type": "uint256"
        }
      ],
      "stateMutability": "view",
      "type": "function"
    },
    {
      "inputs": [
        {
          "internalType": "address",
          "name": "from",
          "type": "address"
        },
        {
          "internalType": "address",
          "name": "to",
          "type": "address"
        },
        {
          "internalType": "uint256",
          "name": "tokenId",
          "type": "uint256"
        }
      ],
      "name": "safeTransferFrom",
      "outputs": [],
      "stateMutability": "nonpayable",
      "type": "function"
    },
    {
      "inputs": [
        {
          "internalType": "address",
          "name": "from",
          "type": "address"
        },
        {
          "internalType": "address",
          "name": "to",
          "type": "address"
        },
        {
          "internalType": "uint256",
          "name": "tokenId",
          "type": "uint256"
        },
        {
          "internalType": "bytes",
          "name": "data",
          "type": "bytes"
        }
      ],
      "name": "safeTransferFrom",
      "outputs": [],
      "stateMutability": "nonpayable",
      "type": "function"
    },
    {
      "inputs": [
        {
          "internalType": "address",
          "name": "operator",
          "type": "address"
        },
        {
          "internalType": "bool",
          "name": "approved",
          "type": "bool"
        }
      ],
      "name": "setApprovalForAll",
      "outputs": [],
      "stateMutability": "nonpayable",
      "type": "function"
    },
    {
      "inputs": [
        {
          "internalType": "string",
          "name": "newBaseURI",
          "type": "string"
        }
      ],
      "name": "setBaseURI",
      "outputs": [],
      "stateMutability": "nonpayable",
      "type": "function"
    },
    {
      "inputs": [
        {
          "internalType": "uint256",
          "name": "newPrice",
          "type": "uint256"
        }
      ],
      "name": "setMintPrice",
      "outputs": [],
      "stateMutability": "nonpayable",
      "type": "function"
    },
    {
      "inputs": [
        {
          "internalType": "address",
          "name": "receiver",
          "type": "address"
        },
        {
          "internalType": "uint96",
          "name": "feeNumerator",
          "type": "uint96"
        }
      ],
      "name": "setRoyalty",
      "outputs": [],
      "stateMutability": "nonpayable",
      "type": "function"
    },
    {
      "inputs": [
        {
          "internalType": "bytes4",
          "name": "interfaceId",
          "type": "bytes4"
        }
      ],
      "name": "supportsInterface",
      "outputs": [
        {
          "internalType": "bool",
          "name": "",
          "type": "bool"
        }
      ],
      "stateMutability": "view",
      "type": "function"
    },
    {
      "inputs": [
        {
          "internalType": "uint256",
          "name": "tokenId",
          "type": "uint256"
        }
      ],
      "name": "suspendMembership",
      "outputs": [],
      "stateMutability": "nonpayable",
      "type": "function"
    },
    {
      "inputs": [],
      "name": "symbol",
      "outputs": [
        {
          "internalType": "string",
          "name": "",
          "type": "string"
        }
      ],
      "stateMutability": "view",
      "type": "function"
    },
    {
      "inputs": [
        {
          "internalType": "uint256",
          "name": "tokenId",
          "type": "uint256"
        }
      ],
      "name": "tokenExists",
      "outputs": [
        {
          "internalType": "bool",
          "name": "",
          "type": "bool"
        }
      ],
      "stateMutability": "view",
      "type": "function"
    },
    {
      "inputs": [
        {
          "internalType": "uint256",
          "name": "tokenId",
          "type": "uint256"
        }
      ],
      "name": "tokenURI",
      "outputs": [
        {
          "internalType": "string",
          "name": "",
          "type": "string"
        }
      ],
      "stateMutability": "view",
      "type": "function"
    },
    {
      "inputs": [],
      "name": "totalMinted",
      "outputs": [
        {
          "internalType": "uint256",
          "name": "",
          "type": "uint256"
        }
      ],
      "stateMutability": "view",
      "type": "function"
    },
    {
      "inputs": [
        {
          "internalType": "uint256",
          "name": "tokenId",
          "type": "uint256"
        }
      ],
      "name": "totalSharedMembers",
      "outputs": [
        {
          "internalType": "uint256",
          "name": "",
          "type": "uint256"
        }
      ],
      "stateMutability": "view",
      "type": "function"
    },
    {
      "inputs": [
        {
          "internalType": "address",
          "name": "from",
          "type": "address"
        },
        {
          "internalType": "address",
          "name": "to",
          "type": "address"
        },
        {
          "internalType": "uint256",
          "name": "tokenId",
          "type": "uint256"
        }
      ],
      "name": "transferFrom",
      "outputs": [],
      "stateMutability": "nonpayable",
      "type": "function"
    },
    {
      "inputs": [
        {
          "internalType": "address",
          "name": "newOwner",
          "type": "address"
        }
      ],
      "name": "transferOwnership",
      "outputs": [],
      "stateMutability": "nonpayable",
      "type": "function"
    },
    {
      "inputs": [
        {
          "internalType": "uint256",
          "name": "tokenId",
          "type": "uint256"
        }
      ],
      "name": "unlockMembership",
      "outputs": [],
      "stateMutability": "nonpayable",
      "type": "function"
    },
    {
      "inputs": [],
      "name": "unpause",
      "outputs": [],
      "stateMutability": "nonpayable",
      "type": "function"
    },
    {
      "inputs": [
        {
          "internalType": "uint256",
          "name": "tokenId",
          "type": "uint256"
        },
        {
          "internalType": "string",
          "name": "newURI",
          "type": "string"
        }
      ],
      "name": "updateTokenURI",
      "outputs": [],
      "stateMutability": "nonpayable",
      "type": "function"
    },
    {
      "inputs": [],
      "name": "withdraw",
      "outputs": [],
      "stateMutability": "nonpayable",
      "type": "function"
    }
  ],
  "bytecode": "0x608060405267120a871cc0020000600b553480156200001c575f80fd5b50604051620037f0380380620037f08339810160408190526200003f9162000240565b336040518060400160405280601681526020017f536f6369616c4564676572204d656d62657273686970000000000000000000008152506040518060400160405280600381526020016253454d60e81b815250815f9081620000a29190620003ad565b506001620000b18282620003ad565b5050506001600160a01b038116620000e357604051631e4fbdf760e01b81525f60048201526024015b60405180910390fd5b620000ee8162000119565b506001600a55600d620001028382620003ad565b5062000111816103e86200016a565b505062000475565b600980546001600160a01b038381166001600160a01b0319831681179093556040519116919082907f8be0079c531659141344cd1fd0a4f28419497f9722a3daafe3b4186f6b6457e0905f90a35050565b6127106001600160601b038216811015620001ab57604051636f483d0960e01b81526001600160601b038316600482015260248101829052604401620000da565b6001600160a01b038316620001d657604051635b6cc80560e11b81525f6004820152602401620000da565b50604080518082019091526001600160a01b039092168083526001600160601b039091166020909201829052600160a01b90910217600755565b634e487b7160e01b5f52604160045260245ffd5b80516001600160a01b03811681146200023b575f80fd5b919050565b5f806040838503121562000252575f80fd5b82516001600160401b038082111562000269575f80fd5b818501915085601f8301126200027d575f80fd5b81518181111562000292576200029262000210565b604051601f8201601f19908116603f01168101908382118183101715620002bd57620002bd62000210565b81604052828152602093508884848701011115620002d9575f80fd5b5f91505b82821015620002fc5784820184015181830185015290830190620002dd565b5f8484830101528096505050506200031681860162000224565b925050509250929050565b600181811c908216806200033657607f821691505b6020821081036200035557634e487b7160e01b5f52602260045260245ffd5b50919050565b601f821115620003a8575f81815260208120601f850160051c81016020861015620003835750805b601f850160051c820191505b81811015620003a4578281556001016200038f565b5050505b505050565b81516001600160401b03811115620003c957620003c962000210565b620003e181620003da845462000321565b846200035b565b602080601f83116001811462000417575f8415620003ff5750858301515b5f19600386901b1c1916600185901b178555620003a4565b5f85815260208120601f198616915b82811015620004475788860151825594840194600190910190840162000426565b50858210156200046557878501515f19600388901b60f8161c191681555b5050505050600190811b01905550565b61336d80620004835f395ff3fe60806040526004361061035a575f3560e01c80636817c76c116101bd5780639fbb7e0e116100f2578063bd4f930511610092578063e985e9c51161006d578063e985e9c514610a45578063f2fde38b14610a64578063f4a0a52814610a83578063ff4af37d14610aa2575f80fd5b8063bd4f9305146109de578063c87b56dd14610a12578063da0239a614610a31575f80fd5b8063a2309ff8116100cd578063a2309ff81461096c578063a88db6ad14610981578063b854c9c9146109a0578063b88d4fde146109bf575f80fd5b80639fbb7e0e146108ed578063a0a8e46014610913578063a22cb4651461094d575f80fd5b80638b7afe2e1161015d5780638da5cb5b116101385780638da5cb5b1461087e5780638f2fc60b1461089b5780638f50e05e146108ba57806395d89b41146108d9575f80fd5b80638b7afe2e146108395780638be02eb01461084b5780638c9b02d91461085f575f80fd5b8063715018a611610198578063715018a61461078d5780637f6f4045146107a15780638456cb59146107ef578063849deb3114610803575f80fd5b80636817c76c1461073a5780636d0476c01461074f57806370a082311461076e575f80fd5b80633ccfd60b11610293578063529d203c116102335780635c975abb1161020e5780635c975abb146106b25780635ff73c16146106d05780636136d316146106ef5780636352211e1461071b575f80fd5b8063529d203c1461066057806355f804b31461067f5780635b2bd79e1461069e575f80fd5b806342842e0e1161026e57806342842e0e146105d85780634793f535146105f7578063484b973c146106165780635247dc0114610635575f80fd5b80633ccfd60b146105855780633f4ba83a1461059957806341292540146105ad575f80fd5b806323b872dd116102fe57806332cb6b0c116102d957806332cb6b0c146104f457806332ea236314610517578063363fe9fa146105365780633a7592f014610555575f80fd5b806323b872dd146104845780632a55205a146104a35780632db11544146104e1575f80fd5b806306fdde031161033957806306fdde03146103ec578063081812fc1461040d578063095ea7b31461044457806318e97fd114610465575f80fd5b8062923f9e1461035e57806301ffc9a7146103a157806304c32a45146103c0575b5f80fd5b348015610369575f80fd5b5061038c610378366004612b1a565b5f908152600e602052604090205460ff1690565b60405190151581526020015b60405180910390f35b3480156103ac575f80fd5b5061038c6103bb366004612b46565b610ace565b3480156103cb575f80fd5b506103df6103da366004612b1a565b610ade565b6040516103989190612b61565b3480156103f7575f80fd5b50610400610b74565b6040516103989190612c1a565b348015610418575f80fd5b5061042c610427366004612b1a565b610c03565b6040516001600160a01b039091168152602001610398565b34801561044f575f80fd5b5061046361045e366004612c47565b610c2a565b005b348015610470575f80fd5b5061046361047f366004612d14565b610c39565b34801561048f575f80fd5b5061046361049e366004612d58565b610cc2565b3480156104ae575f80fd5b506104c26104bd366004612d91565b610d4b565b604080516001600160a01b039093168352602083019190915201610398565b6104636104ef366004612b1a565b610dce565b3480156104ff575f80fd5b50610509614e2081565b604051908152602001610398565b348015610522575f80fd5b50610463610531366004612b1a565b610e3e565b348015610541575f80fd5b50610463610550366004612b1a565b610e97565b348015610560575f80fd5b5061057461056f366004612b1a565b610f7a565b604051610398959493929190612de5565b348015610590575f80fd5b50610463611055565b3480156105a4575f80fd5b50610463611159565b3480156105b8575f80fd5b506105096105c7366004612e2a565b60106020525f908152604090205481565b3480156105e3575f80fd5b506104636105f2366004612d58565b611169565b348015610602575f80fd5b50610463610611366004612b1a565b611188565b348015610621575f80fd5b50610463610630366004612c47565b61126e565b348015610640575f80fd5b5061050961064f366004612b1a565b5f908152600f602052604090205490565b34801561066b575f80fd5b5061046361067a366004612e43565b611288565b34801561068a575f80fd5b50610463610699366004612e6d565b6114e1565b3480156106a9575f80fd5b5061040061156e565b3480156106bd575f80fd5b50600954600160a01b900460ff1661038c565b3480156106db575f80fd5b506104c26106ea366004612b1a565b6115fa565b3480156106fa575f80fd5b5061070e610709366004612d91565b61160f565b6040516103989190612e9f565b348015610726575f80fd5b5061042c610735366004612b1a565b6116e5565b348015610745575f80fd5b50610509600b5481565b34801561075a575f80fd5b50610463610769366004612e43565b6116ef565b348015610779575f80fd5b50610509610788366004612e2a565b611a06565b348015610798575f80fd5b50610463611a4b565b3480156107ac575f80fd5b506107e06107bb366004612b1a565b600e6020525f90815260409020805460019091015460ff808316926101009004169083565b60405161039893929190612ecb565b3480156107fa575f80fd5b50610463611a5c565b34801561080e575f80fd5b5061038c61081d366004612e2a565b6001600160a01b03165f90815260106020526040902054151590565b348015610844575f80fd5b5047610509565b348015610856575f80fd5b50610463611a6c565b34801561086a575f80fd5b50610463610879366004612b1a565b611a7d565b348015610889575f80fd5b506009546001600160a01b031661042c565b3480156108a6575f80fd5b506104636108b5366004612eef565b611ad6565b3480156108c5575f80fd5b506104006108d4366004612e2a565b611ae8565b3480156108e4575f80fd5b50610400611b7d565b3480156108f8575f80fd5b50610901600281565b60405160ff9091168152602001610398565b34801561091e575f80fd5b5060408051808201909152601281527104d656d626572736869704e46542076322e360741b6020820152610400565b348015610958575f80fd5b50610463610967366004612f2f565b611b8c565b348015610977575f80fd5b50610509600c5481565b34801561098c575f80fd5b5061038c61099b366004612e2a565b611b97565b3480156109ab575f80fd5b5061038c6109ba366004612e2a565b611bc6565b3480156109ca575f80fd5b506104636109d9366004612f5d565b611bd8565b3480156109e9575f80fd5b506109f2611bf0565b604080519485526020850193909352918301526060820152608001610398565b348015610a1d575f80fd5b50610400610a2c366004612b1a565b611c13565b348015610a3c575f80fd5b50610509611d1e565b348015610a50575f80fd5b5061038c610a5f366004612fd4565b611d34565b348015610a6f575f80fd5b50610463610a7e366004612e2a565b611d61565b348015610a8e575f80fd5b50610463610a9d366004612b1a565b611d9b565b348015610aad575f80fd5b50610ac1610abc366004612b1a565b611e1c565b6040516103989190612ffc565b5f610ad882611e67565b92915050565b6060600f5f8381526020019081526020015f20805480602002602001604051908101604052809291908181526020015f905b82821015610b69575f848152602090819020604080516060810182526003860290920180546001600160a01b031683526001808201548486015260029091015460ff161515918301919091529083529092019101610b10565b505050509050919050565b60605f8054610b829061300a565b80601f0160208091040260200160405190810160405280929190818152602001828054610bae9061300a565b8015610bf95780601f10610bd057610100808354040283529160200191610bf9565b820191905f5260205f20905b815481529060010190602001808311610bdc57829003601f168201915b5050505050905090565b5f610c0d82611e8b565b505f828152600460205260409020546001600160a01b0316610ad8565b610c35828233611ec2565b5050565b610c41611ecf565b5f610c4b83611efc565b6001600160a01b031603610c7a5760405162461bcd60e51b8152600401610c7190613042565b60405180910390fd5b5f815111610cb85760405162461bcd60e51b815260206004820152600b60248201526a496e76616c69642055524960a81b6044820152606401610c71565b610c358282611f16565b6001600160a01b038216610ceb57604051633250574960e11b81525f6004820152602401610c71565b5f610cf7838333611f65565b9050836001600160a01b0316816001600160a01b031614610d45576040516364283d7b60e01b81526001600160a01b0380861660048301526024820184905282166044820152606401610c71565b50505050565b5f82815260086020526040812080548291906001600160a01b03811690600160a01b90046001600160601b031681610d9e5750506007546001600160a01b03811690600160a01b90046001600160601b03165b5f612710610db56001600160601b03841689613082565b610dbf9190613099565b92989297509195505050505050565b610dd6612014565b610dde61203f565b600b54341015610e275760405162461bcd60e51b8152602060048201526014602482015273125b9cdd59999a58da595b9d081c185e5b595b9d60621b6044820152606401610c71565b610e313382612069565b610e3b6001600a55565b50565b610e46611ecf565b5f610e5082611efc565b6001600160a01b031603610e765760405162461bcd60e51b8152600401610c7190613042565b5f818152600e60205260408120805461ff001916610100835b021790555050565b610e9f611ecf565b5f610ea982611efc565b6001600160a01b031603610ecf5760405162461bcd60e51b8152600401610c7190613042565b60015f828152600e6020526040902054610100900460ff166002811115610ef857610ef8612db1565b03610f365760405162461bcd60e51b815260206004820152600e60248201526d105b1c9958591e481b1bd8dad95960921b6044820152606401610c71565b5f818152600e6020526040808220805461ff0019166101001790555182917f69b78b14f5b5a20c4630f096b951ff689ff7d6ad3c5e527de17b0973bad3ac3591a250565b5f808080606081610f8a87611efc565b6001600160a01b031603610fb05760405162461bcd60e51b8152600401610c7190613042565b5f868152600e60209081526040808320815160608101909252805460ff808216151584529293919291840191610100909104166002811115610ff457610ff4612db1565b600281111561100557611005612db1565b8152602001600182015481525050905061101e876116e5565b6020808301516040808501515f8c8152600f9094529220549091906110428b611c13565b939b929a50909850965090945092505050565b61105d611ecf565b61106561203f565b47806110a95760405162461bcd60e51b81526020600482015260136024820152724e6f7468696e6720746f20776974686472617760681b6044820152606401610c71565b5f6110bc6009546001600160a01b031690565b6001600160a01b0316826040515f6040518083038185875af1925050503d805f8114611103576040519150601f19603f3d011682016040523d82523d5f602084013e611108565b606091505b505090508061114b5760405162461bcd60e51b815260206004820152600f60248201526e15da5d1a191c985dc819985a5b1959608a1b6044820152606401610c71565b50506111576001600a55565b565b611161611ecf565b61115761220d565b61118383838360405180602001604052805f815250611bd8565b505050565b611190611ecf565b5f61119a82611efc565b6001600160a01b0316036111c05760405162461bcd60e51b8152600401610c7190613042565b60015f828152600e6020526040902054610100900460ff1660028111156111e9576111e9612db1565b1461122e5760405162461bcd60e51b815260206004820152601560248201527413595b58995c9cda1a5c081b9bdd081b1bd8dad959605a1b6044820152606401610c71565b5f818152600e6020526040808220805461ff00191690555182917fa0ac8191b09eb04057c76e746eed71adccffb7ee98a3938ea3ba31991e7db0dd91a250565b611276611ecf565b61127e612014565b610c358282612069565b611290612014565b3361129a836116e5565b6001600160a01b031614806112c85750336112bd6009546001600160a01b031690565b6001600160a01b0316145b6113055760405162461bcd60e51b815260206004820152600e60248201526d139bdd08185d5d1a1bdc9a5e995960921b6044820152606401610c71565b5f828152600f6020526040812090805b825481101561144c57836001600160a01b031683828154811061133a5761133a6130b8565b5f9182526020909120600390910201546001600160a01b03160361143a5782548390611368906001906130cc565b81548110611378576113786130b8565b905f5260205f209060030201838281548110611396576113966130b8565b5f9182526020909120825460039092020180546001600160a01b0319166001600160a01b03909216919091178155600180830154908201556002918201549101805460ff909216151560ff1990921691909117905582548390806113fc576113fc6130df565b5f8281526020812060035f199093019283020180546001600160a01b0319168155600181810192909255600201805460ff191690559155915061144c565b80611444816130f3565b915050611315565b508061149a5760405162461bcd60e51b815260206004820152601760248201527f536861726564206d656d626572206e6f7420666f756e640000000000000000006044820152606401610c71565b6001600160a01b0383165f818152601060205260408082208290555186917f7821babab0ee84c55d02a9c2575d26e8a010fe3c0b7d0599d23c41bd3f15885991a350505050565b6114e9611ecf565b5f8151116115275760405162461bcd60e51b815260206004820152600b60248201526a496e76616c69642055524960a81b6044820152606401610c71565b600d6115338282613150565b507f6741b2fc379fad678116fe3d4d4b9a1a184ab53ba36b86ad0fa66340b1ab41ad816040516115639190612c1a565b60405180910390a150565b600d805461157b9061300a565b80601f01602080910402602001604051908101604052809291908181526020018280546115a79061300a565b80156115f25780601f106115c9576101008083540402835291602001916115f2565b820191905f5260205f20905b8154815290600101906020018083116115d557829003601f168201915b505050505081565b5f806116065f84610d4b565b91509150915091565b604080516060810182525f80825260208201819052918101919091525f838152600f602052604090205482106116775760405162461bcd60e51b815260206004820152600d60248201526c092dcecc2d8d2c840d2dcc8caf609b1b6044820152606401610c71565b5f838152600f60205260409020805483908110611696576116966130b8565b5f91825260209182902060408051606081018252600390930290910180546001600160a01b0316835260018101549383019390935260029092015460ff16151591810191909152905092915050565b5f610ad882611e8b565b6116f7612014565b33611701836116e5565b6001600160a01b0316148061172f5750336117246009546001600160a01b031690565b6001600160a01b0316145b61176c5760405162461bcd60e51b815260206004820152600e60248201526d139bdd08185d5d1a1bdc9a5e995960921b6044820152606401610c71565b6001600160a01b0381166117b45760405162461bcd60e51b815260206004820152600f60248201526e496e76616c6964206164647265737360881b6044820152606401610c71565b6117bd826116e5565b6001600160a01b0316816001600160a01b0316036118155760405162461bcd60e51b81526020600482015260156024820152744f776e657220616c7265616479207072696d61727960581b6044820152606401610c71565b6001600160a01b0381165f908152601060205260409020541561186d5760405162461bcd60e51b815260206004820152601060248201526f105b1c9958591e48185cdcda59db995960821b6044820152606401610c71565b5f828152600f6020526040902080546002116118cb5760405162461bcd60e51b815260206004820152601e60248201527f4d6178696d756d20736861726564206d656d62657273207265616368656400006044820152606401610c71565b5f5b815481101561195a57826001600160a01b03168282815481106118f2576118f26130b8565b5f9182526020909120600390910201546001600160a01b0316036119485760405162461bcd60e51b815260206004820152600d60248201526c105b1c9958591e481859191959609a1b6044820152606401610c71565b80611952816130f3565b9150506118cd565b50604080516060810182526001600160a01b03848116808352426020808501918252600185870181815288548083018a555f8a81528481209851600390920290980180546001600160a01b0319169190971617865592519085015590516002909301805460ff1916931515939093179092558083526010909152828220869055915185917f37e8fe85cb19cf40a0b7b0dbc78e42087a9b5c3b07b0e7fb8f6adbf26b8cf22d91a3505050565b5f6001600160a01b038216611a30576040516322718ad960e21b81525f6004820152602401610c71565b506001600160a01b03165f9081526003602052604090205490565b611a53611ecf565b6111575f612262565b611a64611ecf565b6111576122b3565b611a74611ecf565b6111575f600755565b611a85611ecf565b5f611a8f82611efc565b6001600160a01b031603611ab55760405162461bcd60e51b8152600401610c7190613042565b5f818152600e6020526040902080546002919061ff00191661010083610e8f565b611ade611ecf565b610c3582826122f6565b6060611af382611bc6565b15611b1b5750506040805180820190915260078152665072696d61727960c81b602082015290565b6001600160a01b0382165f9081526010602052604090205415611b5d5750506040805180820190915260098152685365636f6e6461727960b81b602082015290565b50506040805180820190915260048152634e6f6e6560e01b602082015290565b606060018054610b829061300a565b610c35338383612398565b5f611ba182611bc6565b80610ad857506001600160a01b0382165f908152601060205260409020541515610ad8565b5f80611bd183611a06565b1192915050565b611be3848484610cc2565b610d453385858585612436565b5f805f80614e20600c54611c02611d1e565b600b54935093509350935090919293565b6060611c1e82611e8b565b505f8281526006602052604081208054611c379061300a565b80601f0160208091040260200160405190810160405280929190818152602001828054611c639061300a565b8015611cae5780601f10611c8557610100808354040283529160200191611cae565b820191905f5260205f20905b815481529060010190602001808311611c9157829003601f168201915b505050505090505f611cca60408051602081019091525f815290565b905080515f03611cdb575092915050565b815115611d0d578082604051602001611cf592919061320c565b60405160208183030381529060405292505050919050565b611d168461255e565b949350505050565b5f600c54614e20611d2f91906130cc565b905090565b6001600160a01b039182165f90815260056020908152604080832093909416825291909152205460ff1690565b611d69611ecf565b6001600160a01b038116611d9257604051631e4fbdf760e01b81525f6004820152602401610c71565b610e3b81612262565b611da3611ecf565b5f8111611de75760405162461bcd60e51b8152602060048201526012602482015271496e76616c6964206d696e7420707269636560701b6044820152606401610c71565b600b8190556040518181527f525b762709cc2a983aec5ccdfd807a061f993c91090b5bcd7da92ca254976aaa90602001611563565b5f80611e2783611efc565b6001600160a01b031603611e4d5760405162461bcd60e51b8152600401610c7190613042565b505f908152600e6020526040902054610100900460ff1690565b5f6001600160e01b0319821663152a902d60e11b1480610ad85750610ad8826125cf565b5f80611e9683611efc565b90506001600160a01b038116610ad857604051637e27328960e01b815260048101849052602401610c71565b61118383838360016125f3565b6009546001600160a01b031633146111575760405163118cdaa760e01b8152336004820152602401610c71565b5f908152600260205260409020546001600160a01b031690565b5f828152600660205260409020611f2d8282613150565b506040518281527ff8e1a15aba9398e019f0b49df1a4fde98ee17ae345cb5f6b5e2c27f5033e8ce79060200160405180910390a15050565b5f80611f7084611efc565b90506001600160a01b03811615612000575f80858152600e6020526040902054610100900460ff166002811115611fa957611fa9612db1565b146120005760405162461bcd60e51b815260206004820152602160248201527f4d656d62657273686970206973206c6f636b6564206f722073757370656e64656044820152601960fa1b6064820152608401610c71565b61200b8585856126f7565b95945050505050565b600954600160a01b900460ff16156111575760405163d93c066560e01b815260040160405180910390fd5b6002600a540361206257604051633ee5aeb560e01b815260040160405180910390fd5b6002600a55565b614e2081106120ad5760405162461bcd60e51b815260206004820152601060248201526f125b9d985b1a59081d1bdad95b88125160821b6044820152606401610c71565b5f818152600e602052604090205460ff16156120fc5760405162461bcd60e51b815260206004820152600e60248201526d105b1c9958591e481b5a5b9d195960921b6044820152606401610c71565b604080516060810190915260018152602081015f8152426020918201525f838152600e8252604090208251815490151560ff19821681178355928401519192839161ff001990911661ffff199091161761010083600281111561216157612161612db1565b021790555060409190910151600190910155600c8054905f612182836130f3565b919050555061219182826127e4565b5f600d6121a76121a284600161323a565b6127fd565b6040516020016121b892919061324d565b60405160208183030381529060405290506121d38282611f16565b6040516001600160a01b0384169083907f6e620b3e7061133719ea50a8bf6357236acfaa795fbc1bb1c9e19ea6fe88a18d905f90a3505050565b61221561288d565b6009805460ff60a01b191690557f5db9ee0a495bf2e6ff9c91a7834c1ba4fdd244a5e8aa4e537bd38aeae4b073aa335b6040516001600160a01b03909116815260200160405180910390a1565b600980546001600160a01b038381166001600160a01b0319831681179093556040519116919082907f8be0079c531659141344cd1fd0a4f28419497f9722a3daafe3b4186f6b6457e0905f90a35050565b6122bb612014565b6009805460ff60a01b1916600160a01b1790557f62e78cea01bee320cd4e420270b5ea74000d11b0c9f74754ebdbfc544b05a2586122453390565b6127106001600160601b03821681101561233557604051636f483d0960e01b81526001600160601b038316600482015260248101829052604401610c71565b6001600160a01b03831661235e57604051635b6cc80560e11b81525f6004820152602401610c71565b50604080518082019091526001600160a01b039092168083526001600160601b039091166020909201829052600160a01b90910217600755565b6001600160a01b0382166123ca57604051630b61174360e31b81526001600160a01b0383166004820152602401610c71565b6001600160a01b038381165f81815260056020908152604080832094871680845294825291829020805460ff191686151590811790915591519182527f17307eab39ab6107e8899845ad3d59bd9653f200f220920489ca2b5937696c31910160405180910390a3505050565b6001600160a01b0383163b1561255757604051630a85bd0160e11b81526001600160a01b0384169063150b7a02906124789088908890879087906004016132e0565b6020604051808303815f875af19250505080156124b2575060408051601f3d908101601f191682019092526124af9181019061331c565b60015b612519573d8080156124df576040519150601f19603f3d011682016040523d82523d5f602084013e6124e4565b606091505b5080515f0361251157604051633250574960e11b81526001600160a01b0385166004820152602401610c71565b805160208201fd5b6001600160e01b03198116630a85bd0160e11b1461255557604051633250574960e11b81526001600160a01b0385166004820152602401610c71565b505b5050505050565b606061256982611e8b565b505f61257f60408051602081019091525f815290565b90505f81511161259d5760405180602001604052805f8152506125c8565b806125a7846127fd565b6040516020016125b892919061320c565b6040516020818303038152906040525b9392505050565b5f6001600160e01b03198216632483248360e11b1480610ad85750610ad8826128b7565b808061260757506001600160a01b03821615155b156126c8575f61261684611e8b565b90506001600160a01b038316158015906126425750826001600160a01b0316816001600160a01b031614155b801561265557506126538184611d34565b155b1561267e5760405163a9fbf51f60e01b81526001600160a01b0384166004820152602401610c71565b81156126c65783856001600160a01b0316826001600160a01b03167f8c5be1e5ebec7d5bd14f71427d1e84f3dd0314c0f7b2291e5b200ac8c7c3b92560405160405180910390a45b505b50505f90815260046020526040902080546001600160a01b0319166001600160a01b0392909216919091179055565b5f8061270284611efc565b90506001600160a01b0383161561271e5761271e818486612906565b6001600160a01b03811615612758576127395f855f806125f3565b6001600160a01b0381165f90815260036020526040902080545f190190555b6001600160a01b03851615612786576001600160a01b0385165f908152600360205260409020805460010190555b5f8481526002602052604080822080546001600160a01b0319166001600160a01b0389811691821790925591518793918516917fddf252ad1be2c89b69c2b068fc378daa952ba7f163c4a11628f55a4df523b3ef91a4949350505050565b610c35828260405180602001604052805f81525061296a565b60605f61280983612981565b60010190505f8167ffffffffffffffff81111561282857612828612c6f565b6040519080825280601f01601f191660200182016040528015612852576020820181803683370190505b5090508181016020015b5f19016f181899199a1a9b1b9c1cb0b131b232b360811b600a86061a8153600a850494508461285c57509392505050565b600954600160a01b900460ff1661115757604051638dfc202b60e01b815260040160405180910390fd5b5f6001600160e01b031982166380ac58cd60e01b14806128e757506001600160e01b03198216635b5e139f60e01b145b80610ad857506301ffc9a760e01b6001600160e01b0319831614610ad8565b612911838383612a58565b611183576001600160a01b03831661293f57604051637e27328960e01b815260048101829052602401610c71565b60405163177e802f60e01b81526001600160a01b038316600482015260248101829052604401610c71565b6129748383612ab9565b611183335f858585612436565b5f8072184f03e93ff9f4daa797ed6e38ed64bf6a1f0160401b83106129bf5772184f03e93ff9f4daa797ed6e38ed64bf6a1f0160401b830492506040015b6d04ee2d6d415b85acef810000000083106129eb576d04ee2d6d415b85acef8100000000830492506020015b662386f26fc100008310612a0957662386f26fc10000830492506010015b6305f5e1008310612a21576305f5e100830492506008015b6127108310612a3557612710830492506004015b60648310612a47576064830492506002015b600a8310610ad85760010192915050565b5f6001600160a01b03831615801590611d165750826001600160a01b0316846001600160a01b03161480612a915750612a918484611d34565b80611d165750505f908152600460205260409020546001600160a01b03908116911614919050565b6001600160a01b038216612ae257604051633250574960e11b81525f6004820152602401610c71565b5f612aee83835f611f65565b90506001600160a01b03811615611183576040516339e3563760e11b81525f6004820152602401610c71565b5f60208284031215612b2a575f80fd5b5035919050565b6001600160e01b031981168114610e3b575f80fd5b5f60208284031215612b56575f80fd5b81356125c881612b31565b602080825282518282018190525f9190848201906040850190845b81811015612bc157612bae83855180516001600160a01b03168252602080820151908301526040908101511515910152565b9284019260609290920191600101612b7c565b50909695505050505050565b5f5b83811015612be7578181015183820152602001612bcf565b50505f910152565b5f8151808452612c06816020860160208601612bcd565b601f01601f19169290920160200192915050565b602081525f6125c86020830184612bef565b80356001600160a01b0381168114612c42575f80fd5b919050565b5f8060408385031215612c58575f80fd5b612c6183612c2c565b946020939093013593505050565b634e487b7160e01b5f52604160045260245ffd5b5f67ffffffffffffffff80841115612c9d57612c9d612c6f565b604051601f8501601f19908116603f01168101908282118183101715612cc557612cc5612c6f565b81604052809350858152868686011115612cdd575f80fd5b858560208301375f602087830101525050509392505050565b5f82601f830112612d05575f80fd5b6125c883833560208501612c83565b5f8060408385031215612d25575f80fd5b82359150602083013567ffffffffffffffff811115612d42575f80fd5b612d4e85828601612cf6565b9150509250929050565b5f805f60608486031215612d6a575f80fd5b612d7384612c2c565b9250612d8160208501612c2c565b9150604084013590509250925092565b5f8060408385031215612da2575f80fd5b50508035926020909101359150565b634e487b7160e01b5f52602160045260245ffd5b60038110612de157634e487b7160e01b5f52602160045260245ffd5b9052565b6001600160a01b0386168152612dfe6020820186612dc5565b83604082015282606082015260a060808201525f612e1f60a0830184612bef565b979650505050505050565b5f60208284031215612e3a575f80fd5b6125c882612c2c565b5f8060408385031215612e54575f80fd5b82359150612e6460208401612c2c565b90509250929050565b5f60208284031215612e7d575f80fd5b813567ffffffffffffffff811115612e93575f80fd5b611d1684828501612cf6565b81516001600160a01b031681526020808301519082015260408083015115159082015260608101610ad8565b831515815260608101612ee16020830185612dc5565b826040830152949350505050565b5f8060408385031215612f00575f80fd5b612f0983612c2c565b915060208301356001600160601b0381168114612f24575f80fd5b809150509250929050565b5f8060408385031215612f40575f80fd5b612f4983612c2c565b915060208301358015158114612f24575f80fd5b5f805f8060808587031215612f70575f80fd5b612f7985612c2c565b9350612f8760208601612c2c565b925060408501359150606085013567ffffffffffffffff811115612fa9575f80fd5b8501601f81018713612fb9575f80fd5b612fc887823560208401612c83565b91505092959194509250565b5f8060408385031215612fe5575f80fd5b612fee83612c2c565b9150612e6460208401612c2c565b60208101610ad88284612dc5565b600181811c9082168061301e57607f821691505b60208210810361303c57634e487b7160e01b5f52602260045260245ffd5b50919050565b60208082526012908201527113919508191bd95cc81b9bdd08195e1a5cdd60721b604082015260600190565b634e487b7160e01b5f52601160045260245ffd5b8082028115828204841417610ad857610ad861306e565b5f826130b357634e487b7160e01b5f52601260045260245ffd5b500490565b634e487b7160e01b5f52603260045260245ffd5b81810381811115610ad857610ad861306e565b634e487b7160e01b5f52603160045260245ffd5b5f600182016131045761310461306e565b5060010190565b601f821115611183575f81815260208120601f850160051c810160208610156131315750805b601f850160051c820191505b818110156125555782815560010161313d565b815167ffffffffffffffff81111561316a5761316a612c6f565b61317e81613178845461300a565b8461310b565b602080601f8311600181146131b1575f841561319a5750858301515b5f19600386901b1c1916600185901b178555612555565b5f85815260208120601f198616915b828110156131df578886015182559484019460019091019084016131c0565b50858210156131fc57878501515f19600388901b60f8161c191681555b5050505050600190811b01905550565b5f835161321d818460208801612bcd565b835190830190613231818360208801612bcd565b01949350505050565b80820180821115610ad857610ad861306e565b5f80845461325a8161300a565b600182811680156132725760018114613287576132b3565b60ff19841687528215158302870194506132b3565b885f526020805f205f5b858110156132aa5781548a820152908401908201613291565b50505082870194505b5050505083516132c7818360208801612bcd565b64173539b7b760d91b9101908152600501949350505050565b6001600160a01b03858116825284166020820152604081018390526080606082018190525f9061331290830184612bef565b9695505050505050565b5f6020828403121561332c575f80fd5b81516125c881612b3156fea2646970667358221220d60572ef9a943be9ee066f5f2a46d91b114e5b97b697cb5446b08151e8d7668f64736f6c63430008140033",
  "linkReferences": {},
  "deployedLinkReferences": {},
  "immutableReferences": {},
  "inputSourceName": "project/contracts/MembershipNFT.sol",
  "buildInfoId": "solc-0_8_20-7b216e7914f12cb586122c585311af17800ac0cd"
}