{
  "_format": "hh3-artifact-1",
  "contractName": "MembershipNFT",
  "sourceName": "contracts/MembershipNFT.sol",
  "abi": [
    {
      "inputs": [
        {
          "internalType": "string",
          "name": "_baseURI",
          "type": "string"
        },
        {
          "internalType": "address",
          "name": "royaltyReceiver",
          "type": "address"
        }
      ],
      "stateMutability": "nonpayable",
      "type": "constructor"
    },
    {
      "inputs": [
        {
          "internalType": "uint256",
          "name": "numerator",
          "type": "uint256"
        },
        {
          "internalType": "uint256",
          "name": "denominator",
          "type": "uint256"
        }
      ],
      "name": "ERC2981InvalidDefaultRoyalty",
      "type": "error"
    },
    {
      "inputs": [
        {
          "internalType": "address",
          "name": "receiver",
          "type": "address"
        }
      ],
      "name": "ERC2981InvalidDefaultRoyaltyReceiver",
      "type": "error"
    },
    {
      "inputs": [
        {
          "internalType": "uint256",
          "name": "tokenId",
          "type": "uint256"
        },
        {
          "internalType": "uint256",
          "name": "numerator",
          "type": "uint256"
        },
        {
          "internalType": "uint256",
          "name": "denominator",
          "type": "uint256"
        }
      ],
      "name": "ERC2981InvalidTokenRoyalty",
      "type": "error"
    },
    {
      "inputs": [
        {
          "internalType": "uint256",
          "name": "tokenId",
          "type": "uint256"
        },
        {
          "internalType": "address",
          "name": "receiver",
          "type": "address"
        }
      ],
      "name": "ERC2981InvalidTokenRoyaltyReceiver",
      "type": "error"
    },
    {
      "inputs": [
        {
          "internalType": "address",
          "name": "sender",
          "type": "address"
        },
        {
          "internalType": "uint256",
          "name": "tokenId",
          "type": "uint256"
        },
        {
          "internalType": "address",
          "name": "owner",
          "type": "address"
        }
      ],
      "name": "ERC721IncorrectOwner",
      "type": "error"
    },
    {
      "inputs": [
        {
          "internalType": "address",
          "name": "operator",
          "type": "address"
        },
        {
          "internalType": "uint256",
          "name": "tokenId",
          "type": "uint256"
        }
      ],
      "name": "ERC721InsufficientApproval",
      "type": "error"
    },
    {
      "inputs": [
        {
          "internalType": "address",
          "name": "approver",
          "type": "address"
        }
      ],
      "name": "ERC721InvalidApprover",
      "type": "error"
    },
    {
      "inputs": [
        {
          "internalType": "address",
          "name": "operator",
          "type": "address"
        }
      ],
      "name": "ERC721InvalidOperator",
      "type": "error"
    },
    {
      "inputs": [
        {
          "internalType": "address",
          "name": "owner",
          "type": "address"
        }
      ],
      "name": "ERC721InvalidOwner",
      "type": "error"
    },
    {
      "inputs": [
        {
          "internalType": "address",
          "name": "receiver",
          "type": "address"
        }
      ],
      "name": "ERC721InvalidReceiver",
      "type": "error"
    },
    {
      "inputs": [
        {
          "internalType": "address",
          "name": "sender",
          "type": "address"
        }
      ],
      "name": "ERC721InvalidSender",
      "type": "error"
    },
    {
      "inputs": [
        {
          "internalType": "uint256",
          "name": "tokenId",
          "type": "uint256"
        }
      ],
      "name": "ERC721NonexistentToken",
      "type": "error"
    },
    {
      "inputs": [
        {
          "internalType": "address",
          "name": "owner",
          "type": "address"
        }
      ],
      "name": "OwnableInvalidOwner",
      "type": "error"
    },
    {
      "inputs": [
        {
          "internalType": "address",
          "name": "account",
          "type": "address"
        }
      ],
      "name": "OwnableUnauthorizedAccount",
      "type": "error"
    },
    {
      "anonymous": false,
      "inputs": [
        {
          "indexed": true,
          "internalType": "address",
          "name": "owner",
          "type": "address"
        },
        {
          "indexed": true,
          "internalType": "address",
          "name": "approved",
          "type": "address"
        },
        {
          "indexed": true,
          "internalType": "uint256",
          "name": "tokenId",
          "type": "uint256"
        }
      ],
      "name": "Approval",
      "type": "event"
    },
    {
      "anonymous": false,
      "inputs": [
        {
          "indexed": true,
          "internalType": "address",
          "name": "owner",
          "type": "address"
        },
        {
          "indexed": true,
          "internalType": "address",
          "name": "operator",
          "type": "address"
        },
        {
          "indexed": false,
          "internalType": "bool",
          "name": "approved",
          "type": "bool"
        }
      ],
      "name": "ApprovalForAll",
      "type": "event"
    },
    {
      "anonymous": false,
      "inputs": [
        {
          "indexed": false,
          "internalType": "uint256",
          "name": "_fromTokenId",
          "type": "uint256"
        },
        {
          "indexed": false,
          "internalType": "uint256",
          "name": "_toTokenId",
          "type": "uint256"
        }
      ],
      "name": "BatchMetadataUpdate",
      "type": "event"
    },
    {
      "anonymous": false,
      "inputs": [
        {
          "indexed": false,
          "internalType": "uint256",
          "name": "_tokenId",
          "type": "uint256"
        }
      ],
      "name": "MetadataUpdate",
      "type": "event"
    },
    {
      "anonymous": false,
      "inputs": [
        {
          "indexed": true,
          "internalType": "address",
          "name": "previousOwner",
          "type": "address"
        },
        {
          "indexed": true,
          "internalType": "address",
          "name": "newOwner",
          "type": "address"
        }
      ],
      "name": "OwnershipTransferred",
      "type": "event"
    },
    {
      "anonymous": false,
      "inputs": [
        {
          "indexed": true,
          "internalType": "address",
          "name": "from",
          "type": "address"
        },
        {
          "indexed": true,
          "internalType": "address",
          "name": "to",
          "type": "address"
        },
        {
          "indexed": true,
          "internalType": "uint256",
          "name": "tokenId",
          "type": "uint256"
        }
      ],
      "name": "Transfer",
      "type": "event"
    },
    {
      "inputs": [],
      "name": "MAX_SUPPLY",
      "outputs": [
        {
          "internalType": "uint256",
          "name": "",
          "type": "uint256"
        }
      ],
      "stateMutability": "view",
      "type": "function"
    },
    {
      "inputs": [
        {
          "internalType": "uint256",
          "name": "tokenId",
          "type": "uint256"
        },
        {
          "internalType": "address",
          "name": "member",
          "type": "address"
        }
      ],
      "name": "addSharedMember",
      "outputs": [],
      "stateMutability": "nonpayable",
      "type": "function"
    },
    {
      "inputs": [
        {
          "internalType": "address",
          "name": "to",
          "type": "address"
        },
        {
          "internalType": "uint256",
          "name": "tokenId",
          "type": "uint256"
        }
      ],
      "name": "approve",
      "outputs": [],
      "stateMutability": "nonpayable",
      "type": "function"
    },
    {
      "inputs": [
        {
          "internalType": "address",
          "name": "owner",
          "type": "address"
        }
      ],
      "name": "balanceOf",
      "outputs": [
        {
          "internalType": "uint256",
          "name": "",
          "type": "uint256"
        }
      ],
      "stateMutability": "view",
      "type": "function"
    },
    {
      "inputs": [],
      "name": "baseMetadataURI",
      "outputs": [
        {
          "internalType": "string",
          "name": "",
          "type": "string"
        }
      ],
      "stateMutability": "view",
      "type": "function"
    },
    {
      "inputs": [
        {
          "internalType": "uint256",
          "name": "tokenId",
          "type": "uint256"
        }
      ],
      "name": "getApproved",
      "outputs": [
        {
          "internalType": "address",
          "name": "",
          "type": "address"
        }
      ],
      "stateMutability": "view",
      "type": "function"
    },
    {
      "inputs": [
        {
          "internalType": "uint256",
          "name": "tokenId",
          "type": "uint256"
        }
      ],
      "name": "getSharedMembers",
      "outputs": [
        {
          "internalType": "address[]",
          "name": "",
          "type": "address[]"
        }
      ],
      "stateMutability": "view",
      "type": "function"
    },
    {
      "inputs": [
        {
          "internalType": "address",
          "name": "owner",
          "type": "address"
        },
        {
          "internalType": "address",
          "name": "operator",
          "type": "address"
        }
      ],
      "name": "isApprovedForAll",
      "outputs": [
        {
          "internalType": "bool",
          "name": "",
          "type": "bool"
        }
      ],
      "stateMutability": "view",
      "type": "function"
    },
    {
      "inputs": [
        {
          "internalType": "address",
          "name": "user",
          "type": "address"
        }
      ],
      "name": "isPrimary",
      "outputs": [
        {
          "internalType": "bool",
          "name": "",
          "type": "bool"
        }
      ],
      "stateMutability": "view",
      "type": "function"
    },
    {
      "inputs": [
        {
          "internalType": "address",
          "name": "user",
          "type": "address"
        }
      ],
      "name": "isSecondary",
      "outputs": [
        {
          "internalType": "bool",
          "name": "",
          "type": "bool"
        }
      ],
      "stateMutability": "view",
      "type": "function"
    },
    {
      "inputs": [
        {
          "internalType": "address",
          "name": "",
          "type": "address"
        }
      ],
      "name": "memberOfToken",
      "outputs": [
        {
          "internalType": "uint256",
          "name": "",
          "type": "uint256"
        }
      ],
      "stateMutability": "view",
      "type": "function"
    },
    {
      "inputs": [],
      "name": "mintPrice",
      "outputs": [
        {
          "internalType": "uint256",
          "name": "",
          "type": "uint256"
        }
      ],
      "stateMutability": "view",
      "type": "function"
    },
    {
      "inputs": [
        {
          "internalType": "uint256",
          "name": "",
          "type": "uint256"
        }
      ],
      "name": "minted",
      "outputs": [
        {
          "internalType": "bool",
          "name": "",
          "type": "bool"
        }
      ],
      "stateMutability": "view",
      "type": "function"
    },
    {
      "inputs": [],
      "name": "name",
      "outputs": [
        {
          "internalType": "string",
          "name": "",
          "type": "string"
        }
      ],
      "stateMutability": "view",
      "type": "function"
    },
    {
      "inputs": [],
      "name": "owner",
      "outputs": [
        {
          "internalType": "address",
          "name": "",
          "type": "address"
        }
      ],
      "stateMutability": "view",
      "type": "function"
    },
    {
      "inputs": [
        {
          "internalType": "address",
          "name": "to",
          "type": "address"
        },
        {
          "internalType": "uint256",
          "name": "tokenId",
          "type": "uint256"
        }
      ],
      "name": "ownerMint",
      "outputs": [],
      "stateMutability": "nonpayable",
      "type": "function"
    },
    {
      "inputs": [
        {
          "internalType": "uint256",
          "name": "tokenId",
          "type": "uint256"
        }
      ],
      "name": "ownerOf",
      "outputs": [
        {
          "internalType": "address",
          "name": "",
          "type": "address"
        }
      ],
      "stateMutability": "view",
      "type": "function"
    },
    {
      "inputs": [
        {
          "internalType": "uint256",
          "name": "tokenId",
          "type": "uint256"
        }
      ],
      "name": "publicMint",
      "outputs": [],
      "stateMutability": "payable",
      "type": "function"
    },
    {
      "inputs": [
        {
          "internalType": "uint256",
          "name": "tokenId",
          "type": "uint256"
        },
        {
          "internalType": "address",
          "name": "member",
          "type": "address"
        }
      ],
      "name": "removeSharedMember",
      "outputs": [],
      "stateMutability": "nonpayable",
      "type": "function"
    },
    {
      "inputs": [],
      "name": "renounceOwnership",
      "outputs": [],
      "stateMutability": "nonpayable",
      "type": "function"
    },
    {
      "inputs": [
        {
          "internalType": "uint256",
          "name": "tokenId",
          "type": "uint256"
        },
        {
          "internalType": "uint256",
          "name": "salePrice",
          "type": "uint256"
        }
      ],
      "name": "royaltyInfo",
      "outputs": [
        {
          "internalType": "address",
          "name": "receiver",
          "type": "address"
        },
        {
          "internalType": "uint256",
          "name": "amount",
          "type": "uint256"
        }
      ],
      "stateMutability": "view",
      "type": "function"
    },
    {
      "inputs": [
        {
          "internalType": "address",
          "name": "from",
          "type": "address"
        },
        {
          "internalType": "address",
          "name": "to",
          "type": "address"
        },
        {
          "internalType": "uint256",
          "name": "tokenId",
          "type": "uint256"
        }
      ],
      "name": "safeTransferFrom",
      "outputs": [],
      "stateMutability": "nonpayable",
      "type": "function"
    },
    {
      "inputs": [
        {
          "internalType": "address",
          "name": "from",
          "type": "address"
        },
        {
          "internalType": "address",
          "name": "to",
          "type": "address"
        },
        {
          "internalType": "uint256",
          "name": "tokenId",
          "type": "uint256"
        },
        {
          "internalType": "bytes",
          "name": "data",
          "type": "bytes"
        }
      ],
      "name": "safeTransferFrom",
      "outputs": [],
      "stateMutability": "nonpayable",
      "type": "function"
    },
    {
      "inputs": [
        {
          "internalType": "address",
          "name": "operator",
          "type": "address"
        },
        {
          "internalType": "bool",
          "name": "approved",
          "type": "bool"
        }
      ],
      "name": "setApprovalForAll",
      "outputs": [],
      "stateMutability": "nonpayable",
      "type": "function"
    },
    {
      "inputs": [
        {
          "internalType": "string",
          "name": "newBaseURI",
          "type": "string"
        }
      ],
      "name": "setBaseURI",
      "outputs": [],
      "stateMutability": "nonpayable",
      "type": "function"
    },
    {
      "inputs": [
        {
          "internalType": "uint256",
          "name": "newPrice",
          "type": "uint256"
        }
      ],
      "name": "setMintPrice",
      "outputs": [],
      "stateMutability": "nonpayable",
      "type": "function"
    },
    {
      "inputs": [
        {
          "internalType": "uint256",
          "name": "",
          "type": "uint256"
        },
        {
          "internalType": "uint256",
          "name": "",
          "type": "uint256"
        }
      ],
      "name": "sharedMembers",
      "outputs": [
        {
          "internalType": "address",
          "name": "",
          "type": "address"
        }
      ],
      "stateMutability": "view",
      "type": "function"
    },
    {
      "inputs": [
        {
          "internalType": "bytes4",
          "name": "interfaceId",
          "type": "bytes4"
        }
      ],
      "name": "supportsInterface",
      "outputs": [
        {
          "internalType": "bool",
          "name": "",
          "type": "bool"
        }
      ],
      "stateMutability": "view",
      "type": "function"
    },
    {
      "inputs": [],
      "name": "symbol",
      "outputs": [
        {
          "internalType": "string",
          "name": "",
          "type": "string"
        }
      ],
      "stateMutability": "view",
      "type": "function"
    },
    {
      "inputs": [
        {
          "internalType": "uint256",
          "name": "tokenId",
          "type": "uint256"
        }
      ],
      "name": "tokenURI",
      "outputs": [
        {
          "internalType": "string",
          "name": "",
          "type": "string"
        }
      ],
      "stateMutability": "view",
      "type": "function"
    },
    {
      "inputs": [
        {
          "internalType": "address",
          "name": "from",
          "type": "address"
        },
        {
          "internalType": "address",
          "name": "to",
          "type": "address"
        },
        {
          "internalType": "uint256",
          "name": "tokenId",
          "type": "uint256"
        }
      ],
      "name": "transferFrom",
      "outputs": [],
      "stateMutability": "nonpayable",
      "type": "function"
    },
    {
      "inputs": [
        {
          "internalType": "address",
          "name": "newOwner",
          "type": "address"
        }
      ],
      "name": "transferOwnership",
      "outputs": [],
      "stateMutability": "nonpayable",
      "type": "function"
    },
    {
      "inputs": [],
      "name": "withdraw",
      "outputs": [],
      "stateMutability": "nonpayable",
      "type": "function"
    }
  ],
  "bytecode": "0x608060405267120a871cc0020000600a553480156200001c575f80fd5b50604051620024c9380380620024c98339810160408190526200003f916200023b565b336040518060400160405280601681526020017f536f6369616c4564676572204d656d62657273686970000000000000000000008152506040518060400160405280600381526020016253454d60e81b815250815f9081620000a29190620003a8565b506001620000b18282620003a8565b5050506001600160a01b038116620000e357604051631e4fbdf760e01b81525f60048201526024015b60405180910390fd5b620000ee8162000114565b50600b620000fd8382620003a8565b506200010c816103e862000165565b505062000470565b600980546001600160a01b038381166001600160a01b0319831681179093556040519116919082907f8be0079c531659141344cd1fd0a4f28419497f9722a3daafe3b4186f6b6457e0905f90a35050565b6127106001600160601b038216811015620001a657604051636f483d0960e01b81526001600160601b038316600482015260248101829052604401620000da565b6001600160a01b038316620001d157604051635b6cc80560e11b81525f6004820152602401620000da565b50604080518082019091526001600160a01b039092168083526001600160601b039091166020909201829052600160a01b90910217600755565b634e487b7160e01b5f52604160045260245ffd5b80516001600160a01b038116811462000236575f80fd5b919050565b5f80604083850312156200024d575f80fd5b82516001600160401b038082111562000264575f80fd5b818501915085601f83011262000278575f80fd5b8151818111156200028d576200028d6200020b565b604051601f8201601f19908116603f01168101908382118183101715620002b857620002b86200020b565b81604052828152602093508884848701011115620002d4575f80fd5b5f91505b82821015620002f75784820184015181830185015290830190620002d8565b5f848483010152809650505050620003118186016200021f565b925050509250929050565b600181811c908216806200033157607f821691505b6020821081036200035057634e487b7160e01b5f52602260045260245ffd5b50919050565b601f821115620003a3575f81815260208120601f850160051c810160208610156200037e5750805b601f850160051c820191505b818110156200039f578281556001016200038a565b5050505b505050565b81516001600160401b03811115620003c457620003c46200020b565b620003dc81620003d584546200031c565b8462000356565b602080601f83116001811462000412575f8415620003fa5750858301515b5f19600386901b1c1916600185901b1785556200039f565b5f85815260208120601f198616915b82811015620004425788860151825594840194600190910190840162000421565b50858210156200046057878501515f19600388901b60f8161c191681555b5050505050600190811b01905550565b61204b806200047e5f395ff3fe6080604052600436106101e6575f3560e01c80635b2bd79e116101085780638da5cb5b1161009d578063b88d4fde1161006d578063b88d4fde1461059d578063c87b56dd146105bc578063e985e9c5146105db578063f2fde38b146105fa578063f4a0a52814610619575f80fd5b80638da5cb5b1461052e57806395d89b411461054b578063a22cb4651461055f578063b854c9c91461057e575f80fd5b806370a08231116100d857806370a0823114610497578063715018a6146104b65780637dc0bf3f146104ca578063849deb31146104f8575f80fd5b80635b2bd79e146104305780636352211e146104445780636817c76c146104635780636d0476c014610478575f80fd5b80632db115441161017e57806342842e0e1161014e57806342842e0e146103b4578063484b973c146103d3578063529d203c146103f257806355f804b314610411575f80fd5b80632db115441461033f57806332cb6b0c146103525780633ccfd60b146103755780634129254014610389575f80fd5b8063095ea7b3116101b9578063095ea7b3146102a257806323b872dd146102c3578063284855ef146102e25780632a55205a14610301575f80fd5b806301ffc9a7146101ea57806304c32a451461021e57806306fdde031461024a578063081812fc1461026b575b5f80fd5b3480156101f5575f80fd5b506102096102043660046119b4565b610638565b60405190151581526020015b60405180910390f35b348015610229575f80fd5b5061023d6102383660046119cf565b610648565b60405161021591906119e6565b348015610255575f80fd5b5061025e6106b1565b6040516102159190611a7f565b348015610276575f80fd5b5061028a6102853660046119cf565b610740565b6040516001600160a01b039091168152602001610215565b3480156102ad575f80fd5b506102c16102bc366004611aac565b610767565b005b3480156102ce575f80fd5b506102c16102dd366004611ad4565b610776565b3480156102ed575f80fd5b5061028a6102fc366004611b0d565b610804565b34801561030c575f80fd5b5061032061031b366004611b0d565b610838565b604080516001600160a01b039093168352602083019190915201610215565b6102c161034d3660046119cf565b6108bb565b34801561035d575f80fd5b50610367614e2081565b604051908152602001610215565b348015610380575f80fd5b506102c16109f6565b348015610394575f80fd5b506103676103a3366004611b2d565b600e6020525f908152604090205481565b3480156103bf575f80fd5b506102c16103ce366004611ad4565b610a37565b3480156103de575f80fd5b506102c16103ed366004611aac565b610a56565b3480156103fd575f80fd5b506102c161040c366004611b46565b610b4f565b34801561041c575f80fd5b506102c161042b366004611bf7565b610d16565b34801561043b575f80fd5b5061025e610d2a565b34801561044f575f80fd5b5061028a61045e3660046119cf565b610db6565b34801561046e575f80fd5b50610367600a5481565b348015610483575f80fd5b506102c1610492366004611b46565b610dc0565b3480156104a2575f80fd5b506103676104b1366004611b2d565b610ef1565b3480156104c1575f80fd5b506102c1610f36565b3480156104d5575f80fd5b506102096104e43660046119cf565b600c6020525f908152604090205460ff1681565b348015610503575f80fd5b50610209610512366004611b2d565b6001600160a01b03165f908152600e6020526040902054151590565b348015610539575f80fd5b506009546001600160a01b031661028a565b348015610556575f80fd5b5061025e610f49565b34801561056a575f80fd5b506102c1610579366004611c3c565b610f58565b348015610589575f80fd5b50610209610598366004611b2d565b610f63565b3480156105a8575f80fd5b506102c16105b7366004611c75565b610f75565b3480156105c7575f80fd5b5061025e6105d63660046119cf565b610f8d565b3480156105e6575f80fd5b506102096105f5366004611cec565b611098565b348015610605575f80fd5b506102c1610614366004611b2d565b6110c5565b348015610624575f80fd5b506102c16106333660046119cf565b6110ff565b5f6106428261110c565b92915050565b5f818152600d60209081526040918290208054835181840281018401909452808452606093928301828280156106a557602002820191905f5260205f20905b81546001600160a01b03168152600190910190602001808311610687575b50505050509050919050565b60605f80546106bf90611d14565b80601f01602080910402602001604051908101604052809291908181526020018280546106eb90611d14565b80156107365780601f1061070d57610100808354040283529160200191610736565b820191905f5260205f20905b81548152906001019060200180831161071957829003601f168201915b5050505050905090565b5f61074a82611130565b505f828152600460205260409020546001600160a01b0316610642565b610772828233611168565b5050565b6001600160a01b0382166107a457604051633250574960e11b81525f60048201526024015b60405180910390fd5b5f6107b0838333611175565b9050836001600160a01b0316816001600160a01b0316146107fe576040516364283d7b60e01b81526001600160a01b038086166004830152602482018490528216604482015260640161079b565b50505050565b600d602052815f5260405f20818154811061081d575f80fd5b5f918252602090912001546001600160a01b03169150829050565b5f82815260086020526040812080548291906001600160a01b03811690600160a01b90046001600160601b03168161088b5750506007546001600160a01b03811690600160a01b90046001600160601b03165b5f6127106108a26001600160601b03841689611d60565b6108ac9190611d77565b92989297509195505050505050565b614e2081106108fe5760405162461bcd60e51b815260206004820152600f60248201526e125b9d985b1a59081d1bdad95b9259608a1b604482015260640161079b565b5f818152600c602052604090205460ff161561094d5760405162461bcd60e51b815260206004820152600e60248201526d105b1c9958591e481b5a5b9d195960921b604482015260640161079b565b600a543410156109925760405162461bcd60e51b815260206004820152601060248201526f092dce6eaccccd2c6d2cadce8408aa8960831b604482015260640161079b565b5f818152600c60205260409020805460ff191660011790556109b43382611267565b5f600b6109ca6109c5846001611d96565b611280565b6040516020016109db929190611da9565b60405160208183030381529060405290506107728282611310565b6109fe61135f565b6009546040516001600160a01b03909116904780156108fc02915f818181858888f19350505050158015610a34573d5f803e3d5ffd5b50565b610a5183838360405180602001604052805f815250610f75565b505050565b610a5e61135f565b614e208110610aa15760405162461bcd60e51b815260206004820152600f60248201526e125b9d985b1a59081d1bdad95b9259608a1b604482015260640161079b565b5f818152600c602052604090205460ff1615610af05760405162461bcd60e51b815260206004820152600e60248201526d105b1c9958591e481b5a5b9d195960921b604482015260640161079b565b5f818152600c60205260409020805460ff19166001179055610b128282611267565b5f600b610b236109c5846001611d96565b604051602001610b34929190611da9565b6040516020818303038152906040529050610a518282611310565b33610b5983610db6565b6001600160a01b031614610b9b5760405162461bcd60e51b81526020600482015260096024820152682737ba1037bbb732b960b91b604482015260640161079b565b6001600160a01b0381165f908152600e60205260409020548214610bee5760405162461bcd60e51b815260206004820152600a6024820152692737ba1036b2b6b132b960b11b604482015260640161079b565b5f828152600d60205260408120905b8154811015610cfa57826001600160a01b0316828281548110610c2257610c22611e3c565b5f918252602090912001546001600160a01b031603610ce85781548290610c4b90600190611e50565b81548110610c5b57610c5b611e3c565b905f5260205f20015f9054906101000a90046001600160a01b0316828281548110610c8857610c88611e3c565b905f5260205f20015f6101000a8154816001600160a01b0302191690836001600160a01b0316021790555081805480610cc357610cc3611e63565b5f8281526020902081015f1990810180546001600160a01b0319169055019055610cfa565b80610cf281611e77565b915050610bfd565b50506001600160a01b03165f908152600e602052604081205550565b610d1e61135f565b600b6107728282611ed4565b600b8054610d3790611d14565b80601f0160208091040260200160405190810160405280929190818152602001828054610d6390611d14565b8015610dae5780601f10610d8557610100808354040283529160200191610dae565b820191905f5260205f20905b815481529060010190602001808311610d9157829003601f168201915b505050505081565b5f61064282611130565b33610dca83610db6565b6001600160a01b031614610e0c5760405162461bcd60e51b81526020600482015260096024820152682737ba1037bbb732b960b91b604482015260640161079b565b6001600160a01b038116610e545760405162461bcd60e51b815260206004820152600f60248201526e496e76616c6964206164647265737360881b604482015260640161079b565b6001600160a01b0381165f908152600e602052604090205415610eaa5760405162461bcd60e51b815260206004820152600e60248201526d20b63932b0b23c9036b2b6b132b960911b604482015260640161079b565b5f828152600d6020908152604080832080546001810182559084528284200180546001600160a01b039095166001600160a01b031990951685179055928252600e90522055565b5f6001600160a01b038216610f1b576040516322718ad960e21b81525f600482015260240161079b565b506001600160a01b03165f9081526003602052604090205490565b610f3e61135f565b610f475f61138c565b565b6060600180546106bf90611d14565b6107723383836113dd565b5f80610f6e83610ef1565b1192915050565b610f80848484610776565b6107fe338585858561147b565b6060610f9882611130565b505f8281526006602052604081208054610fb190611d14565b80601f0160208091040260200160405190810160405280929190818152602001828054610fdd90611d14565b80156110285780601f10610fff57610100808354040283529160200191611028565b820191905f5260205f20905b81548152906001019060200180831161100b57829003601f168201915b505050505090505f61104460408051602081019091525f815290565b905080515f03611055575092915050565b81511561108757808260405160200161106f929190611f90565b60405160208183030381529060405292505050919050565b611090846115a3565b949350505050565b6001600160a01b039182165f90815260056020908152604080832093909416825291909152205460ff1690565b6110cd61135f565b6001600160a01b0381166110f657604051631e4fbdf760e01b81525f600482015260240161079b565b610a348161138c565b61110761135f565b600a55565b5f6001600160e01b0319821663152a902d60e11b1480610642575061064282611614565b5f818152600260205260408120546001600160a01b03168061064257604051637e27328960e01b81526004810184905260240161079b565b610a518383836001611638565b5f828152600260205260408120546001600160a01b03908116908316156111a1576111a181848661173c565b6001600160a01b038116156111db576111bc5f855f80611638565b6001600160a01b0381165f90815260036020526040902080545f190190555b6001600160a01b03851615611209576001600160a01b0385165f908152600360205260409020805460010190555b5f8481526002602052604080822080546001600160a01b0319166001600160a01b0389811691821790925591518793918516917fddf252ad1be2c89b69c2b068fc378daa952ba7f163c4a11628f55a4df523b3ef91a4949350505050565b610772828260405180602001604052805f8152506117a0565b60605f61128c836117b7565b60010190505f8167ffffffffffffffff8111156112ab576112ab611b70565b6040519080825280601f01601f1916602001820160405280156112d5576020820181803683370190505b5090508181016020015b5f19016f181899199a1a9b1b9c1cb0b131b232b360811b600a86061a8153600a85049450846112df57509392505050565b5f8281526006602052604090206113278282611ed4565b506040518281527ff8e1a15aba9398e019f0b49df1a4fde98ee17ae345cb5f6b5e2c27f5033e8ce79060200160405180910390a15050565b6009546001600160a01b03163314610f475760405163118cdaa760e01b815233600482015260240161079b565b600980546001600160a01b038381166001600160a01b0319831681179093556040519116919082907f8be0079c531659141344cd1fd0a4f28419497f9722a3daafe3b4186f6b6457e0905f90a35050565b6001600160a01b03821661140f57604051630b61174360e31b81526001600160a01b038316600482015260240161079b565b6001600160a01b038381165f81815260056020908152604080832094871680845294825291829020805460ff191686151590811790915591519182527f17307eab39ab6107e8899845ad3d59bd9653f200f220920489ca2b5937696c31910160405180910390a3505050565b6001600160a01b0383163b1561159c57604051630a85bd0160e11b81526001600160a01b0384169063150b7a02906114bd908890889087908790600401611fbe565b6020604051808303815f875af19250505080156114f7575060408051601f3d908101601f191682019092526114f491810190611ffa565b60015b61155e573d808015611524576040519150601f19603f3d011682016040523d82523d5f602084013e611529565b606091505b5080515f0361155657604051633250574960e11b81526001600160a01b038516600482015260240161079b565b805160208201fd5b6001600160e01b03198116630a85bd0160e11b1461159a57604051633250574960e11b81526001600160a01b038516600482015260240161079b565b505b5050505050565b60606115ae82611130565b505f6115c460408051602081019091525f815290565b90505f8151116115e25760405180602001604052805f81525061160d565b806115ec84611280565b6040516020016115fd929190611f90565b6040516020818303038152906040525b9392505050565b5f6001600160e01b03198216632483248360e11b148061064257506106428261188e565b808061164c57506001600160a01b03821615155b1561170d575f61165b84611130565b90506001600160a01b038316158015906116875750826001600160a01b0316816001600160a01b031614155b801561169a57506116988184611098565b155b156116c35760405163a9fbf51f60e01b81526001600160a01b038416600482015260240161079b565b811561170b5783856001600160a01b0316826001600160a01b03167f8c5be1e5ebec7d5bd14f71427d1e84f3dd0314c0f7b2291e5b200ac8c7c3b92560405160405180910390a45b505b50505f90815260046020526040902080546001600160a01b0319166001600160a01b0392909216919091179055565b6117478383836118dd565b610a51576001600160a01b03831661177557604051637e27328960e01b81526004810182905260240161079b565b60405163177e802f60e01b81526001600160a01b03831660048201526024810182905260440161079b565b6117aa838361193e565b610a51335f85858561147b565b5f8072184f03e93ff9f4daa797ed6e38ed64bf6a1f0160401b83106117f55772184f03e93ff9f4daa797ed6e38ed64bf6a1f0160401b830492506040015b6d04ee2d6d415b85acef81000000008310611821576d04ee2d6d415b85acef8100000000830492506020015b662386f26fc10000831061183f57662386f26fc10000830492506010015b6305f5e1008310611857576305f5e100830492506008015b612710831061186b57612710830492506004015b6064831061187d576064830492506002015b600a83106106425760010192915050565b5f6001600160e01b031982166380ac58cd60e01b14806118be57506001600160e01b03198216635b5e139f60e01b145b8061064257506301ffc9a760e01b6001600160e01b0319831614610642565b5f6001600160a01b038316158015906110905750826001600160a01b0316846001600160a01b0316148061191657506119168484611098565b806110905750505f908152600460205260409020546001600160a01b03908116911614919050565b6001600160a01b03821661196757604051633250574960e11b81525f600482015260240161079b565b5f61197383835f611175565b90506001600160a01b03811615610a51576040516339e3563760e11b81525f600482015260240161079b565b6001600160e01b031981168114610a34575f80fd5b5f602082840312156119c4575f80fd5b813561160d8161199f565b5f602082840312156119df575f80fd5b5035919050565b602080825282518282018190525f9190848201906040850190845b81811015611a265783516001600160a01b031683529284019291840191600101611a01565b50909695505050505050565b5f5b83811015611a4c578181015183820152602001611a34565b50505f910152565b5f8151808452611a6b816020860160208601611a32565b601f01601f19169290920160200192915050565b602081525f61160d6020830184611a54565b80356001600160a01b0381168114611aa7575f80fd5b919050565b5f8060408385031215611abd575f80fd5b611ac683611a91565b946020939093013593505050565b5f805f60608486031215611ae6575f80fd5b611aef84611a91565b9250611afd60208501611a91565b9150604084013590509250925092565b5f8060408385031215611b1e575f80fd5b50508035926020909101359150565b5f60208284031215611b3d575f80fd5b61160d82611a91565b5f8060408385031215611b57575f80fd5b82359150611b6760208401611a91565b90509250929050565b634e487b7160e01b5f52604160045260245ffd5b5f67ffffffffffffffff80841115611b9e57611b9e611b70565b604051601f8501601f19908116603f01168101908282118183101715611bc657611bc6611b70565b81604052809350858152868686011115611bde575f80fd5b858560208301375f602087830101525050509392505050565b5f60208284031215611c07575f80fd5b813567ffffffffffffffff811115611c1d575f80fd5b8201601f81018413611c2d575f80fd5b61109084823560208401611b84565b5f8060408385031215611c4d575f80fd5b611c5683611a91565b915060208301358015158114611c6a575f80fd5b809150509250929050565b5f805f8060808587031215611c88575f80fd5b611c9185611a91565b9350611c9f60208601611a91565b925060408501359150606085013567ffffffffffffffff811115611cc1575f80fd5b8501601f81018713611cd1575f80fd5b611ce087823560208401611b84565b91505092959194509250565b5f8060408385031215611cfd575f80fd5b611d0683611a91565b9150611b6760208401611a91565b600181811c90821680611d2857607f821691505b602082108103611d4657634e487b7160e01b5f52602260045260245ffd5b50919050565b634e487b7160e01b5f52601160045260245ffd5b808202811582820484141761064257610642611d4c565b5f82611d9157634e487b7160e01b5f52601260045260245ffd5b500490565b8082018082111561064257610642611d4c565b5f808454611db681611d14565b60018281168015611dce5760018114611de357611e0f565b60ff1984168752821515830287019450611e0f565b885f526020805f205f5b85811015611e065781548a820152908401908201611ded565b50505082870194505b505050508351611e23818360208801611a32565b64173539b7b760d91b9101908152600501949350505050565b634e487b7160e01b5f52603260045260245ffd5b8181038181111561064257610642611d4c565b634e487b7160e01b5f52603160045260245ffd5b5f60018201611e8857611e88611d4c565b5060010190565b601f821115610a51575f81815260208120601f850160051c81016020861015611eb55750805b601f850160051c820191505b8181101561159a57828155600101611ec1565b815167ffffffffffffffff811115611eee57611eee611b70565b611f0281611efc8454611d14565b84611e8f565b602080601f831160018114611f35575f8415611f1e5750858301515b5f19600386901b1c1916600185901b17855561159a565b5f85815260208120601f198616915b82811015611f6357888601518255948401946001909101908401611f44565b5085821015611f8057878501515f19600388901b60f8161c191681555b5050505050600190811b01905550565b5f8351611fa1818460208801611a32565b835190830190611fb5818360208801611a32565b01949350505050565b6001600160a01b03858116825284166020820152604081018390526080606082018190525f90611ff090830184611a54565b9695505050505050565b5f6020828403121561200a575f80fd5b815161160d8161199f56fea2646970667358221220b4b616b1c9d1db1a341ee3458b9533d40d9d2734079ce5bf9a791f860406a1e864736f6c63430008140033",
  "linkReferences": {},
  "deployedLinkReferences": {},
  "immutableReferences": {},
  "inputSourceName": "project/contracts/MembershipNFT.sol",
  "buildInfoId": "solc-0_8_20-6be4f0d4f43cc60b75329219c222052d1ad79fd7"
}