{
  "_format": "hh3-artifact-1",
  "contractName": "Presale",
  "sourceName": "contracts/Presale.sol",
  "abi": [
    {
      "inputs": [
        {
          "internalType": "address",
          "name": "tokenAddress",
          "type": "address"
        }
      ],
      "stateMutability": "nonpayable",
      "type": "constructor"
    },
    {
      "inputs": [
        {
          "internalType": "address",
          "name": "owner",
          "type": "address"
        }
      ],
      "name": "OwnableInvalidOwner",
      "type": "error"
    },
    {
      "inputs": [
        {
          "internalType": "address",
          "name": "account",
          "type": "address"
        }
      ],
      "name": "OwnableUnauthorizedAccount",
      "type": "error"
    },
    {
      "anonymous": false,
      "inputs": [
        {
          "indexed": true,
          "internalType": "address",
          "name": "previousOwner",
          "type": "address"
        },
        {
          "indexed": true,
          "internalType": "address",
          "name": "newOwner",
          "type": "address"
        }
      ],
      "name": "OwnershipTransferred",
      "type": "event"
    },
    {
      "inputs": [],
      "name": "buyTokens",
      "outputs": [],
      "stateMutability": "payable",
      "type": "function"
    },
    {
      "inputs": [],
      "name": "owner",
      "outputs": [
        {
          "internalType": "address",
          "name": "",
          "type": "address"
        }
      ],
      "stateMutability": "view",
      "type": "function"
    },
    {
      "inputs": [],
      "name": "rate",
      "outputs": [
        {
          "internalType": "uint256",
          "name": "",
          "type": "uint256"
        }
      ],
      "stateMutability": "view",
      "type": "function"
    },
    {
      "inputs": [],
      "name": "renounceOwnership",
      "outputs": [],
      "stateMutability": "nonpayable",
      "type": "function"
    },
    {
      "inputs": [],
      "name": "token",
      "outputs": [
        {
          "internalType": "contract PresaleToken",
          "name": "",
          "type": "address"
        }
      ],
      "stateMutability": "view",
      "type": "function"
    },
    {
      "inputs": [
        {
          "internalType": "address",
          "name": "newOwner",
          "type": "address"
        }
      ],
      "name": "transferOwnership",
      "outputs": [],
      "stateMutability": "nonpayable",
      "type": "function"
    },
    {
      "stateMutability": "payable",
      "type": "receive"
    }
  ],
  "bytecode": "0x60806040526103e8600255348015610015575f80fd5b50604051610468380380610468833981016040819052610034916100d7565b338061005957604051631e4fbdf760e01b81525f600482015260240160405180910390fd5b61006281610088565b50600180546001600160a01b0319166001600160a01b0392909216919091179055610104565b5f80546001600160a01b038381166001600160a01b0319831681178455604051919092169283917f8be0079c531659141344cd1fd0a4f28419497f9722a3daafe3b4186f6b6457e09190a35050565b5f602082840312156100e7575f80fd5b81516001600160a01b03811681146100fd575f80fd5b9392505050565b610357806101115f395ff3fe608060405260043610610057575f3560e01c80632c4e722e1461006a578063715018a6146100925780638da5cb5b146100a6578063d0febe4c146100d6578063f2fde38b146100de578063fc0c546a146100fd575f80fd5b366100665761006461011c565b005b5f80fd5b348015610075575f80fd5b5061007f60025481565b6040519081526020015b60405180910390f35b34801561009d575f80fd5b506100646101e1565b3480156100b1575f80fd5b505f546001600160a01b03165b6040516001600160a01b039091168152602001610089565b61006461011c565b3480156100e9575f80fd5b506100646100f83660046102ac565b6101f4565b348015610108575f80fd5b506001546100be906001600160a01b031681565b5f341161015b5760405162461bcd60e51b81526020600482015260086024820152670a6cadcc8408aa8960c31b60448201526064015b60405180910390fd5b5f6002543461016a91906102d9565b60015460405163a9059cbb60e01b8152336004820152602481018390529192506001600160a01b03169063a9059cbb906044016020604051808303815f875af11580156101b9573d5f803e3d5ffd5b505050506040513d601f19601f820116820180604052508101906101dd9190610302565b5050565b6101e9610231565b6101f25f61025d565b565b6101fc610231565b6001600160a01b03811661022557604051631e4fbdf760e01b81525f6004820152602401610152565b61022e8161025d565b50565b5f546001600160a01b031633146101f25760405163118cdaa760e01b8152336004820152602401610152565b5f80546001600160a01b038381166001600160a01b0319831681178455604051919092169283917f8be0079c531659141344cd1fd0a4f28419497f9722a3daafe3b4186f6b6457e09190a35050565b5f602082840312156102bc575f80fd5b81356001600160a01b03811681146102d2575f80fd5b9392505050565b80820281158282048414176102fc57634e487b7160e01b5f52601160045260245ffd5b92915050565b5f60208284031215610312575f80fd5b815180151581146102d2575f80fdfea26469706673582212203ee455f1630709ecdefa9799daff7378ab73f7a491e6280a3f8b7c49ae8bbc9c64736f6c63430008140033",
  "linkReferences": {},
  "deployedLinkReferences": {},
  "immutableReferences": {},
  "inputSourceName": "project/contracts/Presale.sol",
  "buildInfoId": "solc-0_8_20-a48f6d09e082f01402c68188b40cc355719496f0"
}