{
  "_format": "hh3-artifact-1",
  "contractName": "Presale",
  "sourceName": "contracts/Presale.sol",
  "abi": [
    {
      "inputs": [
        {
          "internalType": "address",
          "name": "tokenAddress",
          "type": "address"
        }
      ],
      "stateMutability": "nonpayable",
      "type": "constructor"
    },
    {
      "inputs": [],
      "name": "EnforcedPause",
      "type": "error"
    },
    {
      "inputs": [],
      "name": "ExpectedPause",
      "type": "error"
    },
    {
      "inputs": [
        {
          "internalType": "address",
          "name": "owner",
          "type": "address"
        }
      ],
      "name": "OwnableInvalidOwner",
      "type": "error"
    },
    {
      "inputs": [
        {
          "internalType": "address",
          "name": "account",
          "type": "address"
        }
      ],
      "name": "OwnableUnauthorizedAccount",
      "type": "error"
    },
    {
      "inputs": [],
      "name": "ReentrancyGuardReentrantCall",
      "type": "error"
    },
    {
      "anonymous": false,
      "inputs": [
        {
          "indexed": true,
          "internalType": "address",
          "name": "previousOwner",
          "type": "address"
        },
        {
          "indexed": true,
          "internalType": "address",
          "name": "newOwner",
          "type": "address"
        }
      ],
      "name": "OwnershipTransferred",
      "type": "event"
    },
    {
      "anonymous": false,
      "inputs": [
        {
          "indexed": false,
          "internalType": "address",
          "name": "account",
          "type": "address"
        }
      ],
      "name": "Paused",
      "type": "event"
    },
    {
      "anonymous": false,
      "inputs": [
        {
          "indexed": true,
          "internalType": "uint256",
          "name": "phase",
          "type": "uint256"
        }
      ],
      "name": "PhaseActivated",
      "type": "event"
    },
    {
      "anonymous": false,
      "inputs": [
        {
          "indexed": true,
          "internalType": "uint256",
          "name": "phase",
          "type": "uint256"
        },
        {
          "indexed": false,
          "internalType": "string",
          "name": "name",
          "type": "string"
        }
      ],
      "name": "PhaseCreated",
      "type": "event"
    },
    {
      "anonymous": false,
      "inputs": [
        {
          "indexed": false,
          "internalType": "uint256",
          "name": "minimum",
          "type": "uint256"
        },
        {
          "indexed": false,
          "internalType": "uint256",
          "name": "maximum",
          "type": "uint256"
        }
      ],
      "name": "PurchaseLimitsUpdated",
      "type": "event"
    },
    {
      "anonymous": false,
      "inputs": [
        {
          "indexed": true,
          "internalType": "address",
          "name": "buyer",
          "type": "address"
        },
        {
          "indexed": false,
          "internalType": "uint256",
          "name": "ethSpent",
          "type": "uint256"
        },
        {
          "indexed": false,
          "internalType": "uint256",
          "name": "tokensReceived",
          "type": "uint256"
        },
        {
          "indexed": false,
          "internalType": "uint256",
          "name": "phase",
          "type": "uint256"
        }
      ],
      "name": "TokensPurchased",
      "type": "event"
    },
    {
      "anonymous": false,
      "inputs": [
        {
          "indexed": false,
          "internalType": "address",
          "name": "account",
          "type": "address"
        }
      ],
      "name": "Unpaused",
      "type": "event"
    },
    {
      "anonymous": false,
      "inputs": [
        {
          "indexed": false,
          "internalType": "uint256",
          "name": "amount",
          "type": "uint256"
        }
      ],
      "name": "WithdrawETH",
      "type": "event"
    },
    {
      "inputs": [
        {
          "internalType": "uint256",
          "name": "phaseId",
          "type": "uint256"
        }
      ],
      "name": "activatePhase",
      "outputs": [],
      "stateMutability": "nonpayable",
      "type": "function"
    },
    {
      "inputs": [],
      "name": "buyTokens",
      "outputs": [],
      "stateMutability": "payable",
      "type": "function"
    },
    {
      "inputs": [],
      "name": "contractVersion",
      "outputs": [
        {
          "internalType": "string",
          "name": "",
          "type": "string"
        }
      ],
      "stateMutability": "pure",
      "type": "function"
    },
    {
      "inputs": [
        {
          "internalType": "uint256",
          "name": "phaseId",
          "type": "uint256"
        },
        {
          "internalType": "string",
          "name": "name",
          "type": "string"
        },
        {
          "internalType": "uint256",
          "name": "rate",
          "type": "uint256"
        },
        {
          "internalType": "uint256",
          "name": "startTime",
          "type": "uint256"
        },
        {
          "internalType": "uint256",
          "name": "endTime",
          "type": "uint256"
        }
      ],
      "name": "createPhase",
      "outputs": [],
      "stateMutability": "nonpayable",
      "type": "function"
    },
    {
      "inputs": [],
      "name": "currentPhase",
      "outputs": [
        {
          "internalType": "uint256",
          "name": "",
          "type": "uint256"
        }
      ],
      "stateMutability": "view",
      "type": "function"
    },
    {
      "inputs": [],
      "name": "getCurrentPhase",
      "outputs": [
        {
          "components": [
            {
              "internalType": "string",
              "name": "name",
              "type": "string"
            },
            {
              "internalType": "uint256",
              "name": "rate",
              "type": "uint256"
            },
            {
              "internalType": "uint256",
              "name": "startTime",
              "type": "uint256"
            },
            {
              "internalType": "uint256",
              "name": "endTime",
              "type": "uint256"
            },
            {
              "internalType": "bool",
              "name": "active",
              "type": "bool"
            }
          ],
          "internalType": "struct Presale.SalePhase",
          "name": "",
          "type": "tuple"
        }
      ],
      "stateMutability": "view",
      "type": "function"
    },
    {
      "inputs": [
        {
          "internalType": "address",
          "name": "",
          "type": "address"
        }
      ],
      "name": "hasParticipated",
      "outputs": [
        {
          "internalType": "bool",
          "name": "",
          "type": "bool"
        }
      ],
      "stateMutability": "view",
      "type": "function"
    },
    {
      "inputs": [],
      "name": "maximumPurchase",
      "outputs": [
        {
          "internalType": "uint256",
          "name": "",
          "type": "uint256"
        }
      ],
      "stateMutability": "view",
      "type": "function"
    },
    {
      "inputs": [],
      "name": "minimumPurchase",
      "outputs": [
        {
          "internalType": "uint256",
          "name": "",
          "type": "uint256"
        }
      ],
      "stateMutability": "view",
      "type": "function"
    },
    {
      "inputs": [],
      "name": "owner",
      "outputs": [
        {
          "internalType": "address",
          "name": "",
          "type": "address"
        }
      ],
      "stateMutability": "view",
      "type": "function"
    },
    {
      "inputs": [
        {
          "internalType": "address",
          "name": "wallet",
          "type": "address"
        }
      ],
      "name": "participantInfo",
      "outputs": [
        {
          "internalType": "bool",
          "name": "participated",
          "type": "bool"
        },
        {
          "internalType": "uint256",
          "name": "ethSpent",
          "type": "uint256"
        }
      ],
      "stateMutability": "view",
      "type": "function"
    },
    {
      "inputs": [],
      "name": "pause",
      "outputs": [],
      "stateMutability": "nonpayable",
      "type": "function"
    },
    {
      "inputs": [],
      "name": "paused",
      "outputs": [
        {
          "internalType": "bool",
          "name": "",
          "type": "bool"
        }
      ],
      "stateMutability": "view",
      "type": "function"
    },
    {
      "inputs": [
        {
          "internalType": "uint256",
          "name": "",
          "type": "uint256"
        }
      ],
      "name": "phases",
      "outputs": [
        {
          "internalType": "string",
          "name": "name",
          "type": "string"
        },
        {
          "internalType": "uint256",
          "name": "rate",
          "type": "uint256"
        },
        {
          "internalType": "uint256",
          "name": "startTime",
          "type": "uint256"
        },
        {
          "internalType": "uint256",
          "name": "endTime",
          "type": "uint256"
        },
        {
          "internalType": "bool",
          "name": "active",
          "type": "bool"
        }
      ],
      "stateMutability": "view",
      "type": "function"
    },
    {
      "inputs": [],
      "name": "presaleSummary",
      "outputs": [
        {
          "internalType": "uint256",
          "name": "phase",
          "type": "uint256"
        },
        {
          "internalType": "uint256",
          "name": "ethRaised",
          "type": "uint256"
        },
        {
          "internalType": "uint256",
          "name": "tokensSold",
          "type": "uint256"
        },
        {
          "internalType": "uint256",
          "name": "participants",
          "type": "uint256"
        },
        {
          "internalType": "uint256",
          "name": "minimum",
          "type": "uint256"
        },
        {
          "internalType": "uint256",
          "name": "maximum",
          "type": "uint256"
        }
      ],
      "stateMutability": "view",
      "type": "function"
    },
    {
      "inputs": [],
      "name": "remainingTokens",
      "outputs": [
        {
          "internalType": "uint256",
          "name": "",
          "type": "uint256"
        }
      ],
      "stateMutability": "view",
      "type": "function"
    },
    {
      "inputs": [],
      "name": "renounceOwnership",
      "outputs": [],
      "stateMutability": "nonpayable",
      "type": "function"
    },
    {
      "inputs": [
        {
          "internalType": "uint256",
          "name": "minimum",
          "type": "uint256"
        },
        {
          "internalType": "uint256",
          "name": "maximum",
          "type": "uint256"
        }
      ],
      "name": "setPurchaseLimits",
      "outputs": [],
      "stateMutability": "nonpayable",
      "type": "function"
    },
    {
      "inputs": [],
      "name": "token",
      "outputs": [
        {
          "internalType": "contract PresaleToken",
          "name": "",
          "type": "address"
        }
      ],
      "stateMutability": "view",
      "type": "function"
    },
    {
      "inputs": [],
      "name": "totalETHRaised",
      "outputs": [
        {
          "internalType": "uint256",
          "name": "",
          "type": "uint256"
        }
      ],
      "stateMutability": "view",
      "type": "function"
    },
    {
      "inputs": [],
      "name": "totalParticipants",
      "outputs": [
        {
          "internalType": "uint256",
          "name": "",
          "type": "uint256"
        }
      ],
      "stateMutability": "view",
      "type": "function"
    },
    {
      "inputs": [
        {
          "internalType": "address",
          "name": "",
          "type": "address"
        }
      ],
      "name": "totalPurchased",
      "outputs": [
        {
          "internalType": "uint256",
          "name": "",
          "type": "uint256"
        }
      ],
      "stateMutability": "view",
      "type": "function"
    },
    {
      "inputs": [],
      "name": "totalTokensSold",
      "outputs": [
        {
          "internalType": "uint256",
          "name": "",
          "type": "uint256"
        }
      ],
      "stateMutability": "view",
      "type": "function"
    },
    {
      "inputs": [
        {
          "internalType": "address",
          "name": "newOwner",
          "type": "address"
        }
      ],
      "name": "transferOwnership",
      "outputs": [],
      "stateMutability": "nonpayable",
      "type": "function"
    },
    {
      "inputs": [],
      "name": "unpause",
      "outputs": [],
      "stateMutability": "nonpayable",
      "type": "function"
    },
    {
      "inputs": [],
      "name": "withdrawETH",
      "outputs": [],
      "stateMutability": "nonpayable",
      "type": "function"
    },
    {
      "inputs": [
        {
          "internalType": "uint256",
          "name": "amount",
          "type": "uint256"
        }
      ],
      "name": "withdrawUnsoldTokens",
      "outputs": [],
      "stateMutability": "nonpayable",
      "type": "function"
    },
    {
      "stateMutability": "payable",
      "type": "receive"
    }
  ],
  "bytecode": "0x60a0604052662386f26fc100006006556802b5e3af16b1880000600755348015610027575f80fd5b5060405162001a4038038062001a40833981016040819052610048916100db565b338061006d57604051631e4fbdf760e01b81525f600482015260240160405180910390fd5b6100768161008c565b50600180556001600160a01b0316608052610108565b5f80546001600160a01b038381166001600160a01b0319831681178455604051919092169283917f8be0079c531659141344cd1fd0a4f28419497f9722a3daafe3b4186f6b6457e09190a35050565b5f602082840312156100eb575f80fd5b81516001600160a01b0381168114610101575f80fd5b9392505050565b6080516118fc620001445f395f8181610538015281816108460152818161091901528181610b9c01528181610c54015261109101526118fc5ff3fe608060405260043610610198575f3560e01c80638da5cb5b116100e7578063bf58390311610087578063eca23aef11610062578063eca23aef1461049e578063f2fde38b146104bd578063fb5781f1146104dc578063fc0c546a14610527575f80fd5b8063bf5839031461046e578063d0febe4c14610482578063e086e5ec1461048a575f80fd5b8063a3a40ea5116100c2578063a3a40ea5146103eb578063aa2de6c31461040c578063b4fb3ee314610421578063be30f0a61461044f575f80fd5b80638da5cb5b1461036c578063a0a8e4601461039c578063a26dbf26146103d6575f80fd5b806345f085a6116101525780635c975abb1161012d5780635c975abb1461030657806363b201171461032f578063715018a6146103445780638456cb5914610358575f80fd5b806345f085a61461029d578063497aef28146102bc5780635c815087146102e7575f80fd5b8063055ad42e146101ab5780630e135aa1146101d357806328f5c7b31461022f5780632e37eef61461024457806331a9b2f2146102745780633f4ba83a14610289575f80fd5b366101a7576101a561055a565b005b5f80fd5b3480156101b6575f80fd5b506101c060025481565b6040519081526020015b60405180910390f35b3480156101de575f80fd5b506102186101ed3660046114e3565b6001600160a01b03165f908152600a602090815260408083205460099092529091205460ff90911691565b6040805192151583526020830191909152016101ca565b34801561023a575f80fd5b506101c060035481565b34801561024f575f80fd5b5061026361025e366004611510565b610a76565b6040516101ca95949392919061156a565b34801561027f575f80fd5b506101c060075481565b348015610294575f80fd5b506101a5610b2d565b3480156102a8575f80fd5b506101a56102b7366004611510565b610b3d565b3480156102c7575f80fd5b506101c06102d63660046114e3565b60096020525f908152604090205481565b3480156102f2575f80fd5b506101a56103013660046115a2565b610d04565b348015610311575f80fd5b505f54600160a01b900460ff165b60405190151581526020016101ca565b34801561033a575f80fd5b506101c060045481565b34801561034f575f80fd5b506101a5610e7b565b348015610363575f80fd5b506101a5610e8c565b348015610377575f80fd5b505f546001600160a01b03165b6040516001600160a01b0390911681526020016101ca565b3480156103a7575f80fd5b50604080518082018252600c81526b050726573616c652076322e360a41b602082015290516101ca919061162d565b3480156103e1575f80fd5b506101c060055481565b3480156103f6575f80fd5b506103ff610e9c565b6040516101ca919061163f565b348015610417575f80fd5b506101c060065481565b34801561042c575f80fd5b5061031f61043b3660046114e3565b600a6020525f908152604090205460ff1681565b34801561045a575f80fd5b506101a5610469366004611690565b610fa9565b348015610479575f80fd5b506101c061107a565b6101a561055a565b348015610495575f80fd5b506101a5611107565b3480156104a9575f80fd5b506101a56104b8366004611510565b61122e565b3480156104c8575f80fd5b506101a56104d73660046114e3565b611318565b3480156104e7575f80fd5b50600254600354600454600554600654600754604080519687526020870195909552938501929092526060840152608083015260a082015260c0016101ca565b348015610532575f80fd5b506103847f000000000000000000000000000000000000000000000000000000000000000081565b610562611355565b61056a61137f565b6002545f90815260086020526040808220815160a08101909252805482908290610593906116b0565b80601f01602080910402602001604051908101604052809291908181526020018280546105bf906116b0565b801561060a5780601f106105e15761010080835404028352916020019161060a565b820191905f5260205f20905b8154815290600101906020018083116105ed57829003601f168201915b505050918352505060018201546020820152600282015460408201526003820154606082015260049091015460ff16151560809182015281015190915061068a5760405162461bcd60e51b815260206004820152600f60248201526e4e6f2061637469766520706861736560881b60448201526064015b60405180910390fd5b80604001514210156106d15760405162461bcd60e51b815260206004820152601060248201526f14d85b19481b9bdd081cdd185c9d195960821b6044820152606401610681565b80606001514211156107125760405162461bcd60e51b815260206004820152600a60248201526914d85b1948195b99195960b21b6044820152606401610681565b60065434101561075d5760405162461bcd60e51b815260206004820152601660248201527542656c6f77206d696e696d756d20707572636861736560501b6044820152606401610681565b6007543411156107a85760405162461bcd60e51b815260206004820152601660248201527541626f7665206d6178696d756d20707572636861736560501b6044820152606401610681565b600754335f908152600960205260409020546107c59034906116fc565b11156108135760405162461bcd60e51b815260206004820152601e60248201527f57616c6c6574207075726368617365206c696d697420657863656564656400006044820152606401610681565b5f8160200151346108249190611715565b6040516370a0823160e01b815230600482015290915081906001600160a01b037f000000000000000000000000000000000000000000000000000000000000000016906370a0823190602401602060405180830381865afa15801561088b573d5f803e3d5ffd5b505050506040513d601f19601f820116820180604052508101906108af919061172c565b10156108fd5760405162461bcd60e51b815260206004820152601a60248201527f496e73756666696369656e7420534554206c69717569646974790000000000006044820152606401610681565b60405163a9059cbb60e01b8152336004820152602481018290527f00000000000000000000000000000000000000000000000000000000000000006001600160a01b03169063a9059cbb906044016020604051808303815f875af1158015610967573d5f803e3d5ffd5b505050506040513d601f19601f8201168201806040525081019061098b9190611743565b50335f90815260096020526040812080543492906109aa9084906116fc565b925050819055503460035f8282546109c291906116fc565b925050819055508060045f8282546109da91906116fc565b9091555050335f908152600a602052604090205460ff16610a2257335f908152600a60205260408120805460ff191660011790556005805491610a1c83611762565b91905055505b60025460408051348152602081018490529081019190915233907f0d1a0d5e3d583a0e92588799dd06e50fd78c07daf05f0cc06d7b848b1ca445f19060600160405180910390a25050610a7460018055565b565b60086020525f9081526040902080548190610a90906116b0565b80601f0160208091040260200160405190810160405280929190818152602001828054610abc906116b0565b8015610b075780601f10610ade57610100808354040283529160200191610b07565b820191905f5260205f20905b815481529060010190602001808311610aea57829003601f168201915b505050506001830154600284015460038501546004909501549394919390925060ff1685565b610b356113a9565b610a746113d5565b610b456113a9565b5f8111610b855760405162461bcd60e51b815260206004820152600e60248201526d125b9d985b1a5908185b5bdd5b9d60921b6044820152606401610681565b6040516370a0823160e01b815230600482015281907f00000000000000000000000000000000000000000000000000000000000000006001600160a01b0316906370a0823190602401602060405180830381865afa158015610be9573d5f803e3d5ffd5b505050506040513d601f19601f82011682018060405250810190610c0d919061172c565b1015610c525760405162461bcd60e51b8152602060048201526014602482015273496e73756666696369656e742062616c616e636560601b6044820152606401610681565b7f00000000000000000000000000000000000000000000000000000000000000006001600160a01b031663a9059cbb610c925f546001600160a01b031690565b6040516001600160e01b031960e084901b1681526001600160a01b039091166004820152602481018490526044016020604051808303815f875af1158015610cdc573d5f803e3d5ffd5b505050506040513d601f19601f82011682018060405250810190610d009190611743565b5050565b610d0c6113a9565b5f8311610d4a5760405162461bcd60e51b815260206004820152600c60248201526b496e76616c6964207261746560a01b6044820152606401610681565b808210610d885760405162461bcd60e51b815260206004820152600c60248201526b496e76616c69642074696d6560a01b6044820152606401610681565b6040518060a0016040528086868080601f0160208091040260200160405190810160405280939291908181526020018383808284375f92018290525093855250505060208083018790526040808401879052606084018690526080909301829052898252600890522081518190610dff90826117dc565b50602082015160018201556040808301516002830155606083015160038301556080909201516004909101805460ff19169115159190911790555186907f544300b91121c0d9e3b427d2dcacd25282451d73ffbf7fed4bb1619e07b8541090610e6b9088908890611898565b60405180910390a2505050505050565b610e836113a9565b610a745f611429565b610e946113a9565b610a74611478565b610ecc6040518060a00160405280606081526020015f81526020015f81526020015f81526020015f151581525090565b6002545f9081526008602052604090819020815160a08101909252805482908290610ef6906116b0565b80601f0160208091040260200160405190810160405280929190818152602001828054610f22906116b0565b8015610f6d5780601f10610f4457610100808354040283529160200191610f6d565b820191905f5260205f20905b815481529060010190602001808311610f5057829003601f168201915b505050918352505060018201546020820152600282015460408201526003820154606082015260049091015460ff161515608090910152919050565b610fb16113a9565b5f8211610ff25760405162461bcd60e51b815260206004820152600f60248201526e496e76616c6964206d696e696d756d60881b6044820152606401610681565b8181116110335760405162461bcd60e51b815260206004820152600f60248201526e496e76616c6964206d6178696d756d60881b6044820152606401610681565b6006829055600781905560408051838152602081018390527f014cbc570fae5847ad558a55533e33e98137406c270ae13bd02270b086bb1724910160405180910390a15050565b6040516370a0823160e01b81523060048201525f907f00000000000000000000000000000000000000000000000000000000000000006001600160a01b0316906370a0823190602401602060405180830381865afa1580156110de573d5f803e3d5ffd5b505050506040513d601f19601f82011682018060405250810190611102919061172c565b905090565b61110f6113a9565b61111761137f565b47806111585760405162461bcd60e51b815260206004820152601060248201526f4e6f2045544820617661696c61626c6560801b6044820152606401610681565b5f80546040516001600160a01b039091169083908381818185875af1925050503d805f81146111a2576040519150601f19603f3d011682016040523d82523d5f602084013e6111a7565b606091505b50509050806111f05760405162461bcd60e51b8152602060048201526015602482015274115512081dda5d1a191c985dd85b0819985a5b1959605a1b6044820152606401610681565b6040518281527f94effa14ea3a1ef396fa2fd829336d1597f1d76b548c26bfa2332869706638af9060200160405180910390a15050610a7460018055565b6112366113a9565b5f818152600860205260408120805461124e906116b0565b90501161128f5760405162461bcd60e51b815260206004820152600f60248201526e141a185cd9481b9bdd08199bdd5b99608a1b6044820152606401610681565b6002545f90815260086020526040812080546112aa906116b0565b905011156112ce576002545f908152600860205260409020600401805460ff191690555b5f81815260086020526040808220600401805460ff1916600117905560028390555182917fc11316def95c71f99d2571598829d79fa78f9f57197036dd9069bd3e99d41c4091a250565b6113206113a9565b6001600160a01b03811661134957604051631e4fbdf760e01b81525f6004820152602401610681565b61135281611429565b50565b5f54600160a01b900460ff1615610a745760405163d93c066560e01b815260040160405180910390fd5b6002600154036113a257604051633ee5aeb560e01b815260040160405180910390fd5b6002600155565b5f546001600160a01b03163314610a745760405163118cdaa760e01b8152336004820152602401610681565b6113dd6114ba565b5f805460ff60a01b191690557f5db9ee0a495bf2e6ff9c91a7834c1ba4fdd244a5e8aa4e537bd38aeae4b073aa335b6040516001600160a01b03909116815260200160405180910390a1565b5f80546001600160a01b038381166001600160a01b0319831681178455604051919092169283917f8be0079c531659141344cd1fd0a4f28419497f9722a3daafe3b4186f6b6457e09190a35050565b611480611355565b5f805460ff60a01b1916600160a01b1790557f62e78cea01bee320cd4e420270b5ea74000d11b0c9f74754ebdbfc544b05a25861140c3390565b5f54600160a01b900460ff16610a7457604051638dfc202b60e01b815260040160405180910390fd5b5f602082840312156114f3575f80fd5b81356001600160a01b0381168114611509575f80fd5b9392505050565b5f60208284031215611520575f80fd5b5035919050565b5f81518084525f5b8181101561154b5760208185018101518683018201520161152f565b505f602082860101526020601f19601f83011685010191505092915050565b60a081525f61157c60a0830188611527565b905085602083015284604083015283606083015282151560808301529695505050505050565b5f805f805f8060a087890312156115b7575f80fd5b86359550602087013567ffffffffffffffff808211156115d5575f80fd5b818901915089601f8301126115e8575f80fd5b8135818111156115f6575f80fd5b8a6020828501011115611607575f80fd5b979a60209290920199509697604081013597506060810135965060800135945092505050565b602081525f6115096020830184611527565b602081525f825160a0602084015261165a60c0840182611527565b90506020840151604084015260408401516060840152606084015160808401526080840151151560a08401528091505092915050565b5f80604083850312156116a1575f80fd5b50508035926020909101359150565b600181811c908216806116c457607f821691505b6020821081036116e257634e487b7160e01b5f52602260045260245ffd5b50919050565b634e487b7160e01b5f52601160045260245ffd5b8082018082111561170f5761170f6116e8565b92915050565b808202811582820484141761170f5761170f6116e8565b5f6020828403121561173c575f80fd5b5051919050565b5f60208284031215611753575f80fd5b81518015158114611509575f80fd5b5f60018201611773576117736116e8565b5060010190565b634e487b7160e01b5f52604160045260245ffd5b601f8211156117d7575f81815260208120601f850160051c810160208610156117b45750805b601f850160051c820191505b818110156117d3578281556001016117c0565b5050505b505050565b815167ffffffffffffffff8111156117f6576117f661177a565b61180a8161180484546116b0565b8461178e565b602080601f83116001811461183d575f84156118265750858301515b5f19600386901b1c1916600185901b1785556117d3565b5f85815260208120601f198616915b8281101561186b5788860151825594840194600190910190840161184c565b508582101561188857878501515f19600388901b60f8161c191681555b5050505050600190811b01905550565b60208152816020820152818360408301375f818301604090810191909152601f909201601f1916010191905056fea26469706673582212207dca45eec86ccbf0db9bc5e413d5a5d60656c8f2b073e2171602fb9bcdde7d5364736f6c63430008140033",
  "linkReferences": {},
  "deployedLinkReferences": {},
  "immutableReferences": {
    "1205": [
      {
        "length": 32,
        "start": 1336
      },
      {
        "length": 32,
        "start": 2118
      },
      {
        "length": 32,
        "start": 2329
      },
      {
        "length": 32,
        "start": 2972
      },
      {
        "length": 32,
        "start": 3156
      },
      {
        "length": 32,
        "start": 4241
      }
    ]
  },
  "inputSourceName": "project/contracts/Presale.sol",
  "buildInfoId": "solc-0_8_20-25a6ef2431680c76fba98a7212111f704f7753f2"
}