{
  "_format": "hh3-artifact-1",
  "contractName": "PresaleToken",
  "sourceName": "contracts/PresaleToken.sol",
  "abi": [
    {
      "inputs": [],
      "stateMutability": "nonpayable",
      "type": "constructor"
    },
    {
      "inputs": [
        {
          "internalType": "address",
          "name": "spender",
          "type": "address"
        },
        {
          "internalType": "uint256",
          "name": "allowance",
          "type": "uint256"
        },
        {
          "internalType": "uint256",
          "name": "needed",
          "type": "uint256"
        }
      ],
      "name": "ERC20InsufficientAllowance",
      "type": "error"
    },
    {
      "inputs": [
        {
          "internalType": "address",
          "name": "sender",
          "type": "address"
        },
        {
          "internalType": "uint256",
          "name": "balance",
          "type": "uint256"
        },
        {
          "internalType": "uint256",
          "name": "needed",
          "type": "uint256"
        }
      ],
      "name": "ERC20InsufficientBalance",
      "type": "error"
    },
    {
      "inputs": [
        {
          "internalType": "address",
          "name": "approver",
          "type": "address"
        }
      ],
      "name": "ERC20InvalidApprover",
      "type": "error"
    },
    {
      "inputs": [
        {
          "internalType": "address",
          "name": "receiver",
          "type": "address"
        }
      ],
      "name": "ERC20InvalidReceiver",
      "type": "error"
    },
    {
      "inputs": [
        {
          "internalType": "address",
          "name": "sender",
          "type": "address"
        }
      ],
      "name": "ERC20InvalidSender",
      "type": "error"
    },
    {
      "inputs": [
        {
          "internalType": "address",
          "name": "spender",
          "type": "address"
        }
      ],
      "name": "ERC20InvalidSpender",
      "type": "error"
    },
    {
      "inputs": [
        {
          "internalType": "address",
          "name": "owner",
          "type": "address"
        }
      ],
      "name": "OwnableInvalidOwner",
      "type": "error"
    },
    {
      "inputs": [
        {
          "internalType": "address",
          "name": "account",
          "type": "address"
        }
      ],
      "name": "OwnableUnauthorizedAccount",
      "type": "error"
    },
    {
      "anonymous": false,
      "inputs": [
        {
          "indexed": true,
          "internalType": "address",
          "name": "owner",
          "type": "address"
        },
        {
          "indexed": true,
          "internalType": "address",
          "name": "spender",
          "type": "address"
        },
        {
          "indexed": false,
          "internalType": "uint256",
          "name": "value",
          "type": "uint256"
        }
      ],
      "name": "Approval",
      "type": "event"
    },
    {
      "anonymous": false,
      "inputs": [
        {
          "indexed": true,
          "internalType": "address",
          "name": "previousOwner",
          "type": "address"
        },
        {
          "indexed": true,
          "internalType": "address",
          "name": "newOwner",
          "type": "address"
        }
      ],
      "name": "OwnershipTransferred",
      "type": "event"
    },
    {
      "anonymous": false,
      "inputs": [
        {
          "indexed": true,
          "internalType": "address",
          "name": "from",
          "type": "address"
        },
        {
          "indexed": true,
          "internalType": "address",
          "name": "to",
          "type": "address"
        },
        {
          "indexed": false,
          "internalType": "uint256",
          "name": "value",
          "type": "uint256"
        }
      ],
      "name": "Transfer",
      "type": "event"
    },
    {
      "inputs": [
        {
          "internalType": "address",
          "name": "owner",
          "type": "address"
        },
        {
          "internalType": "address",
          "name": "spender",
          "type": "address"
        }
      ],
      "name": "allowance",
      "outputs": [
        {
          "internalType": "uint256",
          "name": "",
          "type": "uint256"
        }
      ],
      "stateMutability": "view",
      "type": "function"
    },
    {
      "inputs": [
        {
          "internalType": "address",
          "name": "spender",
          "type": "address"
        },
        {
          "internalType": "uint256",
          "name": "value",
          "type": "uint256"
        }
      ],
      "name": "approve",
      "outputs": [
        {
          "internalType": "bool",
          "name": "",
          "type": "bool"
        }
      ],
      "stateMutability": "nonpayable",
      "type": "function"
    },
    {
      "inputs": [
        {
          "internalType": "address",
          "name": "account",
          "type": "address"
        }
      ],
      "name": "balanceOf",
      "outputs": [
        {
          "internalType": "uint256",
          "name": "",
          "type": "uint256"
        }
      ],
      "stateMutability": "view",
      "type": "function"
    },
    {
      "inputs": [],
      "name": "decimals",
      "outputs": [
        {
          "internalType": "uint8",
          "name": "",
          "type": "uint8"
        }
      ],
      "stateMutability": "view",
      "type": "function"
    },
    {
      "inputs": [
        {
          "internalType": "address",
          "name": "presale",
          "type": "address"
        },
        {
          "internalType": "uint256",
          "name": "amount",
          "type": "uint256"
        }
      ],
      "name": "fundPresale",
      "outputs": [],
      "stateMutability": "nonpayable",
      "type": "function"
    },
    {
      "inputs": [],
      "name": "name",
      "outputs": [
        {
          "internalType": "string",
          "name": "",
          "type": "string"
        }
      ],
      "stateMutability": "view",
      "type": "function"
    },
    {
      "inputs": [],
      "name": "owner",
      "outputs": [
        {
          "internalType": "address",
          "name": "",
          "type": "address"
        }
      ],
      "stateMutability": "view",
      "type": "function"
    },
    {
      "inputs": [],
      "name": "renounceOwnership",
      "outputs": [],
      "stateMutability": "nonpayable",
      "type": "function"
    },
    {
      "inputs": [],
      "name": "symbol",
      "outputs": [
        {
          "internalType": "string",
          "name": "",
          "type": "string"
        }
      ],
      "stateMutability": "view",
      "type": "function"
    },
    {
      "inputs": [],
      "name": "totalSupply",
      "outputs": [
        {
          "internalType": "uint256",
          "name": "",
          "type": "uint256"
        }
      ],
      "stateMutability": "view",
      "type": "function"
    },
    {
      "inputs": [
        {
          "internalType": "address",
          "name": "to",
          "type": "address"
        },
        {
          "internalType": "uint256",
          "name": "value",
          "type": "uint256"
        }
      ],
      "name": "transfer",
      "outputs": [
        {
          "internalType": "bool",
          "name": "",
          "type": "bool"
        }
      ],
      "stateMutability": "nonpayable",
      "type": "function"
    },
    {
      "inputs": [
        {
          "internalType": "address",
          "name": "from",
          "type": "address"
        },
        {
          "internalType": "address",
          "name": "to",
          "type": "address"
        },
        {
          "internalType": "uint256",
          "name": "value",
          "type": "uint256"
        }
      ],
      "name": "transferFrom",
      "outputs": [
        {
          "internalType": "bool",
          "name": "",
          "type": "bool"
        }
      ],
      "stateMutability": "nonpayable",
      "type": "function"
    },
    {
      "inputs": [
        {
          "internalType": "address",
          "name": "newOwner",
          "type": "address"
        }
      ],
      "name": "transferOwnership",
      "outputs": [],
      "stateMutability": "nonpayable",
      "type": "function"
    }
  ],
  "bytecode": "0x608060405234801562000010575f80fd5b50336040518060400160405280601181526020017029b7b1b4b0b622b233b2b9102a37b5b2b760791b8152506040518060400160405280600381526020016214d15560ea1b815250816003908162000069919062000341565b50600462000078828262000341565b5050506001600160a01b038116620000aa57604051631e4fbdf760e01b81525f60048201526024015b60405180910390fd5b620000b581620000e5565b50620000df33620000c96012600a62000518565b620000d990633b9aca006200052f565b62000136565b6200055f565b600580546001600160a01b038381166001600160a01b0319831681179093556040519116919082907f8be0079c531659141344cd1fd0a4f28419497f9722a3daafe3b4186f6b6457e0905f90a35050565b6001600160a01b038216620001615760405163ec442f0560e01b81525f6004820152602401620000a1565b6200016e5f838362000172565b5050565b6001600160a01b038316620001a0578060025f82825462000194919062000549565b90915550620002129050565b6001600160a01b0383165f9081526020819052604090205481811015620001f45760405163391434e360e21b81526001600160a01b03851660048201526024810182905260448101839052606401620000a1565b6001600160a01b0384165f9081526020819052604090209082900390555b6001600160a01b03821662000230576002805482900390556200024e565b6001600160a01b0382165f9081526020819052604090208054820190555b816001600160a01b0316836001600160a01b03167fddf252ad1be2c89b69c2b068fc378daa952ba7f163c4a11628f55a4df523b3ef836040516200029491815260200190565b60405180910390a3505050565b634e487b7160e01b5f52604160045260245ffd5b600181811c90821680620002ca57607f821691505b602082108103620002e957634e487b7160e01b5f52602260045260245ffd5b50919050565b601f8211156200033c575f81815260208120601f850160051c81016020861015620003175750805b601f850160051c820191505b81811015620003385782815560010162000323565b5050505b505050565b81516001600160401b038111156200035d576200035d620002a1565b62000375816200036e8454620002b5565b84620002ef565b602080601f831160018114620003ab575f8415620003935750858301515b5f19600386901b1c1916600185901b17855562000338565b5f85815260208120601f198616915b82811015620003db57888601518255948401946001909101908401620003ba565b5085821015620003f957878501515f19600388901b60f8161c191681555b5050505050600190811b01905550565b634e487b7160e01b5f52601160045260245ffd5b600181815b808511156200045d57815f190482111562000441576200044162000409565b808516156200044f57918102915b93841c939080029062000422565b509250929050565b5f82620004755750600162000512565b816200048357505f62000512565b81600181146200049c5760028114620004a757620004c7565b600191505062000512565b60ff841115620004bb57620004bb62000409565b50506001821b62000512565b5060208310610133831016604e8410600b8410161715620004ec575081810a62000512565b620004f883836200041d565b805f19048211156200050e576200050e62000409565b0290505b92915050565b5f6200052860ff84168362000465565b9392505050565b808202811582820484141762000512576200051262000409565b8082018082111562000512576200051262000409565b610864806200056d5f395ff3fe608060405234801561000f575f80fd5b50600436106100cb575f3560e01c806370a082311161008857806395d89b411161006357806395d89b41146101a4578063a9059cbb146101ac578063dd62ed3e146101bf578063f2fde38b146101f7575f80fd5b806370a0823114610159578063715018a6146101815780638da5cb5b14610189575f80fd5b806306fdde03146100cf57806308889218146100ed578063095ea7b31461010257806318160ddd1461012557806323b872dd14610137578063313ce5671461014a575b5f80fd5b6100d761020a565b6040516100e491906106bf565b60405180910390f35b6101006100fb366004610725565b61029a565b005b610115610110366004610725565b6102b1565b60405190151581526020016100e4565b6002545b6040519081526020016100e4565b61011561014536600461074d565b6102ca565b604051601281526020016100e4565b610129610167366004610786565b6001600160a01b03165f9081526020819052604090205490565b6101006102ed565b6005546040516001600160a01b0390911681526020016100e4565b6100d7610300565b6101156101ba366004610725565b61030f565b6101296101cd3660046107a6565b6001600160a01b039182165f90815260016020908152604080832093909416825291909152205490565b610100610205366004610786565b61031c565b606060038054610219906107d7565b80601f0160208091040260200160405190810160405280929190818152602001828054610245906107d7565b80156102905780601f1061026757610100808354040283529160200191610290565b820191905f5260205f20905b81548152906001019060200180831161027357829003601f168201915b5050505050905090565b6102a261035e565b6102ad33838361038b565b5050565b5f336102be8185856103ed565b60019150505b92915050565b5f336102d78582856103fa565b6102e285858561038b565b506001949350505050565b6102f561035e565b6102fe5f610476565b565b606060048054610219906107d7565b5f336102be81858561038b565b61032461035e565b6001600160a01b03811661035257604051631e4fbdf760e01b81525f60048201526024015b60405180910390fd5b61035b81610476565b50565b6005546001600160a01b031633146102fe5760405163118cdaa760e01b8152336004820152602401610349565b6001600160a01b0383166103b457604051634b637e8f60e11b81525f6004820152602401610349565b6001600160a01b0382166103dd5760405163ec442f0560e01b81525f6004820152602401610349565b6103e88383836104c7565b505050565b6103e883838360016105ed565b6001600160a01b038381165f908152600160209081526040808320938616835292905220545f19811015610470578181101561046257604051637dc7a0d960e11b81526001600160a01b03841660048201526024810182905260448101839052606401610349565b61047084848484035f6105ed565b50505050565b600580546001600160a01b038381166001600160a01b0319831681179093556040519116919082907f8be0079c531659141344cd1fd0a4f28419497f9722a3daafe3b4186f6b6457e0905f90a35050565b6001600160a01b0383166104f1578060025f8282546104e6919061080f565b909155506105619050565b6001600160a01b0383165f90815260208190526040902054818110156105435760405163391434e360e21b81526001600160a01b03851660048201526024810182905260448101839052606401610349565b6001600160a01b0384165f9081526020819052604090209082900390555b6001600160a01b03821661057d5760028054829003905561059b565b6001600160a01b0382165f9081526020819052604090208054820190555b816001600160a01b0316836001600160a01b03167fddf252ad1be2c89b69c2b068fc378daa952ba7f163c4a11628f55a4df523b3ef836040516105e091815260200190565b60405180910390a3505050565b6001600160a01b0384166106165760405163e602df0560e01b81525f6004820152602401610349565b6001600160a01b03831661063f57604051634a1406b160e11b81525f6004820152602401610349565b6001600160a01b038085165f908152600160209081526040808320938716835292905220829055801561047057826001600160a01b0316846001600160a01b03167f8c5be1e5ebec7d5bd14f71427d1e84f3dd0314c0f7b2291e5b200ac8c7c3b925846040516106b191815260200190565b60405180910390a350505050565b5f6020808352835180828501525f5b818110156106ea578581018301518582016040015282016106ce565b505f604082860101526040601f19601f8301168501019250505092915050565b80356001600160a01b0381168114610720575f80fd5b919050565b5f8060408385031215610736575f80fd5b61073f8361070a565b946020939093013593505050565b5f805f6060848603121561075f575f80fd5b6107688461070a565b92506107766020850161070a565b9150604084013590509250925092565b5f60208284031215610796575f80fd5b61079f8261070a565b9392505050565b5f80604083850312156107b7575f80fd5b6107c08361070a565b91506107ce6020840161070a565b90509250929050565b600181811c908216806107eb57607f821691505b60208210810361080957634e487b7160e01b5f52602260045260245ffd5b50919050565b808201808211156102c457634e487b7160e01b5f52601160045260245ffdfea2646970667358221220d5ae45a83e9a06c1f101e0f817e5860ad249e6f808361ce2d2a4615d384a17e764736f6c63430008140033",
  "linkReferences": {},
  "deployedLinkReferences": {},
  "immutableReferences": {},
  "inputSourceName": "project/contracts/PresaleToken.sol",
  "buildInfoId": "solc-0_8_20-953cadcaa01ff7e3e9d7014576f65b54804bcc79"
}