{
  "_format": "hh3-artifact-1",
  "contractName": "PresaleToken",
  "sourceName": "contracts/PresaleToken.sol",
  "abi": [
    {
      "inputs": [],
      "stateMutability": "nonpayable",
      "type": "constructor"
    },
    {
      "inputs": [
        {
          "internalType": "address",
          "name": "spender",
          "type": "address"
        },
        {
          "internalType": "uint256",
          "name": "allowance",
          "type": "uint256"
        },
        {
          "internalType": "uint256",
          "name": "needed",
          "type": "uint256"
        }
      ],
      "name": "ERC20InsufficientAllowance",
      "type": "error"
    },
    {
      "inputs": [
        {
          "internalType": "address",
          "name": "sender",
          "type": "address"
        },
        {
          "internalType": "uint256",
          "name": "balance",
          "type": "uint256"
        },
        {
          "internalType": "uint256",
          "name": "needed",
          "type": "uint256"
        }
      ],
      "name": "ERC20InsufficientBalance",
      "type": "error"
    },
    {
      "inputs": [
        {
          "internalType": "address",
          "name": "approver",
          "type": "address"
        }
      ],
      "name": "ERC20InvalidApprover",
      "type": "error"
    },
    {
      "inputs": [
        {
          "internalType": "address",
          "name": "receiver",
          "type": "address"
        }
      ],
      "name": "ERC20InvalidReceiver",
      "type": "error"
    },
    {
      "inputs": [
        {
          "internalType": "address",
          "name": "sender",
          "type": "address"
        }
      ],
      "name": "ERC20InvalidSender",
      "type": "error"
    },
    {
      "inputs": [
        {
          "internalType": "address",
          "name": "spender",
          "type": "address"
        }
      ],
      "name": "ERC20InvalidSpender",
      "type": "error"
    },
    {
      "inputs": [],
      "name": "EnforcedPause",
      "type": "error"
    },
    {
      "inputs": [],
      "name": "ExpectedPause",
      "type": "error"
    },
    {
      "inputs": [
        {
          "internalType": "address",
          "name": "owner",
          "type": "address"
        }
      ],
      "name": "OwnableInvalidOwner",
      "type": "error"
    },
    {
      "inputs": [
        {
          "internalType": "address",
          "name": "account",
          "type": "address"
        }
      ],
      "name": "OwnableUnauthorizedAccount",
      "type": "error"
    },
    {
      "anonymous": false,
      "inputs": [
        {
          "indexed": true,
          "internalType": "address",
          "name": "owner",
          "type": "address"
        },
        {
          "indexed": true,
          "internalType": "address",
          "name": "spender",
          "type": "address"
        },
        {
          "indexed": false,
          "internalType": "uint256",
          "name": "value",
          "type": "uint256"
        }
      ],
      "name": "Approval",
      "type": "event"
    },
    {
      "anonymous": false,
      "inputs": [
        {
          "indexed": true,
          "internalType": "address",
          "name": "wallet",
          "type": "address"
        }
      ],
      "name": "DaoWalletUpdated",
      "type": "event"
    },
    {
      "anonymous": false,
      "inputs": [
        {
          "indexed": true,
          "internalType": "address",
          "name": "to",
          "type": "address"
        },
        {
          "indexed": false,
          "internalType": "uint256",
          "name": "amount",
          "type": "uint256"
        },
        {
          "indexed": false,
          "internalType": "string",
          "name": "purpose",
          "type": "string"
        }
      ],
      "name": "EcosystemTransfer",
      "type": "event"
    },
    {
      "anonymous": false,
      "inputs": [
        {
          "indexed": true,
          "internalType": "address",
          "name": "wallet",
          "type": "address"
        }
      ],
      "name": "EcosystemWalletUpdated",
      "type": "event"
    },
    {
      "anonymous": false,
      "inputs": [
        {
          "indexed": true,
          "internalType": "address",
          "name": "wallet",
          "type": "address"
        }
      ],
      "name": "MarketingWalletUpdated",
      "type": "event"
    },
    {
      "anonymous": false,
      "inputs": [
        {
          "indexed": true,
          "internalType": "address",
          "name": "previousOwner",
          "type": "address"
        },
        {
          "indexed": true,
          "internalType": "address",
          "name": "newOwner",
          "type": "address"
        }
      ],
      "name": "OwnershipTransferred",
      "type": "event"
    },
    {
      "anonymous": false,
      "inputs": [
        {
          "indexed": false,
          "internalType": "address",
          "name": "account",
          "type": "address"
        }
      ],
      "name": "Paused",
      "type": "event"
    },
    {
      "anonymous": false,
      "inputs": [
        {
          "indexed": true,
          "internalType": "address",
          "name": "wallet",
          "type": "address"
        }
      ],
      "name": "RewardsWalletUpdated",
      "type": "event"
    },
    {
      "anonymous": false,
      "inputs": [
        {
          "indexed": true,
          "internalType": "address",
          "name": "from",
          "type": "address"
        },
        {
          "indexed": true,
          "internalType": "address",
          "name": "to",
          "type": "address"
        },
        {
          "indexed": false,
          "internalType": "uint256",
          "name": "value",
          "type": "uint256"
        }
      ],
      "name": "Transfer",
      "type": "event"
    },
    {
      "anonymous": false,
      "inputs": [
        {
          "indexed": true,
          "internalType": "address",
          "name": "wallet",
          "type": "address"
        }
      ],
      "name": "TreasuryWalletUpdated",
      "type": "event"
    },
    {
      "anonymous": false,
      "inputs": [
        {
          "indexed": false,
          "internalType": "address",
          "name": "account",
          "type": "address"
        }
      ],
      "name": "Unpaused",
      "type": "event"
    },
    {
      "inputs": [],
      "name": "MAX_SUPPLY",
      "outputs": [
        {
          "internalType": "uint256",
          "name": "",
          "type": "uint256"
        }
      ],
      "stateMutability": "view",
      "type": "function"
    },
    {
      "inputs": [
        {
          "internalType": "address",
          "name": "owner",
          "type": "address"
        },
        {
          "internalType": "address",
          "name": "spender",
          "type": "address"
        }
      ],
      "name": "allowance",
      "outputs": [
        {
          "internalType": "uint256",
          "name": "",
          "type": "uint256"
        }
      ],
      "stateMutability": "view",
      "type": "function"
    },
    {
      "inputs": [
        {
          "internalType": "address",
          "name": "spender",
          "type": "address"
        },
        {
          "internalType": "uint256",
          "name": "value",
          "type": "uint256"
        }
      ],
      "name": "approve",
      "outputs": [
        {
          "internalType": "bool",
          "name": "",
          "type": "bool"
        }
      ],
      "stateMutability": "nonpayable",
      "type": "function"
    },
    {
      "inputs": [
        {
          "internalType": "address",
          "name": "account",
          "type": "address"
        }
      ],
      "name": "balanceOf",
      "outputs": [
        {
          "internalType": "uint256",
          "name": "",
          "type": "uint256"
        }
      ],
      "stateMutability": "view",
      "type": "function"
    },
    {
      "inputs": [
        {
          "internalType": "uint256",
          "name": "value",
          "type": "uint256"
        }
      ],
      "name": "burn",
      "outputs": [],
      "stateMutability": "nonpayable",
      "type": "function"
    },
    {
      "inputs": [
        {
          "internalType": "address",
          "name": "account",
          "type": "address"
        },
        {
          "internalType": "uint256",
          "name": "value",
          "type": "uint256"
        }
      ],
      "name": "burnFrom",
      "outputs": [],
      "stateMutability": "nonpayable",
      "type": "function"
    },
    {
      "inputs": [],
      "name": "circulatingSupply",
      "outputs": [
        {
          "internalType": "uint256",
          "name": "",
          "type": "uint256"
        }
      ],
      "stateMutability": "view",
      "type": "function"
    },
    {
      "inputs": [],
      "name": "contractVersion",
      "outputs": [
        {
          "internalType": "string",
          "name": "",
          "type": "string"
        }
      ],
      "stateMutability": "pure",
      "type": "function"
    },
    {
      "inputs": [],
      "name": "daoWallet",
      "outputs": [
        {
          "internalType": "address",
          "name": "",
          "type": "address"
        }
      ],
      "stateMutability": "view",
      "type": "function"
    },
    {
      "inputs": [],
      "name": "decimals",
      "outputs": [
        {
          "internalType": "uint8",
          "name": "",
          "type": "uint8"
        }
      ],
      "stateMutability": "view",
      "type": "function"
    },
    {
      "inputs": [],
      "name": "ecosystemSummary",
      "outputs": [
        {
          "internalType": "uint256",
          "name": "maxSupply",
          "type": "uint256"
        },
        {
          "internalType": "uint256",
          "name": "currentSupply",
          "type": "uint256"
        },
        {
          "internalType": "uint256",
          "name": "burnedSupply",
          "type": "uint256"
        },
        {
          "internalType": "address",
          "name": "treasury",
          "type": "address"
        },
        {
          "internalType": "address",
          "name": "rewards",
          "type": "address"
        },
        {
          "internalType": "address",
          "name": "dao",
          "type": "address"
        },
        {
          "internalType": "address",
          "name": "ecosystem",
          "type": "address"
        },
        {
          "internalType": "address",
          "name": "marketing",
          "type": "address"
        }
      ],
      "stateMutability": "view",
      "type": "function"
    },
    {
      "inputs": [
        {
          "internalType": "address",
          "name": "recipient",
          "type": "address"
        },
        {
          "internalType": "uint256",
          "name": "amount",
          "type": "uint256"
        },
        {
          "internalType": "string",
          "name": "purpose",
          "type": "string"
        }
      ],
      "name": "ecosystemTransfer",
      "outputs": [],
      "stateMutability": "nonpayable",
      "type": "function"
    },
    {
      "inputs": [],
      "name": "ecosystemWallet",
      "outputs": [
        {
          "internalType": "address",
          "name": "",
          "type": "address"
        }
      ],
      "stateMutability": "view",
      "type": "function"
    },
    {
      "inputs": [
        {
          "internalType": "uint256",
          "name": "amount",
          "type": "uint256"
        }
      ],
      "name": "fundDAO",
      "outputs": [],
      "stateMutability": "nonpayable",
      "type": "function"
    },
    {
      "inputs": [
        {
          "internalType": "uint256",
          "name": "amount",
          "type": "uint256"
        }
      ],
      "name": "fundEcosystem",
      "outputs": [],
      "stateMutability": "nonpayable",
      "type": "function"
    },
    {
      "inputs": [
        {
          "internalType": "uint256",
          "name": "amount",
          "type": "uint256"
        }
      ],
      "name": "fundMarketing",
      "outputs": [],
      "stateMutability": "nonpayable",
      "type": "function"
    },
    {
      "inputs": [
        {
          "internalType": "address",
          "name": "presale",
          "type": "address"
        },
        {
          "internalType": "uint256",
          "name": "amount",
          "type": "uint256"
        }
      ],
      "name": "fundPresale",
      "outputs": [],
      "stateMutability": "nonpayable",
      "type": "function"
    },
    {
      "inputs": [
        {
          "internalType": "uint256",
          "name": "amount",
          "type": "uint256"
        }
      ],
      "name": "fundRewards",
      "outputs": [],
      "stateMutability": "nonpayable",
      "type": "function"
    },
    {
      "inputs": [
        {
          "internalType": "uint256",
          "name": "amount",
          "type": "uint256"
        }
      ],
      "name": "fundTreasury",
      "outputs": [],
      "stateMutability": "nonpayable",
      "type": "function"
    },
    {
      "inputs": [],
      "name": "marketingWallet",
      "outputs": [
        {
          "internalType": "address",
          "name": "",
          "type": "address"
        }
      ],
      "stateMutability": "view",
      "type": "function"
    },
    {
      "inputs": [],
      "name": "name",
      "outputs": [
        {
          "internalType": "string",
          "name": "",
          "type": "string"
        }
      ],
      "stateMutability": "view",
      "type": "function"
    },
    {
      "inputs": [],
      "name": "owner",
      "outputs": [
        {
          "internalType": "address",
          "name": "",
          "type": "address"
        }
      ],
      "stateMutability": "view",
      "type": "function"
    },
    {
      "inputs": [],
      "name": "pause",
      "outputs": [],
      "stateMutability": "nonpayable",
      "type": "function"
    },
    {
      "inputs": [],
      "name": "paused",
      "outputs": [
        {
          "internalType": "bool",
          "name": "",
          "type": "bool"
        }
      ],
      "stateMutability": "view",
      "type": "function"
    },
    {
      "inputs": [],
      "name": "renounceOwnership",
      "outputs": [],
      "stateMutability": "nonpayable",
      "type": "function"
    },
    {
      "inputs": [],
      "name": "rewardsWallet",
      "outputs": [
        {
          "internalType": "address",
          "name": "",
          "type": "address"
        }
      ],
      "stateMutability": "view",
      "type": "function"
    },
    {
      "inputs": [
        {
          "internalType": "address",
          "name": "wallet",
          "type": "address"
        }
      ],
      "name": "setDaoWallet",
      "outputs": [],
      "stateMutability": "nonpayable",
      "type": "function"
    },
    {
      "inputs": [
        {
          "internalType": "address",
          "name": "wallet",
          "type": "address"
        }
      ],
      "name": "setEcosystemWallet",
      "outputs": [],
      "stateMutability": "nonpayable",
      "type": "function"
    },
    {
      "inputs": [
        {
          "internalType": "address",
          "name": "wallet",
          "type": "address"
        }
      ],
      "name": "setMarketingWallet",
      "outputs": [],
      "stateMutability": "nonpayable",
      "type": "function"
    },
    {
      "inputs": [
        {
          "internalType": "address",
          "name": "wallet",
          "type": "address"
        }
      ],
      "name": "setRewardsWallet",
      "outputs": [],
      "stateMutability": "nonpayable",
      "type": "function"
    },
    {
      "inputs": [
        {
          "internalType": "address",
          "name": "wallet",
          "type": "address"
        }
      ],
      "name": "setTreasuryWallet",
      "outputs": [],
      "stateMutability": "nonpayable",
      "type": "function"
    },
    {
      "inputs": [],
      "name": "symbol",
      "outputs": [
        {
          "internalType": "string",
          "name": "",
          "type": "string"
        }
      ],
      "stateMutability": "view",
      "type": "function"
    },
    {
      "inputs": [],
      "name": "totalBurned",
      "outputs": [
        {
          "internalType": "uint256",
          "name": "",
          "type": "uint256"
        }
      ],
      "stateMutability": "view",
      "type": "function"
    },
    {
      "inputs": [],
      "name": "totalSupply",
      "outputs": [
        {
          "internalType": "uint256",
          "name": "",
          "type": "uint256"
        }
      ],
      "stateMutability": "view",
      "type": "function"
    },
    {
      "inputs": [
        {
          "internalType": "address",
          "name": "to",
          "type": "address"
        },
        {
          "internalType": "uint256",
          "name": "value",
          "type": "uint256"
        }
      ],
      "name": "transfer",
      "outputs": [
        {
          "internalType": "bool",
          "name": "",
          "type": "bool"
        }
      ],
      "stateMutability": "nonpayable",
      "type": "function"
    },
    {
      "inputs": [
        {
          "internalType": "address",
          "name": "from",
          "type": "address"
        },
        {
          "internalType": "address",
          "name": "to",
          "type": "address"
        },
        {
          "internalType": "uint256",
          "name": "value",
          "type": "uint256"
        }
      ],
      "name": "transferFrom",
      "outputs": [
        {
          "internalType": "bool",
          "name": "",
          "type": "bool"
        }
      ],
      "stateMutability": "nonpayable",
      "type": "function"
    },
    {
      "inputs": [
        {
          "internalType": "address",
          "name": "newOwner",
          "type": "address"
        }
      ],
      "name": "transferOwnership",
      "outputs": [],
      "stateMutability": "nonpayable",
      "type": "function"
    },
    {
      "inputs": [],
      "name": "treasuryWallet",
      "outputs": [
        {
          "internalType": "address",
          "name": "",
          "type": "address"
        }
      ],
      "stateMutability": "view",
      "type": "function"
    },
    {
      "inputs": [],
      "name": "unpause",
      "outputs": [],
      "stateMutability": "nonpayable",
      "type": "function"
    }
  ],
  "bytecode": "0x608060405234801562000010575f80fd5b50336040518060400160405280601181526020017029b7b1b4b0b622b233b2b9102a37b5b2b760791b8152506040518060400160405280600381526020016214d15560ea1b815250816003908162000069919062000387565b50600462000078828262000387565b5050506001600160a01b038116620000aa57604051631e4fbdf760e01b81525f60048201526024015b60405180910390fd5b620000b581620000d4565b50620000ce336b033b2e3c9fd0803ce80000006200012d565b62000475565b600580546001600160a01b03838116610100818102610100600160a81b031985161790945560405193909204169182907f8be0079c531659141344cd1fd0a4f28419497f9722a3daafe3b4186f6b6457e0905f90a35050565b6001600160a01b038216620001585760405163ec442f0560e01b81525f6004820152602401620000a1565b620001655f838362000169565b5050565b620001768383836200017b565b505050565b6200018562000192565b62000176838383620001b9565b60055460ff1615620001b75760405163d93c066560e01b815260040160405180910390fd5b565b6001600160a01b038316620001e7578060025f828254620001db91906200044f565b90915550620002599050565b6001600160a01b0383165f90815260208190526040902054818110156200023b5760405163391434e360e21b81526001600160a01b03851660048201526024810182905260448101839052606401620000a1565b6001600160a01b0384165f9081526020819052604090209082900390555b6001600160a01b038216620002775760028054829003905562000295565b6001600160a01b0382165f9081526020819052604090208054820190555b816001600160a01b0316836001600160a01b03167fddf252ad1be2c89b69c2b068fc378daa952ba7f163c4a11628f55a4df523b3ef83604051620002db91815260200190565b60405180910390a3505050565b634e487b7160e01b5f52604160045260245ffd5b600181811c908216806200031157607f821691505b6020821081036200033057634e487b7160e01b5f52602260045260245ffd5b50919050565b601f82111562000176575f81815260208120601f850160051c810160208610156200035e5750805b601f850160051c820191505b818110156200037f578281556001016200036a565b505050505050565b81516001600160401b03811115620003a357620003a3620002e8565b620003bb81620003b48454620002fc565b8462000336565b602080601f831160018114620003f1575f8415620003d95750858301515b5f19600386901b1c1916600185901b1785556200037f565b5f85815260208120601f198616915b82811015620004215788860151825594840194600190910190840162000400565b50858210156200043f57878501515f19600388901b60f8161c191681555b5050505050600190811b01905550565b808201808211156200046f57634e487b7160e01b5f52601160045260245ffd5b92915050565b61157f80620004835f395ff3fe608060405234801561000f575f80fd5b5060043610610234575f3560e01c8063698a589711610135578063a0a8e460116100b4578063dd62ed3e11610079578063dd62ed3e14610514578063f2fde38b1461054c578063f3ff43da1461055f578063f520368414610572578063f6471f4b14610585575f80fd5b8063a0a8e460146104a9578063a1980430146104d3578063a8602fea146104e6578063a9059cbb146104f9578063d89135cd1461050c575f80fd5b80638456cb59116100fa5780638456cb59146104685780638da5cb5b146104705780639358928b1461048657806393707a191461048e57806395d89b41146104a1575f80fd5b8063698a5897146103ff57806370a0823114610412578063715018a61461043a57806375f0a8741461044257806379cc679014610455575f80fd5b80633e9e508a116101c15780635b35f9c9116101865780635b35f9c9146103675780635c975abb1461037a5780635d098b38146103855780635dea52f41461039857806364997e01146103ec575f80fd5b80633e9e508a146102fb5780633f4ba83a1461030e57806342966c6814610316578063435263ef146103295780634626402b14610354575f80fd5b80631a53d30e116102075780631a53d30e146102a057806323b872dd146102b3578063313ce567146102c657806332cb6b0c146102d55780633318c803146102e8575f80fd5b806306fdde03146102385780630888921814610256578063095ea7b31461026b57806318160ddd1461028e575b5f80fd5b610240610598565b60405161024d9190611319565b60405180910390f35b61026961026436600461134d565b610628565b005b61027e61027936600461134d565b61065e565b604051901515815260200161024d565b6002545b60405190815260200161024d565b6102696102ae366004611375565b610677565b61027e6102c136600461138c565b610719565b6040516012815260200161024d565b6102926b033b2e3c9fd0803ce800000081565b6102696102f63660046113c5565b61073c565b610269610309366004611375565b61078a565b610269610822565b610269610324366004611375565b610834565b60095461033c906001600160a01b031681565b6040516001600160a01b03909116815260200161024d565b60065461033c906001600160a01b031681565b60075461033c906001600160a01b031681565b60055460ff1661027e565b610269610393366004611445565b61083e565b6103a06108b5565b604080519889526020890197909752958701949094526001600160a01b0392831660608701529082166080860152811660a085015290811660c08401521660e08201526101000161024d565b6102696103fa366004611445565b610916565b60085461033c906001600160a01b031681565b610292610420366004611445565b6001600160a01b03165f9081526020819052604090205490565b61026961098d565b600a5461033c906001600160a01b031681565b61026961046336600461134d565b61099e565b6102696109b3565b60055461010090046001600160a01b031661033c565b6102926109c3565b61026961049c366004611375565b6109d2565b610240610a63565b60408051808201909152600e81526d053455420546f6b656e2076322e360941b6020820152610240565b6102696104e1366004611445565b610a72565b6102696104f4366004611445565b610ae9565b61027e61050736600461134d565b610b60565b610292610b6d565b61029261052236600461145e565b6001600160a01b039182165f90815260016020908152604080832093909416825291909152205490565b61026961055a366004611445565b610b8d565b61026961056d366004611445565b610bc7565b610269610580366004611375565b610c3e565b610269610593366004611375565b610cc5565b6060600380546105a79061148f565b80601f01602080910402602001604051908101604052809291908181526020018280546105d39061148f565b801561061e5780601f106105f55761010080835404028352916020019161061e565b820191905f5260205f20905b81548152906001019060200180831161060157829003601f168201915b5050505050905090565b610630610d5c565b61065a82826040518060400160405280600781526020016650726573616c6560c81b815250610d8f565b5050565b5f3361066b818585610e7d565b60019150505b92915050565b61067f610d5c565b6009546001600160a01b03166106dc5760405162461bcd60e51b815260206004820152601860248201527f45636f73797374656d2077616c6c6574206e6f7420736574000000000000000060448201526064015b60405180910390fd5b60098054604080518082019091529182526845636f73797374656d60b81b6020830152610716916001600160a01b03909116908390610d8f565b50565b5f33610726858285610e8f565b610731858585610f05565b506001949350505050565b610744610d5c565b610784848484848080601f0160208091040260200160405190810160405280939291908181526020018383808284375f92019190915250610d8f92505050565b50505050565b610792610d5c565b600a546001600160a01b03166107ea5760405162461bcd60e51b815260206004820152601860248201527f4d61726b6574696e672077616c6c6574206e6f7420736574000000000000000060448201526064016106d3565b600a546040805180820190915260098152684d61726b6574696e6760b81b6020820152610716916001600160a01b0316908390610d8f565b61082a610d5c565b610832610f62565b565b6107163382610fb4565b610846610d5c565b6001600160a01b03811661086c5760405162461bcd60e51b81526004016106d3906114c7565b600a80546001600160a01b0319166001600160a01b0383169081179091556040517fbf86feedee5b30c30a8243bd21deebb704d141478d39b1be04fe5ee739f214e7905f90a250565b5f805f805f805f806b033b2e3c9fd0803ce80000006108d360025490565b6108db610b6d565b600654600754600854600954600a54969f959e50939c506001600160a01b039283169b50908216995081169750908116955090911692509050565b61091e610d5c565b6001600160a01b0381166109445760405162461bcd60e51b81526004016106d3906114c7565b600880546001600160a01b0319166001600160a01b0383169081179091556040517fe350eafeb77907c314723a0d8854919a914d11e973c487eb728818ba6cc8842f905f90a250565b610995610d5c565b6108325f610fe8565b6109a9823383610e8f565b61065a8282610fb4565b6109bb610d5c565b610832611041565b5f6109cd60025490565b905090565b6109da610d5c565b6007546001600160a01b0316610a2b5760405162461bcd60e51b815260206004820152601660248201527514995dd85c991cc81dd85b1b195d081b9bdd081cd95d60521b60448201526064016106d3565b6007805460408051808201909152918252665265776172647360c81b6020830152610716916001600160a01b03909116908390610d8f565b6060600480546105a79061148f565b610a7a610d5c565b6001600160a01b038116610aa05760405162461bcd60e51b81526004016106d3906114c7565b600780546001600160a01b0319166001600160a01b0383169081179091556040517f32dc73cdfb617acbe2fb561012a7e62825c51774e545758a00078626d020d9ce905f90a250565b610af1610d5c565b6001600160a01b038116610b175760405162461bcd60e51b81526004016106d3906114c7565b600680546001600160a01b0319166001600160a01b0383169081179091556040517f97c79b3848e51f57983ac89e4403452655c8d83ceba8199011de63a74f60d1a7905f90a250565b5f3361066b818585610f05565b5f610b7760025490565b6109cd906b033b2e3c9fd0803ce8000000611503565b610b95610d5c565b6001600160a01b038116610bbe57604051631e4fbdf760e01b81525f60048201526024016106d3565b61071681610fe8565b610bcf610d5c565b6001600160a01b038116610bf55760405162461bcd60e51b81526004016106d3906114c7565b600980546001600160a01b0319166001600160a01b0383169081179091556040517f66a48a52c0721523753bafb828f398c2a8f842ba57067c8ca05a53f7757d1b12905f90a250565b610c46610d5c565b6008546001600160a01b0316610c935760405162461bcd60e51b8152602060048201526012602482015271111053c81dd85b1b195d081b9bdd081cd95d60721b60448201526064016106d3565b60085460408051808201909152600381526244414f60e81b6020820152610716916001600160a01b0316908390610d8f565b610ccd610d5c565b6006546001600160a01b0316610d255760405162461bcd60e51b815260206004820152601760248201527f54726561737572792077616c6c6574206e6f742073657400000000000000000060448201526064016106d3565b600654604080518082019091526008815267547265617375727960c01b6020820152610716916001600160a01b0316908390610d8f565b6005546001600160a01b036101009091041633146108325760405163118cdaa760e01b81523360048201526024016106d3565b6001600160a01b038316610dd95760405162461bcd60e51b8152602060048201526011602482015270125b9d985b1a59081c9958da5c1a595b9d607a1b60448201526064016106d3565b5f8211610e195760405162461bcd60e51b815260206004820152600e60248201526d125b9d985b1a5908185b5bdd5b9d60921b60448201526064016106d3565b600554610e359061010090046001600160a01b03168484610f05565b826001600160a01b03167fa64e3ece0f293308df23ae60802b3c5a36e7d764dd60de5969a69a757d7d32a58383604051610e70929190611516565b60405180910390a2505050565b610e8a838383600161107e565b505050565b6001600160a01b038381165f908152600160209081526040808320938616835292905220545f198110156107845781811015610ef757604051637dc7a0d960e11b81526001600160a01b038416600482015260248101829052604481018390526064016106d3565b61078484848484035f61107e565b6001600160a01b038316610f2e57604051634b637e8f60e11b81525f60048201526024016106d3565b6001600160a01b038216610f575760405163ec442f0560e01b81525f60048201526024016106d3565b610e8a838383611150565b610f6a61115b565b6005805460ff191690557f5db9ee0a495bf2e6ff9c91a7834c1ba4fdd244a5e8aa4e537bd38aeae4b073aa335b6040516001600160a01b03909116815260200160405180910390a1565b6001600160a01b038216610fdd57604051634b637e8f60e11b81525f60048201526024016106d3565b61065a825f83611150565b600580546001600160a01b03838116610100818102610100600160a81b031985161790945560405193909204169182907f8be0079c531659141344cd1fd0a4f28419497f9722a3daafe3b4186f6b6457e0905f90a35050565b61104961117e565b6005805460ff191660011790557f62e78cea01bee320cd4e420270b5ea74000d11b0c9f74754ebdbfc544b05a258610f973390565b6001600160a01b0384166110a75760405163e602df0560e01b81525f60048201526024016106d3565b6001600160a01b0383166110d057604051634a1406b160e11b81525f60048201526024016106d3565b6001600160a01b038085165f908152600160209081526040808320938716835292905220829055801561078457826001600160a01b0316846001600160a01b03167f8c5be1e5ebec7d5bd14f71427d1e84f3dd0314c0f7b2291e5b200ac8c7c3b9258460405161114291815260200190565b60405180910390a350505050565b610e8a8383836111a2565b60055460ff1661083257604051638dfc202b60e01b815260040160405180910390fd5b60055460ff16156108325760405163d93c066560e01b815260040160405180910390fd5b6111aa61117e565b610e8a8383836001600160a01b0383166111da578060025f8282546111cf9190611536565b9091555061124a9050565b6001600160a01b0383165f908152602081905260409020548181101561122c5760405163391434e360e21b81526001600160a01b038516600482015260248101829052604481018390526064016106d3565b6001600160a01b0384165f9081526020819052604090209082900390555b6001600160a01b03821661126657600280548290039055611284565b6001600160a01b0382165f9081526020819052604090208054820190555b816001600160a01b0316836001600160a01b03167fddf252ad1be2c89b69c2b068fc378daa952ba7f163c4a11628f55a4df523b3ef836040516112c991815260200190565b60405180910390a3505050565b5f81518084525f5b818110156112fa576020818501810151868301820152016112de565b505f602082860101526020601f19601f83011685010191505092915050565b602081525f61132b60208301846112d6565b9392505050565b80356001600160a01b0381168114611348575f80fd5b919050565b5f806040838503121561135e575f80fd5b61136783611332565b946020939093013593505050565b5f60208284031215611385575f80fd5b5035919050565b5f805f6060848603121561139e575f80fd5b6113a784611332565b92506113b560208501611332565b9150604084013590509250925092565b5f805f80606085870312156113d8575f80fd5b6113e185611332565b935060208501359250604085013567ffffffffffffffff80821115611404575f80fd5b818701915087601f830112611417575f80fd5b813581811115611425575f80fd5b886020828501011115611436575f80fd5b95989497505060200194505050565b5f60208284031215611455575f80fd5b61132b82611332565b5f806040838503121561146f575f80fd5b61147883611332565b915061148660208401611332565b90509250929050565b600181811c908216806114a357607f821691505b6020821081036114c157634e487b7160e01b5f52602260045260245ffd5b50919050565b6020808252600e908201526d125b9d985b1a59081dd85b1b195d60921b604082015260600190565b634e487b7160e01b5f52601160045260245ffd5b81810381811115610671576106716114ef565b828152604060208201525f61152e60408301846112d6565b949350505050565b80820180821115610671576106716114ef56fea26469706673582212208956631ff1607ea0f29f6a51334ccd956b76ca1a59efcce4811c72d7d5b6a17c64736f6c63430008140033",
  "linkReferences": {},
  "deployedLinkReferences": {},
  "immutableReferences": {},
  "inputSourceName": "project/contracts/PresaleToken.sol",
  "buildInfoId": "solc-0_8_20-d57bcca6ebbb0d3e243a4cfa6de8748e2fa571e1"
}